{
  "_format": "hh-sol-artifact-1",
  "contractName": "BunnyNotes",
  "sourceName": "contracts/BunnyNotes.sol",
  "abi": [
    {
      "inputs": [
        {
          "internalType": "contract IVerifier",
          "name": "_verifier",
          "type": "address"
        },
        {
          "internalType": "address",
          "name": "_feelessToken",
          "type": "address"
        }
      ],
      "stateMutability": "nonpayable",
      "type": "constructor"
    },
    {
      "anonymous": false,
      "inputs": [
        {
          "indexed": true,
          "internalType": "bytes32",
          "name": "commitment",
          "type": "bytes32"
        },
        {
          "indexed": false,
          "internalType": "address",
          "name": "depositFor",
          "type": "address"
        },
        {
          "indexed": false,
          "internalType": "uint256",
          "name": "timestamp",
          "type": "uint256"
        },
        {
          "indexed": false,
          "internalType": "uint256",
          "name": "denomination",
          "type": "uint256"
        },
        {
          "indexed": false,
          "internalType": "uint256",
          "name": "fee",
          "type": "uint256"
        }
      ],
      "name": "DepositETH",
      "type": "event"
    },
    {
      "anonymous": false,
      "inputs": [
        {
          "indexed": true,
          "internalType": "bytes32",
          "name": "commitment",
          "type": "bytes32"
        },
        {
          "indexed": false,
          "internalType": "address",
          "name": "depositFor",
          "type": "address"
        },
        {
          "indexed": false,
          "internalType": "uint256",
          "name": "timestamp",
          "type": "uint256"
        },
        {
          "indexed": false,
          "internalType": "uint256",
          "name": "amount",
          "type": "uint256"
        },
        {
          "indexed": false,
          "internalType": "uint256",
          "name": "fee",
          "type": "uint256"
        },
        {
          "indexed": false,
          "internalType": "address",
          "name": "token",
          "type": "address"
        }
      ],
      "name": "DepositToken",
      "type": "event"
    },
    {
      "anonymous": false,
      "inputs": [
        {
          "indexed": false,
          "internalType": "address",
          "name": "from",
          "type": "address"
        },
        {
          "indexed": false,
          "internalType": "address",
          "name": "to",
          "type": "address"
        },
        {
          "indexed": false,
          "internalType": "bytes32",
          "name": "commitment",
          "type": "bytes32"
        }
      ],
      "name": "WithdrawBunnyNote",
      "type": "event"
    },
    {
      "inputs": [],
      "name": "_owner",
      "outputs": [
        {
          "internalType": "address payable",
          "name": "",
          "type": "address"
        }
      ],
      "stateMutability": "view",
      "type": "function"
    },
    {
      "inputs": [
        {
          "internalType": "uint256",
          "name": "denomination",
          "type": "uint256"
        }
      ],
      "name": "calculateFee",
      "outputs": [
        {
          "internalType": "uint256",
          "name": "fee",
          "type": "uint256"
        }
      ],
      "stateMutability": "pure",
      "type": "function"
    },
    {
      "inputs": [
        {
          "internalType": "bytes32",
          "name": "",
          "type": "bytes32"
        }
      ],
      "name": "commitments",
      "outputs": [
        {
          "internalType": "bool",
          "name": "used",
          "type": "bool"
        },
        {
          "internalType": "address",
          "name": "creator",
          "type": "address"
        },
        {
          "internalType": "address",
          "name": "recipient",
          "type": "address"
        },
        {
          "internalType": "uint256",
          "name": "createdDate",
          "type": "uint256"
        },
        {
          "internalType": "uint256",
          "name": "spentDate",
          "type": "uint256"
        },
        {
          "internalType": "bool",
          "name": "usesToken",
          "type": "bool"
        },
        {
          "internalType": "contract IERC20",
          "name": "token",
          "type": "address"
        },
        {
          "internalType": "uint256",
          "name": "denomination",
          "type": "uint256"
        }
      ],
      "stateMutability": "view",
      "type": "function"
    },
    {
      "inputs": [
        {
          "internalType": "bytes32",
          "name": "_commitment",
          "type": "bytes32"
        },
        {
          "internalType": "uint256",
          "name": "denomination",
          "type": "uint256"
        }
      ],
      "name": "depositEth",
      "outputs": [],
      "stateMutability": "payable",
      "type": "function"
    },
    {
      "inputs": [
        {
          "internalType": "bytes32",
          "name": "_commitment",
          "type": "bytes32"
        },
        {
          "internalType": "uint256",
          "name": "denomination",
          "type": "uint256"
        },
        {
          "internalType": "address",
          "name": "token",
          "type": "address"
        }
      ],
      "name": "depositToken",
      "outputs": [],
      "stateMutability": "nonpayable",
      "type": "function"
    },
    {
      "inputs": [],
      "name": "feeDivider",
      "outputs": [
        {
          "internalType": "uint256",
          "name": "",
          "type": "uint256"
        }
      ],
      "stateMutability": "view",
      "type": "function"
    },
    {
      "inputs": [],
      "name": "feelessToken",
      "outputs": [
        {
          "internalType": "address",
          "name": "",
          "type": "address"
        }
      ],
      "stateMutability": "view",
      "type": "function"
    },
    {
      "inputs": [
        {
          "internalType": "bytes32",
          "name": "_nullifierHash",
          "type": "bytes32"
        }
      ],
      "name": "isSpent",
      "outputs": [
        {
          "internalType": "bool",
          "name": "",
          "type": "bool"
        }
      ],
      "stateMutability": "view",
      "type": "function"
    },
    {
      "inputs": [
        {
          "internalType": "bytes32[]",
          "name": "_nullifierHashes",
          "type": "bytes32[]"
        }
      ],
      "name": "isSpentArray",
      "outputs": [
        {
          "internalType": "bool[]",
          "name": "spent",
          "type": "bool[]"
        }
      ],
      "stateMutability": "view",
      "type": "function"
    },
    {
      "inputs": [
        {
          "internalType": "bytes32",
          "name": "",
          "type": "bytes32"
        }
      ],
      "name": "nullifierHashes",
      "outputs": [
        {
          "internalType": "bool",
          "name": "",
          "type": "bool"
        }
      ],
      "stateMutability": "view",
      "type": "function"
    },
    {
      "inputs": [
        {
          "internalType": "address",
          "name": "newFeelesstoken",
          "type": "address"
        }
      ],
      "name": "setFeelessToken",
      "outputs": [],
      "stateMutability": "nonpayable",
      "type": "function"
    },
    {
      "inputs": [],
      "name": "verifier",
      "outputs": [
        {
          "internalType": "contract IVerifier",
          "name": "",
          "type": "address"
        }
      ],
      "stateMutability": "view",
      "type": "function"
    },
    {
      "inputs": [
        {
          "internalType": "uint256[8]",
          "name": "_proof",
          "type": "uint256[8]"
        },
        {
          "internalType": "bytes32",
          "name": "_nullifierHash",
          "type": "bytes32"
        },
        {
          "internalType": "bytes32",
          "name": "_commitment",
          "type": "bytes32"
        },
        {
          "internalType": "address",
          "name": "_recipient",
          "type": "address"
        }
      ],
      "name": "withdraw",
      "outputs": [],
      "stateMutability": "nonpayable",
      "type": "function"
    }
  ],
  "bytecode": "0x60a060405234801561001057600080fd5b50604051620016773803806200167783398101604081905261003191610079565b6001600081905560609290921b6001600160601b0319166080528154336001600160a01b031991821617909255600280549092166001600160a01b03919091161790556100ca565b6000806040838503121561008b578182fd5b8251610096816100b2565b60208401519092506100a7816100b2565b809150509250929050565b6001600160a01b03811681146100c757600080fd5b50565b60805160601c611587620000f060003960008181610188015261098901526115876000f3fe6080604052600436106100d25760003560e01c8063839df9451161007f5780639fa12d0b116100595780639fa12d0b146102e4578063b2bdfa7b14610311578063bf30438a14610331578063e5285dcc1461035157600080fd5b8063839df945146101dd578063917b546c146102a157806399a5d747146102c457600080fd5b80632b7ac3f3116100b05780632b7ac3f31461017657806365b04804146101aa5780637d53e891146101bd57600080fd5b80631631bb37146100d757806317cc915c146101145780631f1db12b14610154575b600080fd5b3480156100e357600080fd5b506002546100f7906001600160a01b031681565b6040516001600160a01b0390911681526020015b60405180910390f35b34801561012057600080fd5b5061014461012f366004611313565b60036020526000908152604090205460ff1681565b604051901515815260200161010b565b34801561016057600080fd5b5061017461016f36600461134c565b610381565b005b34801561018257600080fd5b506100f77f000000000000000000000000000000000000000000000000000000000000000081565b6101746101b836600461132b565b61055e565b3480156101c957600080fd5b506101746101d836600461121c565b610736565b3480156101e957600080fd5b506102516101f8366004611313565b600460208190526000918252604090912080546001820154600283015460038401549484015460059094015460ff808516966001600160a01b036101009687900481169795811696949591949282169392909104169088565b6040805198151589526001600160a01b0397881660208a01529587169588019590955260608701939093526080860191909152151560a085015290911660c083015260e08201526101000161010b565b3480156102ad57600080fd5b506102b6606481565b60405190815260200161010b565b3480156102d057600080fd5b506102b66102df366004611313565b6107bf565b3480156102f057600080fd5b506103046102ff366004611236565b6107d2565b60405161010b91906113bf565b34801561031d57600080fd5b506001546100f7906001600160a01b031681565b34801561033d57600080fd5b5061017461034c3660046112a6565b6108c2565b34801561035d57600080fd5b5061014461036c366004611313565b60009081526003602052604090205460ff1690565b610389610cf7565b60008381526004602052604090205460ff16156103ed5760405162461bcd60e51b815260206004820152600f60248201527f5573656420636f6d6d69746d656e74000000000000000000000000000000000060448201526064015b60405180910390fd5b6000821161043d5760405162461bcd60e51b815260206004820152601460248201527f496e76616c69642064656e6f6d696e6174696f6e00000000000000000000000060448201526064016103e4565b6000838152600460208190526040822080543361010090810274ffffffffffffffffffffffffffffffffffffffffff199283161760019081178455426002850155938301805460059094018890556001600160a01b038716909102929091169190911790911790556104ae836107bf565b90506104c56001600160a01b038316333086610d51565b6002546001600160a01b038381169116146104f6576001546104f6906001600160a01b038481169133911684610d51565b60408051338152426020820152908101849052606081018290526001600160a01b038316608082015284907f8bb6c89708195cde85714372b67ba10588b9be3af6d680b64f00be661683b2109060a00160405180910390a2506105596001600055565b505050565b610566610cf7565b60008281526004602052604090205460ff16156105c55760405162461bcd60e51b815260206004820152600f60248201527f5573656420636f6d6d69746d656e74000000000000000000000000000000000060448201526064016103e4565b600081116106155760405162461bcd60e51b815260206004820152601460248201527f496e76616c69642064656e6f6d696e6174696f6e00000000000000000000000060448201526064016103e4565b6000610620826107bf565b905061062c81836114bc565b341461067a5760405162461bcd60e51b815260206004820152600d60248201527f496e76616c69642056616c75650000000000000000000000000000000000000060448201526064016103e4565b60008381526004602081905260409091208054600174ffffffffffffffffffffffffffffffffffffffffff1990911661010033021781178255426002830155918101805460ff19169055600501839055546106de906001600160a01b031682610e02565b604080513381524260208201529081018390526060810182905283907f05c42e82c49d1d726f0c0ce6d578066d1d456811dd4201f3a3b0a3b589c850449060800160405180910390a2506107326001600055565b5050565b6001546001600160a01b031633146107905760405162461bcd60e51b815260206004820152600a60248201527f4f6e6c79206f776e65720000000000000000000000000000000000000000000060448201526064016103e4565b6002805473ffffffffffffffffffffffffffffffffffffffff19166001600160a01b0392909216919091179055565b60006107cc826064610f1b565b92915050565b60608167ffffffffffffffff8111156107fb57634e487b7160e01b600052604160045260246000fd5b604051908082528060200260200182016040528015610824578160200160208202803683370190505b50905060005b828110156108bb5761087184848381811061085557634e487b7160e01b600052603260045260246000fd5b9050602002013560009081526003602052604090205460ff1690565b156108a957600182828151811061089857634e487b7160e01b600052603260045260246000fd5b911515602092830291909101909101525b806108b381611520565b91505061082a565b5092915050565b6108ca610cf7565b60008381526003602052604090205460ff16156109295760405162461bcd60e51b815260206004820152601f60248201527f546865206e6f74652068617320616c7265616479206265656e207370656e740060448201526064016103e4565b60008281526004602052604090205460ff166109875760405162461bcd60e51b815260206004820152600c60248201527f556e75736564204e6f746521000000000000000000000000000000000000000060448201526064016103e4565b7f00000000000000000000000000000000000000000000000000000000000000006001600160a01b03166311479fea6040518060400160405280876000600881106109e257634e487b7160e01b600052603260045260246000fd5b6020020135815260200187600160088110610a0d57634e487b7160e01b600052603260045260246000fd5b602002013590526040805160808101825288820135918101918252908190606082018a60036020020135815250815260200160405180604001604052808a600460088110610a6b57634e487b7160e01b600052603260045260246000fd5b602002013581526020018a600560088110610a9657634e487b7160e01b600052603260045260246000fd5b60200201359052905260408051808201909152808960066020020135815260200189600760088110610ad857634e487b7160e01b600052603260045260246000fd5b602002013581525060405180606001604052808960001c81526020018860001c8152602001876001600160a01b03168152506040518563ffffffff1660e01b8152600401610b299493929190611405565b602060405180830381600087803b158015610b4357600080fd5b505af1158015610b57573d6000803e3d6000fd5b505050506040513d601f19601f82011682018060405250810190610b7b91906112f3565b610bc75760405162461bcd60e51b815260206004820152601660248201527f496e76616c69642057697468647261772070726f6f660000000000000000000060448201526064016103e4565b60008381526003602081815260408084208054600160ff1990911681179091558685526004928390529320928301805473ffffffffffffffffffffffffffffffffffffffff19166001600160a01b0386161790554291830191909155015460ff1615610c665760008281526004602081905260409091206005810154910154610c61916101009091046001600160a01b0316908390610f2e565b610c83565b600082815260046020526040902060050154610c83908290610e02565b6000828152600460209081526040918290205482516101009091046001600160a01b0390811682528416918101919091529081018390527f1b3dd12a3fb24765150649e2be7b94858b8fbf0852d05e927f9e888dc99e22bc9060600160405180910390a1610cf16001600055565b50505050565b60026000541415610d4a5760405162461bcd60e51b815260206004820152601f60248201527f5265656e7472616e637947756172643a207265656e7472616e742063616c6c0060448201526064016103e4565b6002600055565b6040516001600160a01b0380851660248301528316604482015260648101829052610cf19085907f23b872dd00000000000000000000000000000000000000000000000000000000906084015b60408051601f198184030181529190526020810180517bffffffffffffffffffffffffffffffffffffffffffffffffffffffff167fffffffff0000000000000000000000000000000000000000000000000000000090931692909217909152610f77565b80471015610e525760405162461bcd60e51b815260206004820152601d60248201527f416464726573733a20696e73756666696369656e742062616c616e636500000060448201526064016103e4565b6000826001600160a01b03168260405160006040518083038185875af1925050503d8060008114610e9f576040519150601f19603f3d011682016040523d82523d6000602084013e610ea4565b606091505b50509050806105595760405162461bcd60e51b815260206004820152603a60248201527f416464726573733a20756e61626c6520746f2073656e642076616c75652c207260448201527f6563697069656e74206d6179206861766520726576657274656400000000000060648201526084016103e4565b6000610f2782846114d4565b9392505050565b6040516001600160a01b0383166024820152604481018290526105599084907fa9059cbb0000000000000000000000000000000000000000000000000000000090606401610d9e565b6000610fcc826040518060400160405280602081526020017f5361666545524332303a206c6f772d6c6576656c2063616c6c206661696c6564815250856001600160a01b031661105c9092919063ffffffff16565b8051909150156105595780806020019051810190610fea91906112f3565b6105595760405162461bcd60e51b815260206004820152602a60248201527f5361666545524332303a204552433230206f7065726174696f6e20646964206e60448201527f6f7420737563636565640000000000000000000000000000000000000000000060648201526084016103e4565b606061106b8484600085611073565b949350505050565b6060824710156110eb5760405162461bcd60e51b815260206004820152602660248201527f416464726573733a20696e73756666696369656e742062616c616e636520666f60448201527f722063616c6c000000000000000000000000000000000000000000000000000060648201526084016103e4565b600080866001600160a01b0316858760405161110791906113a3565b60006040518083038185875af1925050503d8060008114611144576040519150601f19603f3d011682016040523d82523d6000602084013e611149565b606091505b509150915061115a87838387611165565b979650505050505050565b606083156111d15782516111ca576001600160a01b0385163b6111ca5760405162461bcd60e51b815260206004820152601d60248201527f416464726573733a2063616c6c20746f206e6f6e2d636f6e747261637400000060448201526064016103e4565b508161106b565b61106b83838151156111e65781518083602001fd5b8060405162461bcd60e51b81526004016103e49190611489565b80356001600160a01b038116811461121757600080fd5b919050565b60006020828403121561122d578081fd5b610f2782611200565b60008060208385031215611248578081fd5b823567ffffffffffffffff8082111561125f578283fd5b818501915085601f830112611272578283fd5b813581811115611280578384fd5b8660208260051b8501011115611294578384fd5b60209290920196919550909350505050565b60008060008061016085870312156112bc578182fd5b6101008501868111156112cd578283fd5b85945035925061012084013591506112e86101408501611200565b905092959194509250565b600060208284031215611304578081fd5b81518015158114610f27578182fd5b600060208284031215611324578081fd5b5035919050565b6000806040838503121561133d578182fd5b50508035926020909101359150565b600080600060608486031215611360578283fd5b833592506020840135915061137760408501611200565b90509250925092565b8060005b6002811015610cf1578151845260209384019390910190600101611384565b600082516113b58184602087016114f4565b9190910192915050565b6020808252825182820181905260009190848201906040850190845b818110156113f95783511515835292840192918401916001016113db565b50909695505050505050565b61016081016114148287611380565b60408083018660005b600281101561144457611431838351611380565b918301916020919091019060010161141d565b5050505061145560c0830185611380565b61010082018360005b600381101561147d57815183526020928301929091019060010161145e565b50505095945050505050565b60208152600082518060208401526114a88160408501602087016114f4565b601f01601f19169190910160400192915050565b600082198211156114cf576114cf61153b565b500190565b6000826114ef57634e487b7160e01b81526012600452602481fd5b500490565b60005b8381101561150f5781810151838201526020016114f7565b83811115610cf15750506000910152565b60006000198214156115345761153461153b565b5060010190565b634e487b7160e01b600052601160045260246000fdfea264697066735822122066f6c575669f4ebd6e82775ff517f2e2bad4ba8c0a30949f18fe90889b297a8464736f6c63430008040033",
  "linkReferences": {},
  "deployedLinkReferences": {}
}