{
  "_format": "hh-sol-artifact-1",
  "contractName": "BunnyWallet",
  "sourceName": "contracts/BunnyWallet.sol",
  "abi": [
    {
      "anonymous": false,
      "inputs": [
        {
          "indexed": false,
          "internalType": "address",
          "name": "token",
          "type": "address"
        },
        {
          "indexed": false,
          "internalType": "address",
          "name": "to",
          "type": "address"
        },
        {
          "indexed": false,
          "internalType": "uint256",
          "name": "tokenId",
          "type": "uint256"
        },
        {
          "indexed": false,
          "internalType": "bool",
          "name": "forAll",
          "type": "bool"
        },
        {
          "indexed": false,
          "internalType": "bool",
          "name": "approved",
          "type": "bool"
        }
      ],
      "name": "ApproveERC721ByOwner",
      "type": "event"
    },
    {
      "anonymous": false,
      "inputs": [
        {
          "indexed": false,
          "internalType": "address",
          "name": "token",
          "type": "address"
        },
        {
          "indexed": false,
          "internalType": "address",
          "name": "to",
          "type": "address"
        },
        {
          "indexed": false,
          "internalType": "uint256",
          "name": "tokenId",
          "type": "uint256"
        },
        {
          "indexed": false,
          "internalType": "bool",
          "name": "forAll",
          "type": "bool"
        },
        {
          "indexed": false,
          "internalType": "bool",
          "name": "approved",
          "type": "bool"
        }
      ],
      "name": "ApproveERC721Relayed",
      "type": "event"
    },
    {
      "anonymous": false,
      "inputs": [
        {
          "indexed": false,
          "internalType": "address",
          "name": "token",
          "type": "address"
        },
        {
          "indexed": false,
          "internalType": "address",
          "name": "spender",
          "type": "address"
        },
        {
          "indexed": false,
          "internalType": "uint256",
          "name": "amount",
          "type": "uint256"
        }
      ],
      "name": "ApproveSpendByOwner",
      "type": "event"
    },
    {
      "anonymous": false,
      "inputs": [
        {
          "indexed": false,
          "internalType": "address",
          "name": "token",
          "type": "address"
        },
        {
          "indexed": false,
          "internalType": "address",
          "name": "spender",
          "type": "address"
        },
        {
          "indexed": false,
          "internalType": "uint256",
          "name": "amount",
          "type": "uint256"
        }
      ],
      "name": "ApproveSpendRelayed",
      "type": "event"
    },
    {
      "anonymous": false,
      "inputs": [
        {
          "indexed": false,
          "internalType": "bytes32",
          "name": "oldCommitment",
          "type": "bytes32"
        },
        {
          "indexed": false,
          "internalType": "bytes32",
          "name": "newCommitment",
          "type": "bytes32"
        }
      ],
      "name": "CommitmentReset",
      "type": "event"
    },
    {
      "anonymous": false,
      "inputs": [
        {
          "indexed": false,
          "internalType": "address",
          "name": "_notesContract",
          "type": "address"
        },
        {
          "indexed": false,
          "internalType": "address",
          "name": "token",
          "type": "address"
        },
        {
          "indexed": false,
          "internalType": "bytes32",
          "name": "commitment",
          "type": "bytes32"
        },
        {
          "indexed": false,
          "internalType": "bool",
          "name": "cashNote",
          "type": "bool"
        },
        {
          "indexed": false,
          "internalType": "bool",
          "name": "isERC20",
          "type": "bool"
        }
      ],
      "name": "DepositBunnyNoteByOwner",
      "type": "event"
    },
    {
      "anonymous": false,
      "inputs": [
        {
          "indexed": false,
          "internalType": "address",
          "name": "_notesContract",
          "type": "address"
        },
        {
          "indexed": false,
          "internalType": "address",
          "name": "token",
          "type": "address"
        },
        {
          "indexed": false,
          "internalType": "bytes32",
          "name": "commitment",
          "type": "bytes32"
        },
        {
          "indexed": false,
          "internalType": "bool",
          "name": "cashNote",
          "type": "bool"
        },
        {
          "indexed": false,
          "internalType": "bool",
          "name": "isERC20",
          "type": "bool"
        }
      ],
      "name": "DepositBunnyNoteRelayed",
      "type": "event"
    },
    {
      "anonymous": false,
      "inputs": [
        {
          "indexed": false,
          "internalType": "address",
          "name": "operator",
          "type": "address"
        },
        {
          "indexed": false,
          "internalType": "address",
          "name": "from",
          "type": "address"
        },
        {
          "indexed": false,
          "internalType": "uint256",
          "name": "tokenId",
          "type": "uint256"
        },
        {
          "indexed": false,
          "internalType": "bytes",
          "name": "data",
          "type": "bytes"
        }
      ],
      "name": "ERC721Received",
      "type": "event"
    },
    {
      "anonymous": false,
      "inputs": [
        {
          "indexed": false,
          "internalType": "uint8",
          "name": "version",
          "type": "uint8"
        }
      ],
      "name": "Initialized",
      "type": "event"
    },
    {
      "anonymous": false,
      "inputs": [
        {
          "indexed": false,
          "internalType": "address",
          "name": "_ownerVerifier",
          "type": "address"
        },
        {
          "indexed": false,
          "internalType": "bytes32",
          "name": "_commitment",
          "type": "bytes32"
        },
        {
          "indexed": false,
          "internalType": "address",
          "name": "_owner",
          "type": "address"
        }
      ],
      "name": "InitializedContract",
      "type": "event"
    },
    {
      "anonymous": false,
      "inputs": [
        {
          "indexed": false,
          "internalType": "address",
          "name": "from",
          "type": "address"
        },
        {
          "indexed": false,
          "internalType": "uint256",
          "name": "amount",
          "type": "uint256"
        }
      ],
      "name": "Received",
      "type": "event"
    },
    {
      "anonymous": false,
      "inputs": [
        {
          "indexed": false,
          "internalType": "address",
          "name": "token",
          "type": "address"
        },
        {
          "indexed": false,
          "internalType": "address",
          "name": "from",
          "type": "address"
        },
        {
          "indexed": false,
          "internalType": "address",
          "name": "to",
          "type": "address"
        },
        {
          "indexed": false,
          "internalType": "uint256",
          "name": "tokenId",
          "type": "uint256"
        }
      ],
      "name": "TransferERC721ByOwner",
      "type": "event"
    },
    {
      "anonymous": false,
      "inputs": [
        {
          "indexed": false,
          "internalType": "address",
          "name": "token",
          "type": "address"
        },
        {
          "indexed": false,
          "internalType": "address",
          "name": "from",
          "type": "address"
        },
        {
          "indexed": false,
          "internalType": "address",
          "name": "to",
          "type": "address"
        },
        {
          "indexed": false,
          "internalType": "uint256",
          "name": "tokenId",
          "type": "uint256"
        }
      ],
      "name": "TransferERC721Relayed",
      "type": "event"
    },
    {
      "anonymous": false,
      "inputs": [
        {
          "indexed": false,
          "internalType": "address",
          "name": "to",
          "type": "address"
        },
        {
          "indexed": false,
          "internalType": "uint256",
          "name": "amount",
          "type": "uint256"
        }
      ],
      "name": "TransferEthByOwner",
      "type": "event"
    },
    {
      "anonymous": false,
      "inputs": [
        {
          "indexed": false,
          "internalType": "address",
          "name": "to",
          "type": "address"
        },
        {
          "indexed": false,
          "internalType": "uint256",
          "name": "amount",
          "type": "uint256"
        }
      ],
      "name": "TransferEthRelayed",
      "type": "event"
    },
    {
      "anonymous": false,
      "inputs": [
        {
          "indexed": false,
          "internalType": "address",
          "name": "token",
          "type": "address"
        },
        {
          "indexed": false,
          "internalType": "address",
          "name": "to",
          "type": "address"
        },
        {
          "indexed": false,
          "internalType": "uint256",
          "name": "amount",
          "type": "uint256"
        }
      ],
      "name": "TransferTokenByOwner",
      "type": "event"
    },
    {
      "anonymous": false,
      "inputs": [
        {
          "indexed": false,
          "internalType": "address",
          "name": "token",
          "type": "address"
        },
        {
          "indexed": false,
          "internalType": "address",
          "name": "to",
          "type": "address"
        },
        {
          "indexed": false,
          "internalType": "uint256",
          "name": "amount",
          "type": "uint256"
        }
      ],
      "name": "TransferTokenByRelayer",
      "type": "event"
    },
    {
      "inputs": [
        {
          "internalType": "contract IERC20",
          "name": "_token",
          "type": "address"
        },
        {
          "internalType": "address",
          "name": "_spender",
          "type": "address"
        },
        {
          "internalType": "uint256",
          "name": "_amount",
          "type": "uint256"
        }
      ],
      "name": "approveERC20SpendByOwner",
      "outputs": [],
      "stateMutability": "nonpayable",
      "type": "function"
    },
    {
      "inputs": [
        {
          "components": [
            {
              "internalType": "uint256[8]",
              "name": "proof",
              "type": "uint256[8]"
            },
            {
              "internalType": "bytes32",
              "name": "commitment",
              "type": "bytes32"
            },
            {
              "internalType": "address",
              "name": "smartContract",
              "type": "address"
            },
            {
              "internalType": "address",
              "name": "relayer",
              "type": "address"
            },
            {
              "internalType": "bytes32",
              "name": "paramsHash",
              "type": "bytes32"
            },
            {
              "internalType": "bytes32",
              "name": "nullifierHash",
              "type": "bytes32"
            }
          ],
          "internalType": "struct ZkOwner",
          "name": "_zkOwner",
          "type": "tuple"
        },
        {
          "internalType": "address",
          "name": "_token",
          "type": "address"
        },
        {
          "internalType": "address",
          "name": "_spender",
          "type": "address"
        },
        {
          "internalType": "uint256",
          "name": "_amount",
          "type": "uint256"
        }
      ],
      "name": "approveERC20SpendRelayed",
      "outputs": [],
      "stateMutability": "nonpayable",
      "type": "function"
    },
    {
      "inputs": [
        {
          "internalType": "address",
          "name": "_token",
          "type": "address"
        },
        {
          "internalType": "address",
          "name": "_to",
          "type": "address"
        },
        {
          "internalType": "uint256",
          "name": "_tokenId",
          "type": "uint256"
        },
        {
          "internalType": "bool",
          "name": "_forAll",
          "type": "bool"
        },
        {
          "internalType": "bool",
          "name": "_approved",
          "type": "bool"
        }
      ],
      "name": "approveERC721ByOwner",
      "outputs": [],
      "stateMutability": "nonpayable",
      "type": "function"
    },
    {
      "inputs": [
        {
          "components": [
            {
              "internalType": "uint256[8]",
              "name": "proof",
              "type": "uint256[8]"
            },
            {
              "internalType": "bytes32",
              "name": "commitment",
              "type": "bytes32"
            },
            {
              "internalType": "address",
              "name": "smartContract",
              "type": "address"
            },
            {
              "internalType": "address",
              "name": "relayer",
              "type": "address"
            },
            {
              "internalType": "bytes32",
              "name": "paramsHash",
              "type": "bytes32"
            },
            {
              "internalType": "bytes32",
              "name": "nullifierHash",
              "type": "bytes32"
            }
          ],
          "internalType": "struct ZkOwner",
          "name": "_zkOwner",
          "type": "tuple"
        },
        {
          "internalType": "address",
          "name": "_token",
          "type": "address"
        },
        {
          "internalType": "address",
          "name": "_to",
          "type": "address"
        },
        {
          "internalType": "uint256",
          "name": "_tokenId",
          "type": "uint256"
        },
        {
          "internalType": "bool",
          "name": "_forAll",
          "type": "bool"
        },
        {
          "internalType": "bool",
          "name": "_approved",
          "type": "bool"
        }
      ],
      "name": "approveERC721ParamsHash",
      "outputs": [
        {
          "internalType": "bytes32",
          "name": "h",
          "type": "bytes32"
        }
      ],
      "stateMutability": "pure",
      "type": "function"
    },
    {
      "inputs": [
        {
          "components": [
            {
              "internalType": "uint256[8]",
              "name": "proof",
              "type": "uint256[8]"
            },
            {
              "internalType": "bytes32",
              "name": "commitment",
              "type": "bytes32"
            },
            {
              "internalType": "address",
              "name": "smartContract",
              "type": "address"
            },
            {
              "internalType": "address",
              "name": "relayer",
              "type": "address"
            },
            {
              "internalType": "bytes32",
              "name": "paramsHash",
              "type": "bytes32"
            },
            {
              "internalType": "bytes32",
              "name": "nullifierHash",
              "type": "bytes32"
            }
          ],
          "internalType": "struct ZkOwner",
          "name": "_zkOwner",
          "type": "tuple"
        },
        {
          "internalType": "address",
          "name": "_token",
          "type": "address"
        },
        {
          "internalType": "address",
          "name": "_to",
          "type": "address"
        },
        {
          "internalType": "uint256",
          "name": "_tokenId",
          "type": "uint256"
        },
        {
          "internalType": "bool",
          "name": "_forAll",
          "type": "bool"
        },
        {
          "internalType": "bool",
          "name": "_approved",
          "type": "bool"
        }
      ],
      "name": "approveERC721Relayed",
      "outputs": [],
      "stateMutability": "nonpayable",
      "type": "function"
    },
    {
      "inputs": [],
      "name": "commitment",
      "outputs": [
        {
          "internalType": "bytes32",
          "name": "",
          "type": "bytes32"
        }
      ],
      "stateMutability": "view",
      "type": "function"
    },
    {
      "inputs": [
        {
          "internalType": "address",
          "name": "_notesContract",
          "type": "address"
        },
        {
          "internalType": "address",
          "name": "_token",
          "type": "address"
        },
        {
          "internalType": "bytes32",
          "name": "_newCommitment",
          "type": "bytes32"
        },
        {
          "internalType": "bool",
          "name": "_cashNote",
          "type": "bool"
        },
        {
          "internalType": "bool",
          "name": "_isERC20Note",
          "type": "bool"
        }
      ],
      "name": "depositToBunnyNoteByOwner",
      "outputs": [],
      "stateMutability": "payable",
      "type": "function"
    },
    {
      "inputs": [
        {
          "components": [
            {
              "internalType": "uint256[8]",
              "name": "proof",
              "type": "uint256[8]"
            },
            {
              "internalType": "bytes32",
              "name": "commitment",
              "type": "bytes32"
            },
            {
              "internalType": "address",
              "name": "smartContract",
              "type": "address"
            },
            {
              "internalType": "address",
              "name": "relayer",
              "type": "address"
            },
            {
              "internalType": "bytes32",
              "name": "paramsHash",
              "type": "bytes32"
            },
            {
              "internalType": "bytes32",
              "name": "nullifierHash",
              "type": "bytes32"
            }
          ],
          "internalType": "struct ZkOwner",
          "name": "_zkOwner",
          "type": "tuple"
        },
        {
          "internalType": "address",
          "name": "_notesContract",
          "type": "address"
        },
        {
          "internalType": "address",
          "name": "_token",
          "type": "address"
        },
        {
          "internalType": "bytes32",
          "name": "_newCommitment",
          "type": "bytes32"
        },
        {
          "internalType": "bool",
          "name": "_cashNote",
          "type": "bool"
        },
        {
          "internalType": "bool",
          "name": "_isERC20Note",
          "type": "bool"
        }
      ],
      "name": "depositToBunnyNoteParamsHash",
      "outputs": [
        {
          "internalType": "bytes32",
          "name": "h",
          "type": "bytes32"
        }
      ],
      "stateMutability": "pure",
      "type": "function"
    },
    {
      "inputs": [
        {
          "components": [
            {
              "internalType": "uint256[8]",
              "name": "proof",
              "type": "uint256[8]"
            },
            {
              "internalType": "bytes32",
              "name": "commitment",
              "type": "bytes32"
            },
            {
              "internalType": "address",
              "name": "smartContract",
              "type": "address"
            },
            {
              "internalType": "address",
              "name": "relayer",
              "type": "address"
            },
            {
              "internalType": "bytes32",
              "name": "paramsHash",
              "type": "bytes32"
            },
            {
              "internalType": "bytes32",
              "name": "nullifierHash",
              "type": "bytes32"
            }
          ],
          "internalType": "struct ZkOwner",
          "name": "_zkOwner",
          "type": "tuple"
        },
        {
          "internalType": "address",
          "name": "_notesContract",
          "type": "address"
        },
        {
          "internalType": "address",
          "name": "_token",
          "type": "address"
        },
        {
          "internalType": "bytes32",
          "name": "_newCommitment",
          "type": "bytes32"
        },
        {
          "internalType": "bool",
          "name": "_cashNote",
          "type": "bool"
        },
        {
          "internalType": "bool",
          "name": "_isERC20Note",
          "type": "bool"
        }
      ],
      "name": "depositToBunnyNoteRelayed",
      "outputs": [],
      "stateMutability": "nonpayable",
      "type": "function"
    },
    {
      "inputs": [
        {
          "internalType": "contract IERC20",
          "name": "token",
          "type": "address"
        }
      ],
      "name": "getTokenBalance",
      "outputs": [
        {
          "internalType": "uint256",
          "name": "balance",
          "type": "uint256"
        }
      ],
      "stateMutability": "view",
      "type": "function"
    },
    {
      "inputs": [
        {
          "internalType": "contract IOwnerVerifier",
          "name": "_ownerVerifier",
          "type": "address"
        },
        {
          "internalType": "bytes32",
          "name": "_commitment",
          "type": "bytes32"
        },
        {
          "internalType": "address",
          "name": "_owner",
          "type": "address"
        }
      ],
      "name": "initialize",
      "outputs": [],
      "stateMutability": "nonpayable",
      "type": "function"
    },
    {
      "inputs": [
        {
          "internalType": "bytes32",
          "name": "",
          "type": "bytes32"
        }
      ],
      "name": "nullifierHashes",
      "outputs": [
        {
          "internalType": "bool",
          "name": "",
          "type": "bool"
        }
      ],
      "stateMutability": "view",
      "type": "function"
    },
    {
      "inputs": [
        {
          "internalType": "address",
          "name": "operator",
          "type": "address"
        },
        {
          "internalType": "address",
          "name": "from",
          "type": "address"
        },
        {
          "internalType": "uint256",
          "name": "tokenId",
          "type": "uint256"
        },
        {
          "internalType": "bytes",
          "name": "data",
          "type": "bytes"
        }
      ],
      "name": "onERC721Received",
      "outputs": [
        {
          "internalType": "bytes4",
          "name": "",
          "type": "bytes4"
        }
      ],
      "stateMutability": "nonpayable",
      "type": "function"
    },
    {
      "inputs": [],
      "name": "owner",
      "outputs": [
        {
          "internalType": "address",
          "name": "",
          "type": "address"
        }
      ],
      "stateMutability": "view",
      "type": "function"
    },
    {
      "inputs": [
        {
          "components": [
            {
              "internalType": "uint256[8]",
              "name": "proof",
              "type": "uint256[8]"
            },
            {
              "internalType": "bytes32",
              "name": "commitment",
              "type": "bytes32"
            },
            {
              "internalType": "address",
              "name": "smartContract",
              "type": "address"
            },
            {
              "internalType": "address",
              "name": "relayer",
              "type": "address"
            },
            {
              "internalType": "bytes32",
              "name": "paramsHash",
              "type": "bytes32"
            },
            {
              "internalType": "bytes32",
              "name": "nullifierHash",
              "type": "bytes32"
            }
          ],
          "internalType": "struct ZkOwner",
          "name": "_zkOwner",
          "type": "tuple"
        }
      ],
      "name": "ownerValid",
      "outputs": [
        {
          "internalType": "bool",
          "name": "",
          "type": "bool"
        }
      ],
      "stateMutability": "nonpayable",
      "type": "function"
    },
    {
      "inputs": [],
      "name": "ownerVerifier",
      "outputs": [
        {
          "internalType": "contract IOwnerVerifier",
          "name": "",
          "type": "address"
        }
      ],
      "stateMutability": "view",
      "type": "function"
    },
    {
      "inputs": [
        {
          "internalType": "uint256",
          "name": "",
          "type": "uint256"
        }
      ],
      "name": "receivedERC721Data",
      "outputs": [
        {
          "internalType": "address",
          "name": "tokenContract",
          "type": "address"
        },
        {
          "internalType": "uint256",
          "name": "tokenId",
          "type": "uint256"
        }
      ],
      "stateMutability": "view",
      "type": "function"
    },
    {
      "inputs": [],
      "name": "receivedERC721DataIndex",
      "outputs": [
        {
          "internalType": "uint256",
          "name": "",
          "type": "uint256"
        }
      ],
      "stateMutability": "view",
      "type": "function"
    },
    {
      "inputs": [
        {
          "internalType": "bytes32",
          "name": "newCommitment",
          "type": "bytes32"
        }
      ],
      "name": "resetCommitment",
      "outputs": [],
      "stateMutability": "nonpayable",
      "type": "function"
    },
    {
      "inputs": [],
      "name": "totalWeiReceived",
      "outputs": [
        {
          "internalType": "uint256",
          "name": "",
          "type": "uint256"
        }
      ],
      "stateMutability": "view",
      "type": "function"
    },
    {
      "inputs": [
        {
          "internalType": "contract IERC721",
          "name": "_token",
          "type": "address"
        },
        {
          "internalType": "address",
          "name": "_from",
          "type": "address"
        },
        {
          "internalType": "address",
          "name": "_to",
          "type": "address"
        },
        {
          "internalType": "uint256",
          "name": "_tokenId",
          "type": "uint256"
        }
      ],
      "name": "transferERC721ByOwner",
      "outputs": [],
      "stateMutability": "nonpayable",
      "type": "function"
    },
    {
      "inputs": [
        {
          "components": [
            {
              "internalType": "uint256[8]",
              "name": "proof",
              "type": "uint256[8]"
            },
            {
              "internalType": "bytes32",
              "name": "commitment",
              "type": "bytes32"
            },
            {
              "internalType": "address",
              "name": "smartContract",
              "type": "address"
            },
            {
              "internalType": "address",
              "name": "relayer",
              "type": "address"
            },
            {
              "internalType": "bytes32",
              "name": "paramsHash",
              "type": "bytes32"
            },
            {
              "internalType": "bytes32",
              "name": "nullifierHash",
              "type": "bytes32"
            }
          ],
          "internalType": "struct ZkOwner",
          "name": "_zkOwner",
          "type": "tuple"
        },
        {
          "internalType": "address",
          "name": "_token",
          "type": "address"
        },
        {
          "internalType": "address",
          "name": "_transferFrom",
          "type": "address"
        },
        {
          "internalType": "address",
          "name": "_transferTo",
          "type": "address"
        },
        {
          "internalType": "uint256",
          "name": "_tokenId",
          "type": "uint256"
        }
      ],
      "name": "transferERC721ParamsHash",
      "outputs": [
        {
          "internalType": "bytes32",
          "name": "h",
          "type": "bytes32"
        }
      ],
      "stateMutability": "pure",
      "type": "function"
    },
    {
      "inputs": [
        {
          "components": [
            {
              "internalType": "uint256[8]",
              "name": "proof",
              "type": "uint256[8]"
            },
            {
              "internalType": "bytes32",
              "name": "commitment",
              "type": "bytes32"
            },
            {
              "internalType": "address",
              "name": "smartContract",
              "type": "address"
            },
            {
              "internalType": "address",
              "name": "relayer",
              "type": "address"
            },
            {
              "internalType": "bytes32",
              "name": "paramsHash",
              "type": "bytes32"
            },
            {
              "internalType": "bytes32",
              "name": "nullifierHash",
              "type": "bytes32"
            }
          ],
          "internalType": "struct ZkOwner",
          "name": "_zkOwner",
          "type": "tuple"
        },
        {
          "internalType": "address",
          "name": "_token",
          "type": "address"
        },
        {
          "internalType": "address",
          "name": "_transferFrom",
          "type": "address"
        },
        {
          "internalType": "address",
          "name": "_transferTo",
          "type": "address"
        },
        {
          "internalType": "uint256",
          "name": "_tokenId",
          "type": "uint256"
        }
      ],
      "name": "transferERC721Relayed",
      "outputs": [],
      "stateMutability": "nonpayable",
      "type": "function"
    },
    {
      "inputs": [
        {
          "internalType": "address",
          "name": "_to",
          "type": "address"
        },
        {
          "internalType": "uint256",
          "name": "_amount",
          "type": "uint256"
        }
      ],
      "name": "transferETHByOwner",
      "outputs": [],
      "stateMutability": "nonpayable",
      "type": "function"
    },
    {
      "inputs": [
        {
          "components": [
            {
              "internalType": "uint256[8]",
              "name": "proof",
              "type": "uint256[8]"
            },
            {
              "internalType": "bytes32",
              "name": "commitment",
              "type": "bytes32"
            },
            {
              "internalType": "address",
              "name": "smartContract",
              "type": "address"
            },
            {
              "internalType": "address",
              "name": "relayer",
              "type": "address"
            },
            {
              "internalType": "bytes32",
              "name": "paramsHash",
              "type": "bytes32"
            },
            {
              "internalType": "bytes32",
              "name": "nullifierHash",
              "type": "bytes32"
            }
          ],
          "internalType": "struct ZkOwner",
          "name": "_zkOwner",
          "type": "tuple"
        },
        {
          "internalType": "address",
          "name": "_token",
          "type": "address"
        },
        {
          "internalType": "address",
          "name": "_transferTo",
          "type": "address"
        },
        {
          "internalType": "uint256",
          "name": "_transferAmount",
          "type": "uint256"
        }
      ],
      "name": "transferETHRelayed",
      "outputs": [],
      "stateMutability": "nonpayable",
      "type": "function"
    },
    {
      "inputs": [
        {
          "components": [
            {
              "internalType": "uint256[8]",
              "name": "proof",
              "type": "uint256[8]"
            },
            {
              "internalType": "bytes32",
              "name": "commitment",
              "type": "bytes32"
            },
            {
              "internalType": "address",
              "name": "smartContract",
              "type": "address"
            },
            {
              "internalType": "address",
              "name": "relayer",
              "type": "address"
            },
            {
              "internalType": "bytes32",
              "name": "paramsHash",
              "type": "bytes32"
            },
            {
              "internalType": "bytes32",
              "name": "nullifierHash",
              "type": "bytes32"
            }
          ],
          "internalType": "struct ZkOwner",
          "name": "_zkOwner",
          "type": "tuple"
        },
        {
          "internalType": "address",
          "name": "_token",
          "type": "address"
        },
        {
          "internalType": "address",
          "name": "_transferTo",
          "type": "address"
        },
        {
          "internalType": "uint256",
          "name": "_transferAmount",
          "type": "uint256"
        }
      ],
      "name": "transferParamsHash",
      "outputs": [
        {
          "internalType": "bytes32",
          "name": "h",
          "type": "bytes32"
        }
      ],
      "stateMutability": "pure",
      "type": "function"
    },
    {
      "inputs": [
        {
          "internalType": "contract IERC20",
          "name": "_token",
          "type": "address"
        },
        {
          "internalType": "address",
          "name": "_to",
          "type": "address"
        },
        {
          "internalType": "uint256",
          "name": "_amount",
          "type": "uint256"
        }
      ],
      "name": "transferTokenByOwner",
      "outputs": [],
      "stateMutability": "nonpayable",
      "type": "function"
    },
    {
      "inputs": [
        {
          "components": [
            {
              "internalType": "uint256[8]",
              "name": "proof",
              "type": "uint256[8]"
            },
            {
              "internalType": "bytes32",
              "name": "commitment",
              "type": "bytes32"
            },
            {
              "internalType": "address",
              "name": "smartContract",
              "type": "address"
            },
            {
              "internalType": "address",
              "name": "relayer",
              "type": "address"
            },
            {
              "internalType": "bytes32",
              "name": "paramsHash",
              "type": "bytes32"
            },
            {
              "internalType": "bytes32",
              "name": "nullifierHash",
              "type": "bytes32"
            }
          ],
          "internalType": "struct ZkOwner",
          "name": "_zkOwner",
          "type": "tuple"
        },
        {
          "internalType": "address",
          "name": "_token",
          "type": "address"
        },
        {
          "internalType": "address",
          "name": "_transferTo",
          "type": "address"
        },
        {
          "internalType": "uint256",
          "name": "_transferAmount",
          "type": "uint256"
        }
      ],
      "name": "transferTokenRelayed",
      "outputs": [],
      "stateMutability": "nonpayable",
      "type": "function"
    },
    {
      "stateMutability": "payable",
      "type": "receive"
    }
  ],
  "bytecode": "0x608060405234801561001057600080fd5b506139fc806100206000396000f3fe6080604052600436106101bb5760003560e01c806362229bad116100ec578063946cc2e21161008a578063d26b3e6e11610064578063d26b3e6e146106b4578063da2fedc5146106d4578063e7f80c27146106f4578063fb570bc81461071457600080fd5b8063946cc2e2146105eb57806397493e971461060b578063ccacf80c1461062b57600080fd5b80638d107e4f116100c65780638d107e4f146104d05780638da5cb5b1461052f5780638fa36b421461054f57806393bef2de146105d557600080fd5b806362229bad146104a757806368d981f71461041257806388d12a4d146104ba57600080fd5b80633aecd0e3116101595780635d00d13f116101335780635d00d13f1461039a5780635e45180d146103ba578063602a8220146103f2578063607b1b381461041257600080fd5b80633aecd0e31461033a5780633df577c21461035a57806359cf62021461037a57600080fd5b80631db289fa116101955780631db289fa146102b857806320ba338c146102da578063273379c5146102fa57806336339e291461031a57600080fd5b80631303a48414610216578063150b7a021461023f57806317cc915c1461027857600080fd5b366102115734603660008282546101d29190613963565b9091555050604080513381523460208201527f88a5966d370b9919b20f3e2c13ff65706f196a4e32cc2c12bf57088f88525874910160405180910390a1005b600080fd5b34801561022257600080fd5b5061022c60345481565b6040519081526020015b60405180910390f35b34801561024b57600080fd5b5061025f61025a36600461351a565b610734565b6040516001600160e01b03199091168152602001610236565b34801561028457600080fd5b506102a86102933660046135fb565b60376020526000908152604090205460ff1681565b6040519015158152602001610236565b3480156102c457600080fd5b506102d86102d3366004613783565b610815565b005b3480156102e657600080fd5b506102a86102f5366004613700565b610c67565b34801561030657600080fd5b506102d861031536600461366f565b610f82565b34801561032657600080fd5b506102d8610335366004613800565b611091565b34801561034657600080fd5b5061022c610355366004613490565b6114a8565b34801561036657600080fd5b506102d861037536600461362f565b611528565b34801561038657600080fd5b506102d8610395366004613800565b611642565b3480156103a657600080fd5b506102d86103b536600461362f565b611ac6565b3480156103c657600080fd5b506033546103da906001600160a01b031681565b6040516001600160a01b039091168152602001610236565b3480156103fe57600080fd5b506102d861040d3660046135b4565b611bf1565b34801561041e57600080fd5b5061022c61042d366004613783565b6040805161010088013560208083019190915261018090980135818301526bffffffffffffffffffffffff19606097881b8116888301529590961b90941660748601526088850192909252151560f890811b60a8850152901515901b60a98301528051808303608a01815260aa9092019052805191012090565b6102d86104b53660046134b3565b611c99565b3480156104c657600080fd5b5061022c60365481565b3480156104dc57600080fd5b506105106104eb3660046135fb565b603860205260009081526040902080546001909101546001600160a01b039091169082565b604080516001600160a01b039093168352602083019190915201610236565b34801561053b57600080fd5b506035546103da906001600160a01b031681565b34801561055b57600080fd5b5061022c61056a366004613800565b604080516101008601356020820152610180860135918101919091526bffffffffffffffffffffffff19606085811b82168184015284901b1660748201526088810182905260009060a801604051602081830303815290604052805190602001209050949350505050565b3480156105e157600080fd5b5061022c60395481565b3480156105f757600080fd5b506102d8610606366004613800565b611d62565b34801561061757600080fd5b506102d8610626366004613783565b6121f5565b34801561063757600080fd5b5061022c61064636600461371c565b6040805161010087013560208083019190915261018090970135818301526bffffffffffffffffffffffff19606096871b81168783015294861b851660748201529290941b9092166088820152609c808201929092528251808203909201825260bc01909152805191012090565b3480156106c057600080fd5b506102d86106cf3660046136bf565b61263a565b3480156106e057600080fd5b506102d86106ef36600461371c565b6127cb565b34801561070057600080fd5b506102d861070f3660046134b3565b612c58565b34801561072057600080fd5b506102d861072f3660046135fb565b612d0d565b60007fa05d90f300156ad1b545bc5d8197024456f21d22a708f5af04dd293e3d605251868686868660405161076d95949392919061388e565b60405180910390a16040805180820190915233815260208101859052603980546001919060009061079f908490613963565b909155505060395460009081526038602090815260409091208251815473ffffffffffffffffffffffffffffffffffffffff19166001600160a01b03909116178155910151600190910155507f150b7a023d4804d13e8c85fb27262cb750cf6ba9f9dd3bb30d90f482ceeb4b1f95945050505050565b61081d612d95565b610180860135600090815260376020526040902054869060019060ff161561087a5760405162461bcd60e51b815260206004820152600b60248201526a50726f6f6620757365642160a81b60448201526064015b60405180910390fd5b3061088d61014084016101208501613490565b6001600160a01b0316146108d65760405162461bcd60e51b815260206004820152601060248201526f125b9d985b1a590818dbdb9d1c9858dd60821b6044820152606401610871565b603454826101000135146109215760405162461bcd60e51b8152602060048201526012602482015271125b9d985b1a590818dbdb5b5a5d1b595b9d60721b6044820152606401610871565b801561098b5761093961016083016101408401613490565b6001600160a01b0316336001600160a01b03161461098b5760405162461bcd60e51b815260206004820152600f60248201526e24b73b30b634b2102932b630bcb2b960891b6044820152606401610871565b6033546040805180820182528435815260208086013581830152825160808082018552878501358286019081526060808a01359084015282528451808601865281890135815260a089013581850152828401528451808601865260c0890135815260e089013581850152855191820190955261010088013581526001600160a01b0390951694635fe8c13b9491928101610a2d6101408a016101208b01613490565b6001600160a01b03168152602001610a4d6101608a016101408b01613490565b6001600160a01b031681526101808901356020909101526040516001600160e01b031960e087901b168152610a8894939291906004016138df565b602060405180830381600087803b158015610aa257600080fd5b505af1158015610ab6573d6000803e3d6000fd5b505050506040513d601f19601f82011682018060405250810190610ada91906135df565b610b165760405162461bcd60e51b815260206004820152600d60248201526c24b73b30b634b210383937b7b360991b6044820152606401610871565b610180828101356000908152603760209081526040918290208054600160ff1990911617905581516101008c013581830152928b0135838301526bffffffffffffffffffffffff1960608b811b8216818601528a901b1660748401526088830188905286151560f890811b60a8850152861515901b60a98401528151808403608a01815260aa909301909152815191012088610160013514610beb5760405162461bcd60e51b815260206004820152600e60248201526d496e76616c696420506172616d7360901b6044820152606401610871565b610bf88787878787612def565b604080516001600160a01b03808a16825288166020820152908101869052841515606082015283151560808201527fcaad7b45b8c44063164988e87ebf5b79b81a48a4220b5003781e7d14d21300509060a0015b60405180910390a15050610c5f60018055565b505050505050565b6101808101356000908152603760205260408120548290829060ff1615610cbe5760405162461bcd60e51b815260206004820152600b60248201526a50726f6f6620757365642160a81b6044820152606401610871565b30610cd161014084016101208501613490565b6001600160a01b031614610d1a5760405162461bcd60e51b815260206004820152601060248201526f125b9d985b1a590818dbdb9d1c9858dd60821b6044820152606401610871565b60345482610100013514610d655760405162461bcd60e51b8152602060048201526012602482015271125b9d985b1a590818dbdb5b5a5d1b595b9d60721b6044820152606401610871565b8015610dcf57610d7d61016083016101408401613490565b6001600160a01b0316336001600160a01b031614610dcf5760405162461bcd60e51b815260206004820152600f60248201526e24b73b30b634b2102932b630bcb2b960891b6044820152606401610871565b6033546040805180820182528435815260208086013581830152825160808082018552878501358286019081526060808a01359084015282528451808601865281890135815260a089013581850152828401528451808601865260c0890135815260e089013581850152855191820190955261010088013581526001600160a01b0390951694635fe8c13b9491928101610e716101408a016101208b01613490565b6001600160a01b03168152602001610e916101608a016101408b01613490565b6001600160a01b031681526101808901356020909101526040516001600160e01b031960e087901b168152610ecc94939291906004016138df565b602060405180830381600087803b158015610ee657600080fd5b505af1158015610efa573d6000803e3d6000fd5b505050506040513d601f19601f82011682018060405250810190610f1e91906135df565b610f5a5760405162461bcd60e51b815260206004820152600d60248201526c24b73b30b634b210383937b7b360991b6044820152606401610871565b5061018001356000908152603760205260409020805460ff1916600190811790915592915050565b6035546001600160a01b03163314610fc95760405162461bcd60e51b815260206004820152600a60248201526927b7363c9037bbb732b960b11b6044820152606401610871565b604051632142170760e11b81526001600160a01b0384811660048301528381166024830152604482018390528516906342842e0e90606401600060405180830381600087803b15801561101b57600080fd5b505af115801561102f573d6000803e3d6000fd5b5050604080516001600160a01b0380891682528088166020830152861691810191909152606081018490527f34ede4137d0248951b29af2540338e0bbbbfe6e8456092618912dbe0b4d21a0a925060800190505b60405180910390a150505050565b611099612d95565b610180840135600090815260376020526040902054849060019060ff16156110f15760405162461bcd60e51b815260206004820152600b60248201526a50726f6f6620757365642160a81b6044820152606401610871565b3061110461014084016101208501613490565b6001600160a01b03161461114d5760405162461bcd60e51b815260206004820152601060248201526f125b9d985b1a590818dbdb9d1c9858dd60821b6044820152606401610871565b603454826101000135146111985760405162461bcd60e51b8152602060048201526012602482015271125b9d985b1a590818dbdb5b5a5d1b595b9d60721b6044820152606401610871565b8015611202576111b061016083016101408401613490565b6001600160a01b0316336001600160a01b0316146112025760405162461bcd60e51b815260206004820152600f60248201526e24b73b30b634b2102932b630bcb2b960891b6044820152606401610871565b6033546040805180820182528435815260208086013581830152825160808082018552878501358286019081526060808a01359084015282528451808601865281890135815260a089013581850152828401528451808601865260c0890135815260e089013581850152855191820190955261010088013581526001600160a01b0390951694635fe8c13b94919281016112a46101408a016101208b01613490565b6001600160a01b031681526020016112c46101608a016101408b01613490565b6001600160a01b031681526101808901356020909101526040516001600160e01b031960e087901b1681526112ff94939291906004016138df565b602060405180830381600087803b15801561131957600080fd5b505af115801561132d573d6000803e3d6000fd5b505050506040513d601f19601f8201168201806040525081019061135191906135df565b61138d5760405162461bcd60e51b815260206004820152600d60248201526c24b73b30b634b210383937b7b360991b6044820152606401610871565b61018082810135600090815260376020908152604091829020805460ff1916600117905581516101008a01358183015292890135838301526bffffffffffffffffffffffff19606089811b82168186015288901b16607484015260888084018790528251808503909101815260a890930190915281519101208661016001351461144a5760405162461bcd60e51b815260206004820152600e60248201526d496e76616c696420506172616d7360901b6044820152606401610871565b6114548484612f1a565b604080516001600160a01b0386168152602081018590527f26b737d0918cc2baec0f7e6d5c3d098109f9744a842ec04feae3fabf2a2c0ae691015b60405180910390a150506114a260018055565b50505050565b6040516370a0823160e01b81523060048201526000906001600160a01b038316906370a082319060240160206040518083038186803b1580156114ea57600080fd5b505afa1580156114fe573d6000803e3d6000fd5b505050506040513d601f19601f820116820180604052508101906115229190613853565b92915050565b6035546001600160a01b0316331461156f5760405162461bcd60e51b815260206004820152600a60248201526927b7363c9037bbb732b960b11b6044820152606401610871565b60405163095ea7b360e01b81526001600160a01b0383811660048301526024820183905284169063095ea7b390604401602060405180830381600087803b1580156115b957600080fd5b505af11580156115cd573d6000803e3d6000fd5b505050506040513d601f19601f820116820180604052508101906115f191906135df565b50604080516001600160a01b038086168252841660208201529081018290527f73db16d8f0f731731f50dc3d706c05a59fa80ae448e95ac061472bec6fa0a0c99060600160405180910390a1505050565b61164a612d95565b610180840135600090815260376020526040902054849060019060ff16156116a25760405162461bcd60e51b815260206004820152600b60248201526a50726f6f6620757365642160a81b6044820152606401610871565b306116b561014084016101208501613490565b6001600160a01b0316146116fe5760405162461bcd60e51b815260206004820152601060248201526f125b9d985b1a590818dbdb9d1c9858dd60821b6044820152606401610871565b603454826101000135146117495760405162461bcd60e51b8152602060048201526012602482015271125b9d985b1a590818dbdb5b5a5d1b595b9d60721b6044820152606401610871565b80156117b35761176161016083016101408401613490565b6001600160a01b0316336001600160a01b0316146117b35760405162461bcd60e51b815260206004820152600f60248201526e24b73b30b634b2102932b630bcb2b960891b6044820152606401610871565b6033546040805180820182528435815260208086013581830152825160808082018552878501358286019081526060808a01359084015282528451808601865281890135815260a089013581850152828401528451808601865260c0890135815260e089013581850152855191820190955261010088013581526001600160a01b0390951694635fe8c13b94919281016118556101408a016101208b01613490565b6001600160a01b031681526020016118756101608a016101408b01613490565b6001600160a01b031681526101808901356020909101526040516001600160e01b031960e087901b1681526118b094939291906004016138df565b602060405180830381600087803b1580156118ca57600080fd5b505af11580156118de573d6000803e3d6000fd5b505050506040513d601f19601f8201168201806040525081019061190291906135df565b61193e5760405162461bcd60e51b815260206004820152600d60248201526c24b73b30b634b210383937b7b360991b6044820152606401610871565b61018082810135600090815260376020908152604091829020805460ff1916600117905581516101008a01358183015292890135838301526bffffffffffffffffffffffff19606089811b82168186015288901b16607484015260888084018790528251808503909101815260a89093019091528151910120866101600135146119fb5760405162461bcd60e51b815260206004820152600e60248201526d496e76616c696420506172616d7360901b6044820152606401610871565b60405163a9059cbb60e01b81526001600160a01b0385811660048301526024820185905286169063a9059cbb90604401602060405180830381600087803b158015611a4557600080fd5b505af1158015611a59573d6000803e3d6000fd5b505050506040513d601f19601f82011682018060405250810190611a7d91906135df565b50604080516001600160a01b038088168252861660208201529081018490527f2bdfcea1b675b8d8c76815ae6d45e52fc8e06b61cc001064bc1dbd102f0ff7a19060600161148f565b611ace612d95565b6035546001600160a01b03163314611b155760405162461bcd60e51b815260206004820152600a60248201526927b7363c9037bbb732b960b11b6044820152606401610871565b60405163a9059cbb60e01b81526001600160a01b0383811660048301526024820183905284169063a9059cbb90604401602060405180830381600087803b158015611b5f57600080fd5b505af1158015611b73573d6000803e3d6000fd5b505050506040513d601f19601f82011682018060405250810190611b9791906135df565b50604080516001600160a01b038086168252841660208201529081018290527fe26c779e7a510044c96312bf19b748215af9b67f20f847906e667d683b2d86949060600160405180910390a1611bec60018055565b505050565b611bf9612d95565b6035546001600160a01b03163314611c405760405162461bcd60e51b815260206004820152600a60248201526927b7363c9037bbb732b960b11b6044820152606401610871565b611c4a8282612f1a565b604080516001600160a01b0384168152602081018390527f0e1b2ac4a44b22edf4a6e9497a4c8f949212e9e7959619e036419cd894db3d12910160405180910390a1611c9560018055565b5050565b611ca1612d95565b6035546001600160a01b03163314611ce95760405162461bcd60e51b815260206004820152600b60248201526a4f6e6c79206f776e65722160a81b6044820152606401610871565b611cf68585858585613033565b604080516001600160a01b03808816825286166020820152908101849052821515606082015281151560808201527fbee8a77a17a3ee301c8c4c33402846db7769feaba641cf8cf20a7dfb13038f479060a0015b60405180910390a1611d5b60018055565b5050505050565b611d6a612d95565b610180840135600090815260376020526040902054849060019060ff1615611dc25760405162461bcd60e51b815260206004820152600b60248201526a50726f6f6620757365642160a81b6044820152606401610871565b30611dd561014084016101208501613490565b6001600160a01b031614611e1e5760405162461bcd60e51b815260206004820152601060248201526f125b9d985b1a590818dbdb9d1c9858dd60821b6044820152606401610871565b60345482610100013514611e695760405162461bcd60e51b8152602060048201526012602482015271125b9d985b1a590818dbdb5b5a5d1b595b9d60721b6044820152606401610871565b8015611ed357611e8161016083016101408401613490565b6001600160a01b0316336001600160a01b031614611ed35760405162461bcd60e51b815260206004820152600f60248201526e24b73b30b634b2102932b630bcb2b960891b6044820152606401610871565b6033546040805180820182528435815260208086013581830152825160808082018552878501358286019081526060808a01359084015282528451808601865281890135815260a089013581850152828401528451808601865260c0890135815260e089013581850152855191820190955261010088013581526001600160a01b0390951694635fe8c13b9491928101611f756101408a016101208b01613490565b6001600160a01b03168152602001611f956101608a016101408b01613490565b6001600160a01b031681526101808901356020909101526040516001600160e01b031960e087901b168152611fd094939291906004016138df565b602060405180830381600087803b158015611fea57600080fd5b505af1158015611ffe573d6000803e3d6000fd5b505050506040513d601f19601f8201168201806040525081019061202291906135df565b61205e5760405162461bcd60e51b815260206004820152600d60248201526c24b73b30b634b210383937b7b360991b6044820152606401610871565b61018082810135600090815260376020908152604091829020805460ff1916600117905581516101008a01358183015292890135838301526bffffffffffffffffffffffff19606089811b82168186015288901b16607484015260888084018790528251808503909101815260a890930190915281519101208661016001351461212a5760405162461bcd60e51b815260206004820152600e60248201527f496e76616c696420706172616d730000000000000000000000000000000000006044820152606401610871565b60405163095ea7b360e01b81526001600160a01b0385811660048301526024820185905286169063095ea7b390604401602060405180830381600087803b15801561217457600080fd5b505af1158015612188573d6000803e3d6000fd5b505050506040513d601f19601f820116820180604052508101906121ac91906135df565b50604080516001600160a01b038088168252861660208201529081018490527f62c2b568540e154d886d58f95642998ff0188937d5b2425020ceb88be35b88379060600161148f565b6121fd612d95565b610180860135600090815260376020526040902054869060019060ff16156122555760405162461bcd60e51b815260206004820152600b60248201526a50726f6f6620757365642160a81b6044820152606401610871565b3061226861014084016101208501613490565b6001600160a01b0316146122b15760405162461bcd60e51b815260206004820152601060248201526f125b9d985b1a590818dbdb9d1c9858dd60821b6044820152606401610871565b603454826101000135146122fc5760405162461bcd60e51b8152602060048201526012602482015271125b9d985b1a590818dbdb5b5a5d1b595b9d60721b6044820152606401610871565b80156123665761231461016083016101408401613490565b6001600160a01b0316336001600160a01b0316146123665760405162461bcd60e51b815260206004820152600f60248201526e24b73b30b634b2102932b630bcb2b960891b6044820152606401610871565b6033546040805180820182528435815260208086013581830152825160808082018552878501358286019081526060808a01359084015282528451808601865281890135815260a089013581850152828401528451808601865260c0890135815260e089013581850152855191820190955261010088013581526001600160a01b0390951694635fe8c13b94919281016124086101408a016101208b01613490565b6001600160a01b031681526020016124286101608a016101408b01613490565b6001600160a01b031681526101808901356020909101526040516001600160e01b031960e087901b16815261246394939291906004016138df565b602060405180830381600087803b15801561247d57600080fd5b505af1158015612491573d6000803e3d6000fd5b505050506040513d601f19601f820116820180604052508101906124b591906135df565b6124f15760405162461bcd60e51b815260206004820152600d60248201526c24b73b30b634b210383937b7b360991b6044820152606401610871565b610180828101356000908152603760209081526040918290208054600160ff1990911617905581516101008c013581830152928b0135838301526bffffffffffffffffffffffff1960608b811b8216818601528a901b1660748401526088830188905286151560f890811b60a8850152861515901b60a98401528151808403608a01815260aa9093019091528151910120886101600135146125d55760405162461bcd60e51b815260206004820152601160248201527f496e76616c696420506172616d486173680000000000000000000000000000006044820152606401610871565b6125e28787878787613033565b604080516001600160a01b03808a16825288166020820152908101869052841515606082015283151560808201527fff103ff9c5a9eddb8af005c1d9f1c3ad476b67e1c9ca815ff3829c13fde5ec669060a001610c4c565b600054610100900460ff161580801561265a5750600054600160ff909116105b806126745750303b158015612674575060005460ff166001145b6126e65760405162461bcd60e51b815260206004820152602e60248201527f496e697469616c697a61626c653a20636f6e747261637420697320616c72656160448201527f647920696e697469616c697a65640000000000000000000000000000000000006064820152608401610871565b6000805460ff191660011790558015612709576000805461ff0019166101001790555b603380546001600160a01b0386811673ffffffffffffffffffffffffffffffffffffffff19928316811790935560348690556035805491861691909216811790915560408051928352602083018690528201527f24f7cbb34eb9f7958e1bcad7f79879d3b9c07f1db857377b8f58f2d8d38630509060600160405180910390a180156114a2576000805461ff0019169055604051600181527f7f26b83ff96e1f2b6a682f133852f6798a09c465da95921460cefb384740249890602001611083565b6127d3612d95565b610180850135600090815260376020526040902054859060019060ff161561282b5760405162461bcd60e51b815260206004820152600b60248201526a50726f6f6620757365642160a81b6044820152606401610871565b3061283e61014084016101208501613490565b6001600160a01b0316146128875760405162461bcd60e51b815260206004820152601060248201526f125b9d985b1a590818dbdb9d1c9858dd60821b6044820152606401610871565b603454826101000135146128d25760405162461bcd60e51b8152602060048201526012602482015271125b9d985b1a590818dbdb5b5a5d1b595b9d60721b6044820152606401610871565b801561293c576128ea61016083016101408401613490565b6001600160a01b0316336001600160a01b03161461293c5760405162461bcd60e51b815260206004820152600f60248201526e24b73b30b634b2102932b630bcb2b960891b6044820152606401610871565b6033546040805180820182528435815260208086013581830152825160808082018552878501358286019081526060808a01359084015282528451808601865281890135815260a089013581850152828401528451808601865260c0890135815260e089013581850152855191820190955261010088013581526001600160a01b0390951694635fe8c13b94919281016129de6101408a016101208b01613490565b6001600160a01b031681526020016129fe6101608a016101408b01613490565b6001600160a01b031681526101808901356020909101526040516001600160e01b031960e087901b168152612a3994939291906004016138df565b602060405180830381600087803b158015612a5357600080fd5b505af1158015612a67573d6000803e3d6000fd5b505050506040513d601f19601f82011682018060405250810190612a8b91906135df565b612ac75760405162461bcd60e51b815260206004820152600d60248201526c24b73b30b634b210383937b7b360991b6044820152606401610871565b610180828101356000908152603760209081526040918290208054600160ff1990911617905581516101008b013581830152928a0135838301526bffffffffffffffffffffffff1960608a811b82168186015289811b8216607486015288901b166088840152609c8084018790528251808503909101815260bc909301909152815191012087610160013514612b905760405162461bcd60e51b815260206004820152600e60248201526d496e76616c696420506172616d7360901b6044820152606401610871565b604051632142170760e11b81526001600160a01b0386811660048301528581166024830152604482018590528716906342842e0e90606401600060405180830381600087803b158015612be257600080fd5b505af1158015612bf6573d6000803e3d6000fd5b5050604080516001600160a01b038a8116825289811660208301528816818301526060810187905290517fda4a2fc59bc643c654f6e99900e84c43712e6816ce63d23717ac91b1817ed5e79350908190036080019150a15050611d5b60018055565b612c60612d95565b6035546001600160a01b03163314612ca85760405162461bcd60e51b815260206004820152600b60248201526a4f6e6c79206f776e65722160a81b6044820152606401610871565b612cb58585858585612def565b604080516001600160a01b03808816825286166020820152908101849052821515606082015281151560808201527f8de82d25e68efc17a3ae9b7acf80ad96cf44ba557eb735f0b7e780cb96fe484b9060a001611d4a565b6035546001600160a01b03163314612d545760405162461bcd60e51b815260206004820152600a60248201526927b7363c9037bbb732b960b11b6044820152606401610871565b60345460408051918252602082018390527f9049bcb5aae26c0b255a01140b878c55d3d0079aa5ab7ef88e380c86999fb86e910160405180910390a1603455565b60026001541415612de85760405162461bcd60e51b815260206004820152601f60248201527f5265656e7472616e637947756172643a207265656e7472616e742063616c6c006044820152606401610871565b6002600155565b8115612e77576040517fa22cb4650000000000000000000000000000000000000000000000000000000081526001600160a01b038581166004830152821515602483015286169063a22cb465906044015b600060405180830381600087803b158015612e5a57600080fd5b505af1158015612e6e573d6000803e3d6000fd5b50505050611d5b565b8015612eb25760405163095ea7b360e01b81526001600160a01b0385811660048301526024820185905286169063095ea7b390604401612e40565b60405163095ea7b360e01b815260006004820152602481018490526001600160a01b0386169063095ea7b390604401600060405180830381600087803b158015612efb57600080fd5b505af1158015612f0f573d6000803e3d6000fd5b505050505050505050565b80471015612f6a5760405162461bcd60e51b815260206004820152601d60248201527f416464726573733a20696e73756666696369656e742062616c616e63650000006044820152606401610871565b6000826001600160a01b03168260405160006040518083038185875af1925050503d8060008114612fb7576040519150601f19603f3d011682016040523d82523d6000602084013e612fbc565b606091505b5050905080611bec5760405162461bcd60e51b815260206004820152603a60248201527f416464726573733a20756e61626c6520746f2073656e642076616c75652c207260448201527f6563697069656e74206d617920686176652072657665727465640000000000006064820152608401610871565b6000856001600160a01b0316638bca6d166040518163ffffffff1660e01b815260040160206040518083038186803b15801561306e57600080fd5b505afa158015613082573d6000803e3d6000fd5b505050506040513d601f19601f820116820180604052508101906130a69190613853565b90506000866001600160a01b031663ddca3f436040518163ffffffff1660e01b815260040160206040518083038186803b1580156130e357600080fd5b505afa1580156130f7573d6000803e3d6000fd5b505050506040513d601f19601f8201168201806040525081019061311b9190613853565b905060006131298284613963565b905083156133b657866001600160a01b0316886001600160a01b031663fc0c546a6040518163ffffffff1660e01b815260040160206040518083038186803b15801561317457600080fd5b505afa158015613188573d6000803e3d6000fd5b505050506040513d601f19601f820116820180604052508101906131ac9190613613565b6001600160a01b0316146132025760405162461bcd60e51b815260206004820152600d60248201527f496e76616c696420746f6b656e000000000000000000000000000000000000006044820152606401610871565b6040516370a0823160e01b81523060048201526001600160a01b038816906370a082319060240160206040518083038186803b15801561324157600080fd5b505afa158015613255573d6000803e3d6000fd5b505050506040513d601f19601f820116820180604052508101906132799190613853565b8111156132c85760405162461bcd60e51b815260206004820152601660248201527f496e76616c696420746f6b656e2062616c616e636521000000000000000000006044820152606401610871565b60405163095ea7b360e01b81526001600160a01b0389811660048301526024820183905288169063095ea7b390604401602060405180830381600087803b15801561331257600080fd5b505af1158015613326573d6000803e3d6000fd5b505050506040513d601f19601f8201168201806040525081019061334a91906135df565b50604051623d7e6160e21b81526004810187905285151560248201523060448201526001600160a01b0389169062f5f98490606401600060405180830381600087803b15801561339957600080fd5b505af11580156133ad573d6000803e3d6000fd5b5050505061346e565b8047116134055760405162461bcd60e51b815260206004820152601060248201527f496e76616c69642042616c616e636521000000000000000000000000000000006044820152606401610871565b604051623d7e6160e21b81526004810187905285151560248201523060448201526001600160a01b0389169062f5f9849083906064016000604051808303818588803b15801561345457600080fd5b505af1158015613468573d6000803e3d6000fd5b50505050505b5050505050505050565b60006101a0828403121561348a578081fd5b50919050565b6000602082840312156134a1578081fd5b81356134ac816139a0565b9392505050565b600080600080600060a086880312156134ca578081fd5b85356134d5816139a0565b945060208601356134e5816139a0565b93506040860135925060608601356134fc816139b8565b9150608086013561350c816139b8565b809150509295509295909350565b600080600080600060808688031215613531578081fd5b853561353c816139a0565b9450602086013561354c816139a0565b935060408601359250606086013567ffffffffffffffff8082111561356f578283fd5b818801915088601f830112613582578283fd5b813581811115613590578384fd5b8960208285010111156135a1578384fd5b9699959850939650602001949392505050565b600080604083850312156135c6578182fd5b82356135d1816139a0565b946020939093013593505050565b6000602082840312156135f0578081fd5b81516134ac816139b8565b60006020828403121561360c578081fd5b5035919050565b600060208284031215613624578081fd5b81516134ac816139a0565b600080600060608486031215613643578283fd5b833561364e816139a0565b9250602084013561365e816139a0565b929592945050506040919091013590565b60008060008060808587031215613684578081fd5b843561368f816139a0565b9350602085013561369f816139a0565b925060408501356136af816139a0565b9396929550929360600135925050565b6000806000606084860312156136d3578081fd5b83356136de816139a0565b92506020840135915060408401356136f5816139a0565b809150509250925092565b60006101a08284031215613712578081fd5b6134ac8383613478565b60008060008060006102208688031215613734578283fd5b61373e8787613478565b94506101a086013561374f816139a0565b93506101c0860135613760816139a0565b92506101e0860135613771816139a0565b94979396509194610200013592915050565b600080600080600080610240878903121561379c578384fd5b6137a68888613478565b95506101a08701356137b7816139a0565b94506101c08701356137c8816139a0565b93506101e087013592506102008701356137e1816139b8565b91506102208701356137f2816139b8565b809150509295509295509295565b6000806000806102008587031215613816578182fd5b6138208686613478565b93506101a0850135613831816139a0565b92506101c0850135613842816139a0565b939692955092936101e00135925050565b600060208284031215613864578081fd5b5051919050565b8060005b60028110156114a257815184526020938401939091019060010161386f565b60006001600160a01b03808816835280871660208401525084604083015260806060830152826080830152828460a084013781830160a090810191909152601f909201601f19160101949350505050565b61018081016138ee828761386b565b60408083018660005b600281101561391e5761390b83835161386b565b91830191602091909101906001016138f7565b5050505061392f60c083018561386b565b61010082018360005b6004811015613957578151835260209283019290910190600101613938565b50505095945050505050565b6000821982111561399b577f4e487b710000000000000000000000000000000000000000000000000000000081526011600452602481fd5b500190565b6001600160a01b03811681146139b557600080fd5b50565b80151581146139b557600080fdfea264697066735822122074d7f6d0681c1b9b9004043ea40aefb2c54cc421689b68a474ad2bdf7d3e783764736f6c63430008040033",
  "linkReferences": {},
  "deployedLinkReferences": {}
}