{
  "_format": "hh-sol-artifact-1",
  "contractName": "BunnyBundles",
  "sourceName": "contracts/BunnyBundles.sol",
  "abi": [
    {
      "inputs": [
        {
          "internalType": "contract IVerifier",
          "name": "_verifier",
          "type": "address"
        },
        {
          "internalType": "address",
          "name": "_feelessToken",
          "type": "address"
        }
      ],
      "stateMutability": "nonpayable",
      "type": "constructor"
    },
    {
      "anonymous": false,
      "inputs": [
        {
          "indexed": true,
          "internalType": "bytes32",
          "name": "root",
          "type": "bytes32"
        },
        {
          "indexed": false,
          "internalType": "address",
          "name": "depositFor",
          "type": "address"
        },
        {
          "indexed": false,
          "internalType": "uint256",
          "name": "timestamp",
          "type": "uint256"
        },
        {
          "indexed": false,
          "internalType": "uint256",
          "name": "totalValue",
          "type": "uint256"
        },
        {
          "indexed": false,
          "internalType": "uint256",
          "name": "size",
          "type": "uint256"
        },
        {
          "indexed": false,
          "internalType": "uint256",
          "name": "fee",
          "type": "uint256"
        }
      ],
      "name": "DepositETH",
      "type": "event"
    },
    {
      "anonymous": false,
      "inputs": [
        {
          "indexed": true,
          "internalType": "bytes32",
          "name": "root",
          "type": "bytes32"
        },
        {
          "indexed": false,
          "internalType": "address",
          "name": "depositFor",
          "type": "address"
        },
        {
          "indexed": false,
          "internalType": "uint256",
          "name": "timestamp",
          "type": "uint256"
        },
        {
          "indexed": false,
          "internalType": "uint256",
          "name": "totalValue",
          "type": "uint256"
        },
        {
          "indexed": false,
          "internalType": "uint256",
          "name": "size",
          "type": "uint256"
        },
        {
          "indexed": false,
          "internalType": "uint256",
          "name": "fee",
          "type": "uint256"
        },
        {
          "indexed": false,
          "internalType": "address",
          "name": "token",
          "type": "address"
        }
      ],
      "name": "DepositToken",
      "type": "event"
    },
    {
      "anonymous": false,
      "inputs": [
        {
          "indexed": false,
          "internalType": "address",
          "name": "from",
          "type": "address"
        },
        {
          "indexed": false,
          "internalType": "address",
          "name": "to",
          "type": "address"
        },
        {
          "indexed": false,
          "internalType": "bytes32",
          "name": "root",
          "type": "bytes32"
        },
        {
          "indexed": false,
          "internalType": "bytes32",
          "name": "commitment",
          "type": "bytes32"
        }
      ],
      "name": "WithdrawFromBundle",
      "type": "event"
    },
    {
      "inputs": [],
      "name": "FEE_DIVIDER",
      "outputs": [
        {
          "internalType": "uint256",
          "name": "",
          "type": "uint256"
        }
      ],
      "stateMutability": "view",
      "type": "function"
    },
    {
      "inputs": [],
      "name": "_owner",
      "outputs": [
        {
          "internalType": "address payable",
          "name": "",
          "type": "address"
        }
      ],
      "stateMutability": "view",
      "type": "function"
    },
    {
      "inputs": [
        {
          "internalType": "bytes32",
          "name": "",
          "type": "bytes32"
        }
      ],
      "name": "bundles",
      "outputs": [
        {
          "internalType": "address",
          "name": "creator",
          "type": "address"
        },
        {
          "internalType": "uint256",
          "name": "createdDate",
          "type": "uint256"
        },
        {
          "internalType": "uint256",
          "name": "size",
          "type": "uint256"
        },
        {
          "internalType": "uint256",
          "name": "totalValue",
          "type": "uint256"
        },
        {
          "internalType": "uint256",
          "name": "valueLeft",
          "type": "uint256"
        },
        {
          "internalType": "uint256",
          "name": "bunnyNotesLeft",
          "type": "uint256"
        },
        {
          "internalType": "bool",
          "name": "usesToken",
          "type": "bool"
        },
        {
          "internalType": "contract IERC20",
          "name": "token",
          "type": "address"
        }
      ],
      "stateMutability": "view",
      "type": "function"
    },
    {
      "inputs": [
        {
          "internalType": "uint256",
          "name": "amount",
          "type": "uint256"
        }
      ],
      "name": "calculateFee",
      "outputs": [
        {
          "internalType": "uint256",
          "name": "fee",
          "type": "uint256"
        }
      ],
      "stateMutability": "pure",
      "type": "function"
    },
    {
      "inputs": [
        {
          "internalType": "bytes32",
          "name": "root",
          "type": "bytes32"
        },
        {
          "internalType": "uint256",
          "name": "totalValue",
          "type": "uint256"
        },
        {
          "internalType": "uint256",
          "name": "size",
          "type": "uint256"
        }
      ],
      "name": "depositEth",
      "outputs": [],
      "stateMutability": "payable",
      "type": "function"
    },
    {
      "inputs": [
        {
          "internalType": "bytes32",
          "name": "root",
          "type": "bytes32"
        },
        {
          "internalType": "uint256",
          "name": "totalValue",
          "type": "uint256"
        },
        {
          "internalType": "uint256",
          "name": "size",
          "type": "uint256"
        },
        {
          "internalType": "address",
          "name": "token",
          "type": "address"
        }
      ],
      "name": "depositToken",
      "outputs": [],
      "stateMutability": "nonpayable",
      "type": "function"
    },
    {
      "inputs": [],
      "name": "feelessToken",
      "outputs": [
        {
          "internalType": "address",
          "name": "",
          "type": "address"
        }
      ],
      "stateMutability": "view",
      "type": "function"
    },
    {
      "inputs": [
        {
          "internalType": "uint256",
          "name": "totalValue",
          "type": "uint256"
        },
        {
          "internalType": "uint256",
          "name": "size",
          "type": "uint256"
        }
      ],
      "name": "getNoteValue",
      "outputs": [
        {
          "internalType": "uint256",
          "name": "value",
          "type": "uint256"
        }
      ],
      "stateMutability": "pure",
      "type": "function"
    },
    {
      "inputs": [
        {
          "internalType": "bytes32",
          "name": "_nullifierHash",
          "type": "bytes32"
        },
        {
          "internalType": "bytes32",
          "name": "_root",
          "type": "bytes32"
        }
      ],
      "name": "isSpent",
      "outputs": [
        {
          "internalType": "bool",
          "name": "",
          "type": "bool"
        }
      ],
      "stateMutability": "view",
      "type": "function"
    },
    {
      "inputs": [
        {
          "internalType": "bytes32",
          "name": "",
          "type": "bytes32"
        },
        {
          "internalType": "bytes32",
          "name": "",
          "type": "bytes32"
        }
      ],
      "name": "nullifierHashes",
      "outputs": [
        {
          "internalType": "bool",
          "name": "",
          "type": "bool"
        }
      ],
      "stateMutability": "view",
      "type": "function"
    },
    {
      "inputs": [
        {
          "internalType": "address",
          "name": "newFeelesstoken",
          "type": "address"
        }
      ],
      "name": "setFeelessToken",
      "outputs": [],
      "stateMutability": "nonpayable",
      "type": "function"
    },
    {
      "inputs": [],
      "name": "verifier",
      "outputs": [
        {
          "internalType": "contract IVerifier",
          "name": "",
          "type": "address"
        }
      ],
      "stateMutability": "view",
      "type": "function"
    },
    {
      "inputs": [
        {
          "internalType": "uint256[8]",
          "name": "_proof",
          "type": "uint256[8]"
        },
        {
          "internalType": "bytes32",
          "name": "_nullifierHash",
          "type": "bytes32"
        },
        {
          "internalType": "bytes32",
          "name": "_commitment",
          "type": "bytes32"
        },
        {
          "internalType": "bytes32",
          "name": "_root",
          "type": "bytes32"
        },
        {
          "internalType": "address",
          "name": "_recipient",
          "type": "address"
        }
      ],
      "name": "withdraw",
      "outputs": [],
      "stateMutability": "nonpayable",
      "type": "function"
    }
  ],
  "bytecode": "0x60a060405234801561001057600080fd5b506040516200171d3803806200171d83398101604081905261003191610079565b6001600081905560609290921b6001600160601b0319166080528154336001600160a01b031991821617909255600280549092166001600160a01b03919091161790556100ca565b6000806040838503121561008b578182fd5b8251610096816100b2565b60208401519092506100a7816100b2565b809150509250929050565b6001600160a01b03811681146100c757600080fd5b50565b60805160601c61162d620000f0600039600081816101260152610824015261162d6000f3fe6080604052600436106100d25760003560e01c80637e3b70881161007f57806399a5d7471161005957806399a5d7471461030b578063abc327c51461032b578063b2bdfa7b1461034b578063bed00e6c1461036b57600080fd5b80637e3b7088146101f85780637e69819c1461023257806393862c3b1461025257600080fd5b806363fb615d116100b057806363fb615d1461019357806378d6ade4146101b55780637d53e891146101d857600080fd5b80631631bb37146100d75780632b7ac3f3146101145780634be95b5214610148575b600080fd5b3480156100e357600080fd5b506002546100f7906001600160a01b031681565b6040516001600160a01b0390911681526020015b60405180910390f35b34801561012057600080fd5b506100f77f000000000000000000000000000000000000000000000000000000000000000081565b34801561015457600080fd5b506101836101633660046113e6565b600360209081526000928352604080842090915290825290205460ff1681565b604051901515815260200161010b565b34801561019f57600080fd5b506101b36101ae366004611432565b61037e565b005b3480156101c157600080fd5b506101ca606481565b60405190815260200161010b565b3480156101e457600080fd5b506101b36101f336600461133c565b6105e0565b34801561020457600080fd5b506101836102133660046113e6565b6000908152600360209081526040808320938352929052205460ff1690565b34801561023e57600080fd5b506101ca61024d3660046113e6565b610669565b34801561025e57600080fd5b506102bf61026d3660046113ce565b600460208190526000918252604090912080546001820154600283015460038401549484015460058501546006909501546001600160a01b03948516969395929491929160ff82169161010090041688565b604080516001600160a01b03998a16815260208101989098528701959095526060860193909352608085019190915260a0840152151560c083015290911660e08201526101000161010b565b34801561031757600080fd5b506101ca6103263660046113ce565b61067c565b34801561033757600080fd5b506101b3610346366004611356565b61068f565b34801561035757600080fd5b506001546100f7906001600160a01b031681565b6101b3610379366004611407565b610bce565b610386610e06565b6000848152600460205260409020546001600160a01b0316156103f05760405162461bcd60e51b815260206004820152600d60248201527f42756e646c65204578697374730000000000000000000000000000000000000060448201526064015b60405180910390fd5b600083116104405760405162461bcd60e51b815260206004820152601360248201527f496e76616c696420746f74616c2076616c75650000000000000000000000000060448201526064016103e7565b600082116104905760405162461bcd60e51b815260206004820152600c60248201527f496e76616c69642073697a65000000000000000000000000000000000000000060448201526064016103e7565b60008481526004602081905260408220805473ffffffffffffffffffffffffffffffffffffffff1916331781554260018083019190915560028201869055600582018690556003820187905591810186905560060180546001600160a01b038516610100027fffffffffffffffffffffff0000000000000000000000000000000000000000009091161790911790556105288461067c565b905061053f6001600160a01b038316333087610e60565b6002546001600160a01b0383811691161461057057600154610570906001600160a01b038481169133911684610e60565b6040805133815242602082015290810185905260608101849052608081018290526001600160a01b03831660a082015285907f22c4e06e896aa48d1f5041954e3c4815c774c7d7bb27fc8423c88f1eebef62f39060c00160405180910390a2506105da6001600055565b50505050565b6001546001600160a01b0316331461063a5760405162461bcd60e51b815260206004820152600a60248201527f4f6e6c79206f776e65720000000000000000000000000000000000000000000060448201526064016103e7565b6002805473ffffffffffffffffffffffffffffffffffffffff19166001600160a01b0392909216919091179055565b60006106758383610f11565b9392505050565b6000610689826064610f11565b92915050565b610697610e06565b600082815260036020908152604080832087845290915290205460ff16156107015760405162461bcd60e51b815260206004820152600c60248201527f496e76616c6964206e6f7465000000000000000000000000000000000000000060448201526064016103e7565b6000828152600460205260409020546001600160a01b03166107655760405162461bcd60e51b815260206004820152600c60248201527f556e7573656420726f6f7421000000000000000000000000000000000000000060448201526064016103e7565b600082815260046020819052604090912001546107c45760405162461bcd60e51b815260206004820152600d60248201527f4e6f2076616c7565206c6566740000000000000000000000000000000000000060448201526064016103e7565b6000828152600460205260409020600501546108225760405162461bcd60e51b815260206004820152600760248201527f4e6f206d6f72650000000000000000000000000000000000000000000000000060448201526064016103e7565b7f00000000000000000000000000000000000000000000000000000000000000006001600160a01b0316635fe8c13b60405180604001604052808860006008811061087d57634e487b7160e01b600052603260045260246000fd5b60200201358152602001886001600881106108a857634e487b7160e01b600052603260045260246000fd5b602002013590526040805160808101825289820135918101918252908190606082018b60036020020135815250815260200160405180604001604052808b60046008811061090657634e487b7160e01b600052603260045260246000fd5b602002013581526020018b60056008811061093157634e487b7160e01b600052603260045260246000fd5b60200201359052905260408051808201909152808a6006602002013581526020018a60076008811061097357634e487b7160e01b600052603260045260246000fd5b602002013581525060405180608001604052808a60001c81526020018960001c8152602001876001600160a01b031681526020018860001c8152506040518563ffffffff1660e01b81526004016109cd94939291906114af565b602060405180830381600087803b1580156109e757600080fd5b505af11580156109fb573d6000803e3d6000fd5b505050506040513d601f19601f82011682018060405250810190610a1f91906113ae565b610a6b5760405162461bcd60e51b815260206004820152601660248201527f496e76616c69642057697468647261772070726f6f660000000000000000000060448201526064016103e7565b60008281526003602090815260408083208784528252808320805460ff1916600190811790915585845260049092528220600501805491929091610ab090849061159e565b909155505060008281526004602052604081206003810154600290910154610ad89190610669565b60008481526004602081905260409091200154909150610af89082610f1d565b6000848152600460208190526040909120908101919091556006015460ff1615610b4c57600083815260046020526040902060060154610b479061010090046001600160a01b03168383610f29565b610b56565b610b568282610f72565b6000838152600460209081526040918290205482516001600160a01b03918216815290851691810191909152908101849052606081018590527f54219009fdb1fc111f0258a06a51124286167f8494f147eaeb6861a51382eca99060800160405180910390a150610bc76001600055565b5050505050565b610bd6610e06565b6000838152600460205260409020546001600160a01b031615610c3b5760405162461bcd60e51b815260206004820152600d60248201527f42756e646c65206578697374730000000000000000000000000000000000000060448201526064016103e7565b60008211610c8b5760405162461bcd60e51b815260206004820152601260248201527f496e76616c696420746f74616c56616c7565000000000000000000000000000060448201526064016103e7565b60008111610cdb5760405162461bcd60e51b815260206004820152600c60248201527f496e76616c69642053697a65000000000000000000000000000000000000000060448201526064016103e7565b6000610ce68361067c565b9050610cf2838261108b565b3414610d405760405162461bcd60e51b815260206004820152600d60248201527f496e76616c69642076616c75650000000000000000000000000000000000000060448201526064016103e7565b6000848152600460208190526040909120805473ffffffffffffffffffffffffffffffffffffffff19163317815542600180830191909155600282018590556005820185905560038201869055910184905554610da6906001600160a01b031682610f72565b60408051338152426020820152908101849052606081018390526080810182905284907faa2a3b50fc79a876066c944bfdc640f58c883f12119d683950ec5471bbc3e8a59060a00160405180910390a250610e016001600055565b505050565b60026000541415610e595760405162461bcd60e51b815260206004820152601f60248201527f5265656e7472616e637947756172643a207265656e7472616e742063616c6c0060448201526064016103e7565b6002600055565b6040516001600160a01b03808516602483015283166044820152606481018290526105da9085907f23b872dd00000000000000000000000000000000000000000000000000000000906084015b60408051601f198184030181529190526020810180517bffffffffffffffffffffffffffffffffffffffffffffffffffffffff167fffffffff0000000000000000000000000000000000000000000000000000000090931692909217909152611097565b6000610675828461157e565b6000610675828461159e565b6040516001600160a01b038316602482015260448101829052610e019084907fa9059cbb0000000000000000000000000000000000000000000000000000000090606401610ead565b80471015610fc25760405162461bcd60e51b815260206004820152601d60248201527f416464726573733a20696e73756666696369656e742062616c616e636500000060448201526064016103e7565b6000826001600160a01b03168260405160006040518083038185875af1925050503d806000811461100f576040519150601f19603f3d011682016040523d82523d6000602084013e611014565b606091505b5050905080610e015760405162461bcd60e51b815260206004820152603a60248201527f416464726573733a20756e61626c6520746f2073656e642076616c75652c207260448201527f6563697069656e74206d6179206861766520726576657274656400000000000060648201526084016103e7565b60006106758284611566565b60006110ec826040518060400160405280602081526020017f5361666545524332303a206c6f772d6c6576656c2063616c6c206661696c6564815250856001600160a01b031661117c9092919063ffffffff16565b805190915015610e01578080602001905181019061110a91906113ae565b610e015760405162461bcd60e51b815260206004820152602a60248201527f5361666545524332303a204552433230206f7065726174696f6e20646964206e60448201527f6f7420737563636565640000000000000000000000000000000000000000000060648201526084016103e7565b606061118b8484600085611193565b949350505050565b60608247101561120b5760405162461bcd60e51b815260206004820152602660248201527f416464726573733a20696e73756666696369656e742062616c616e636520666f60448201527f722063616c6c000000000000000000000000000000000000000000000000000060648201526084016103e7565b600080866001600160a01b031685876040516112279190611493565b60006040518083038185875af1925050503d8060008114611264576040519150601f19603f3d011682016040523d82523d6000602084013e611269565b606091505b509150915061127a87838387611285565b979650505050505050565b606083156112f15782516112ea576001600160a01b0385163b6112ea5760405162461bcd60e51b815260206004820152601d60248201527f416464726573733a2063616c6c20746f206e6f6e2d636f6e747261637400000060448201526064016103e7565b508161118b565b61118b83838151156113065781518083602001fd5b8060405162461bcd60e51b81526004016103e79190611533565b80356001600160a01b038116811461133757600080fd5b919050565b60006020828403121561134d578081fd5b61067582611320565b6000806000806000610180868803121561136e578081fd5b61010086018781111561137f578182fd5b869550359350610120850135925061014085013591506113a26101608601611320565b90509295509295909350565b6000602082840312156113bf578081fd5b81518015158114610675578182fd5b6000602082840312156113df578081fd5b5035919050565b600080604083850312156113f8578182fd5b50508035926020909101359150565b60008060006060848603121561141b578283fd5b505081359360208301359350604090920135919050565b60008060008060808587031215611447578384fd5b84359350602085013592506040850135915061146560608601611320565b905092959194509250565b8060005b60028110156105da578151845260209384019390910190600101611474565b600082516114a58184602087016115b5565b9190910192915050565b61018081016114be8287611470565b60408083018660005b60028110156114ee576114db838351611470565b91830191602091909101906001016114c7565b505050506114ff60c0830185611470565b61010082018360005b6004811015611527578151835260209283019290910190600101611508565b50505095945050505050565b60208152600082518060208401526115528160408501602087016115b5565b601f01601f19169190910160400192915050565b60008219821115611579576115796115e1565b500190565b60008261159957634e487b7160e01b81526012600452602481fd5b500490565b6000828210156115b0576115b06115e1565b500390565b60005b838110156115d05781810151838201526020016115b8565b838111156105da5750506000910152565b634e487b7160e01b600052601160045260246000fdfea26469706673582212207993757a9ac96629ca3e446dc7c550b15db325d1bbf5f3f7a3d613d6d537348f64736f6c63430008040033",
  "linkReferences": {},
  "deployedLinkReferences": {}
}