{
  "_format": "hh-sol-artifact-1",
  "contractName": "BunnyWallet",
  "sourceName": "contracts/BunnyWallet.sol",
  "abi": [
    {
      "anonymous": false,
      "inputs": [
        {
          "indexed": false,
          "internalType": "address",
          "name": "token",
          "type": "address"
        },
        {
          "indexed": false,
          "internalType": "address",
          "name": "to",
          "type": "address"
        },
        {
          "indexed": false,
          "internalType": "uint256",
          "name": "tokenId",
          "type": "uint256"
        },
        {
          "indexed": false,
          "internalType": "bool",
          "name": "forAll",
          "type": "bool"
        },
        {
          "indexed": false,
          "internalType": "bool",
          "name": "approved",
          "type": "bool"
        }
      ],
      "name": "ApproveERC721ByOwner",
      "type": "event"
    },
    {
      "anonymous": false,
      "inputs": [
        {
          "indexed": false,
          "internalType": "address",
          "name": "token",
          "type": "address"
        },
        {
          "indexed": false,
          "internalType": "address",
          "name": "to",
          "type": "address"
        },
        {
          "indexed": false,
          "internalType": "uint256",
          "name": "tokenId",
          "type": "uint256"
        },
        {
          "indexed": false,
          "internalType": "bool",
          "name": "forAll",
          "type": "bool"
        },
        {
          "indexed": false,
          "internalType": "bool",
          "name": "approved",
          "type": "bool"
        }
      ],
      "name": "ApproveERC721Relayed",
      "type": "event"
    },
    {
      "anonymous": false,
      "inputs": [
        {
          "indexed": false,
          "internalType": "address",
          "name": "token",
          "type": "address"
        },
        {
          "indexed": false,
          "internalType": "address",
          "name": "spender",
          "type": "address"
        },
        {
          "indexed": false,
          "internalType": "uint256",
          "name": "amount",
          "type": "uint256"
        }
      ],
      "name": "ApproveSpendByOwner",
      "type": "event"
    },
    {
      "anonymous": false,
      "inputs": [
        {
          "indexed": false,
          "internalType": "address",
          "name": "token",
          "type": "address"
        },
        {
          "indexed": false,
          "internalType": "address",
          "name": "spender",
          "type": "address"
        },
        {
          "indexed": false,
          "internalType": "uint256",
          "name": "amount",
          "type": "uint256"
        }
      ],
      "name": "ApproveSpendRelayed",
      "type": "event"
    },
    {
      "anonymous": false,
      "inputs": [
        {
          "indexed": false,
          "internalType": "bytes32",
          "name": "oldCommitment",
          "type": "bytes32"
        },
        {
          "indexed": false,
          "internalType": "bytes32",
          "name": "newCommitment",
          "type": "bytes32"
        }
      ],
      "name": "CommitmentReset",
      "type": "event"
    },
    {
      "anonymous": false,
      "inputs": [
        {
          "indexed": false,
          "internalType": "address",
          "name": "_notesContract",
          "type": "address"
        },
        {
          "indexed": false,
          "internalType": "address",
          "name": "token",
          "type": "address"
        },
        {
          "indexed": false,
          "internalType": "bytes32",
          "name": "commitment",
          "type": "bytes32"
        },
        {
          "indexed": false,
          "internalType": "bool",
          "name": "cashNote",
          "type": "bool"
        },
        {
          "indexed": false,
          "internalType": "bool",
          "name": "isERC20",
          "type": "bool"
        }
      ],
      "name": "DepositBunnyNoteByOwner",
      "type": "event"
    },
    {
      "anonymous": false,
      "inputs": [
        {
          "indexed": false,
          "internalType": "address",
          "name": "_notesContract",
          "type": "address"
        },
        {
          "indexed": false,
          "internalType": "address",
          "name": "token",
          "type": "address"
        },
        {
          "indexed": false,
          "internalType": "bytes32",
          "name": "commitment",
          "type": "bytes32"
        },
        {
          "indexed": false,
          "internalType": "bool",
          "name": "cashNote",
          "type": "bool"
        },
        {
          "indexed": false,
          "internalType": "bool",
          "name": "isERC20",
          "type": "bool"
        }
      ],
      "name": "DepositBunnyNoteRelayed",
      "type": "event"
    },
    {
      "anonymous": false,
      "inputs": [
        {
          "indexed": false,
          "internalType": "address",
          "name": "operator",
          "type": "address"
        },
        {
          "indexed": false,
          "internalType": "address",
          "name": "from",
          "type": "address"
        },
        {
          "indexed": false,
          "internalType": "uint256",
          "name": "tokenId",
          "type": "uint256"
        },
        {
          "indexed": false,
          "internalType": "bytes",
          "name": "data",
          "type": "bytes"
        }
      ],
      "name": "ERC721Received",
      "type": "event"
    },
    {
      "anonymous": false,
      "inputs": [
        {
          "indexed": false,
          "internalType": "uint8",
          "name": "version",
          "type": "uint8"
        }
      ],
      "name": "Initialized",
      "type": "event"
    },
    {
      "anonymous": false,
      "inputs": [
        {
          "indexed": false,
          "internalType": "address",
          "name": "_ownerVerifier",
          "type": "address"
        },
        {
          "indexed": false,
          "internalType": "bytes32",
          "name": "_commitment",
          "type": "bytes32"
        },
        {
          "indexed": false,
          "internalType": "address",
          "name": "_owner",
          "type": "address"
        }
      ],
      "name": "InitializedContract",
      "type": "event"
    },
    {
      "anonymous": false,
      "inputs": [
        {
          "indexed": false,
          "internalType": "address",
          "name": "from",
          "type": "address"
        },
        {
          "indexed": false,
          "internalType": "uint256",
          "name": "amount",
          "type": "uint256"
        }
      ],
      "name": "Received",
      "type": "event"
    },
    {
      "anonymous": false,
      "inputs": [
        {
          "indexed": false,
          "internalType": "address",
          "name": "token",
          "type": "address"
        },
        {
          "indexed": false,
          "internalType": "address",
          "name": "from",
          "type": "address"
        },
        {
          "indexed": false,
          "internalType": "address",
          "name": "to",
          "type": "address"
        },
        {
          "indexed": false,
          "internalType": "uint256",
          "name": "tokenId",
          "type": "uint256"
        }
      ],
      "name": "TransferERC721ByOwner",
      "type": "event"
    },
    {
      "anonymous": false,
      "inputs": [
        {
          "indexed": false,
          "internalType": "address",
          "name": "token",
          "type": "address"
        },
        {
          "indexed": false,
          "internalType": "address",
          "name": "from",
          "type": "address"
        },
        {
          "indexed": false,
          "internalType": "address",
          "name": "to",
          "type": "address"
        },
        {
          "indexed": false,
          "internalType": "uint256",
          "name": "tokenId",
          "type": "uint256"
        }
      ],
      "name": "TransferERC721Relayed",
      "type": "event"
    },
    {
      "anonymous": false,
      "inputs": [
        {
          "indexed": false,
          "internalType": "address",
          "name": "to",
          "type": "address"
        },
        {
          "indexed": false,
          "internalType": "uint256",
          "name": "amount",
          "type": "uint256"
        }
      ],
      "name": "TransferEthByOwner",
      "type": "event"
    },
    {
      "anonymous": false,
      "inputs": [
        {
          "indexed": false,
          "internalType": "address",
          "name": "to",
          "type": "address"
        },
        {
          "indexed": false,
          "internalType": "uint256",
          "name": "amount",
          "type": "uint256"
        }
      ],
      "name": "TransferEthRelayed",
      "type": "event"
    },
    {
      "anonymous": false,
      "inputs": [
        {
          "indexed": false,
          "internalType": "address",
          "name": "token",
          "type": "address"
        },
        {
          "indexed": false,
          "internalType": "address",
          "name": "to",
          "type": "address"
        },
        {
          "indexed": false,
          "internalType": "uint256",
          "name": "amount",
          "type": "uint256"
        }
      ],
      "name": "TransferTokenByOwner",
      "type": "event"
    },
    {
      "anonymous": false,
      "inputs": [
        {
          "indexed": false,
          "internalType": "address",
          "name": "token",
          "type": "address"
        },
        {
          "indexed": false,
          "internalType": "address",
          "name": "to",
          "type": "address"
        },
        {
          "indexed": false,
          "internalType": "uint256",
          "name": "amount",
          "type": "uint256"
        }
      ],
      "name": "TransferTokenByRelayer",
      "type": "event"
    },
    {
      "inputs": [
        {
          "internalType": "contract IERC20",
          "name": "_token",
          "type": "address"
        },
        {
          "internalType": "address",
          "name": "_spender",
          "type": "address"
        },
        {
          "internalType": "uint256",
          "name": "_amount",
          "type": "uint256"
        }
      ],
      "name": "approveERC20SpendByOwner",
      "outputs": [],
      "stateMutability": "nonpayable",
      "type": "function"
    },
    {
      "inputs": [
        {
          "components": [
            {
              "internalType": "uint256[8]",
              "name": "proof",
              "type": "uint256[8]"
            },
            {
              "internalType": "bytes32",
              "name": "commitment",
              "type": "bytes32"
            },
            {
              "internalType": "address",
              "name": "smartContract",
              "type": "address"
            },
            {
              "internalType": "address",
              "name": "relayer",
              "type": "address"
            },
            {
              "internalType": "bytes32",
              "name": "paramsHash",
              "type": "bytes32"
            },
            {
              "internalType": "bytes32",
              "name": "nullifierHash",
              "type": "bytes32"
            }
          ],
          "internalType": "struct ZkOwner",
          "name": "_zkOwner",
          "type": "tuple"
        },
        {
          "internalType": "address",
          "name": "_token",
          "type": "address"
        },
        {
          "internalType": "address",
          "name": "_spender",
          "type": "address"
        },
        {
          "internalType": "uint256",
          "name": "_amount",
          "type": "uint256"
        }
      ],
      "name": "approveERC20SpendRelayed",
      "outputs": [],
      "stateMutability": "nonpayable",
      "type": "function"
    },
    {
      "inputs": [
        {
          "internalType": "address",
          "name": "_token",
          "type": "address"
        },
        {
          "internalType": "address",
          "name": "_to",
          "type": "address"
        },
        {
          "internalType": "uint256",
          "name": "_tokenId",
          "type": "uint256"
        },
        {
          "internalType": "bool",
          "name": "_forAll",
          "type": "bool"
        },
        {
          "internalType": "bool",
          "name": "_approved",
          "type": "bool"
        }
      ],
      "name": "approveERC721ByOwner",
      "outputs": [],
      "stateMutability": "nonpayable",
      "type": "function"
    },
    {
      "inputs": [
        {
          "components": [
            {
              "internalType": "uint256[8]",
              "name": "proof",
              "type": "uint256[8]"
            },
            {
              "internalType": "bytes32",
              "name": "commitment",
              "type": "bytes32"
            },
            {
              "internalType": "address",
              "name": "smartContract",
              "type": "address"
            },
            {
              "internalType": "address",
              "name": "relayer",
              "type": "address"
            },
            {
              "internalType": "bytes32",
              "name": "paramsHash",
              "type": "bytes32"
            },
            {
              "internalType": "bytes32",
              "name": "nullifierHash",
              "type": "bytes32"
            }
          ],
          "internalType": "struct ZkOwner",
          "name": "_zkOwner",
          "type": "tuple"
        },
        {
          "internalType": "address",
          "name": "_token",
          "type": "address"
        },
        {
          "internalType": "address",
          "name": "_to",
          "type": "address"
        },
        {
          "internalType": "uint256",
          "name": "_tokenId",
          "type": "uint256"
        },
        {
          "internalType": "bool",
          "name": "_forAll",
          "type": "bool"
        },
        {
          "internalType": "bool",
          "name": "_approved",
          "type": "bool"
        }
      ],
      "name": "approveERC721ParamsHash",
      "outputs": [
        {
          "internalType": "bytes32",
          "name": "h",
          "type": "bytes32"
        }
      ],
      "stateMutability": "pure",
      "type": "function"
    },
    {
      "inputs": [
        {
          "components": [
            {
              "internalType": "uint256[8]",
              "name": "proof",
              "type": "uint256[8]"
            },
            {
              "internalType": "bytes32",
              "name": "commitment",
              "type": "bytes32"
            },
            {
              "internalType": "address",
              "name": "smartContract",
              "type": "address"
            },
            {
              "internalType": "address",
              "name": "relayer",
              "type": "address"
            },
            {
              "internalType": "bytes32",
              "name": "paramsHash",
              "type": "bytes32"
            },
            {
              "internalType": "bytes32",
              "name": "nullifierHash",
              "type": "bytes32"
            }
          ],
          "internalType": "struct ZkOwner",
          "name": "_zkOwner",
          "type": "tuple"
        },
        {
          "internalType": "address",
          "name": "_token",
          "type": "address"
        },
        {
          "internalType": "address",
          "name": "_to",
          "type": "address"
        },
        {
          "internalType": "uint256",
          "name": "_tokenId",
          "type": "uint256"
        },
        {
          "internalType": "bool",
          "name": "_forAll",
          "type": "bool"
        },
        {
          "internalType": "bool",
          "name": "_approved",
          "type": "bool"
        }
      ],
      "name": "approveERC721Relayed",
      "outputs": [],
      "stateMutability": "nonpayable",
      "type": "function"
    },
    {
      "inputs": [],
      "name": "commitment",
      "outputs": [
        {
          "internalType": "bytes32",
          "name": "",
          "type": "bytes32"
        }
      ],
      "stateMutability": "view",
      "type": "function"
    },
    {
      "inputs": [
        {
          "internalType": "address",
          "name": "_notesContract",
          "type": "address"
        },
        {
          "internalType": "address",
          "name": "_token",
          "type": "address"
        },
        {
          "internalType": "bytes32",
          "name": "_newCommitment",
          "type": "bytes32"
        },
        {
          "internalType": "bool",
          "name": "_cashNote",
          "type": "bool"
        },
        {
          "internalType": "bool",
          "name": "_isERC20Note",
          "type": "bool"
        }
      ],
      "name": "depositToBunnyNoteByOwner",
      "outputs": [],
      "stateMutability": "payable",
      "type": "function"
    },
    {
      "inputs": [
        {
          "components": [
            {
              "internalType": "uint256[8]",
              "name": "proof",
              "type": "uint256[8]"
            },
            {
              "internalType": "bytes32",
              "name": "commitment",
              "type": "bytes32"
            },
            {
              "internalType": "address",
              "name": "smartContract",
              "type": "address"
            },
            {
              "internalType": "address",
              "name": "relayer",
              "type": "address"
            },
            {
              "internalType": "bytes32",
              "name": "paramsHash",
              "type": "bytes32"
            },
            {
              "internalType": "bytes32",
              "name": "nullifierHash",
              "type": "bytes32"
            }
          ],
          "internalType": "struct ZkOwner",
          "name": "_zkOwner",
          "type": "tuple"
        },
        {
          "internalType": "address",
          "name": "_notesContract",
          "type": "address"
        },
        {
          "internalType": "address",
          "name": "_token",
          "type": "address"
        },
        {
          "internalType": "bytes32",
          "name": "_newCommitment",
          "type": "bytes32"
        },
        {
          "internalType": "bool",
          "name": "_cashNote",
          "type": "bool"
        },
        {
          "internalType": "bool",
          "name": "_isERC20Note",
          "type": "bool"
        }
      ],
      "name": "depositToBunnyNoteParamsHash",
      "outputs": [
        {
          "internalType": "bytes32",
          "name": "h",
          "type": "bytes32"
        }
      ],
      "stateMutability": "pure",
      "type": "function"
    },
    {
      "inputs": [
        {
          "components": [
            {
              "internalType": "uint256[8]",
              "name": "proof",
              "type": "uint256[8]"
            },
            {
              "internalType": "bytes32",
              "name": "commitment",
              "type": "bytes32"
            },
            {
              "internalType": "address",
              "name": "smartContract",
              "type": "address"
            },
            {
              "internalType": "address",
              "name": "relayer",
              "type": "address"
            },
            {
              "internalType": "bytes32",
              "name": "paramsHash",
              "type": "bytes32"
            },
            {
              "internalType": "bytes32",
              "name": "nullifierHash",
              "type": "bytes32"
            }
          ],
          "internalType": "struct ZkOwner",
          "name": "_zkOwner",
          "type": "tuple"
        },
        {
          "internalType": "address",
          "name": "_notesContract",
          "type": "address"
        },
        {
          "internalType": "address",
          "name": "_token",
          "type": "address"
        },
        {
          "internalType": "bytes32",
          "name": "_newCommitment",
          "type": "bytes32"
        },
        {
          "internalType": "bool",
          "name": "_cashNote",
          "type": "bool"
        },
        {
          "internalType": "bool",
          "name": "_isERC20Note",
          "type": "bool"
        }
      ],
      "name": "depositToBunnyNoteRelayed",
      "outputs": [],
      "stateMutability": "nonpayable",
      "type": "function"
    },
    {
      "inputs": [
        {
          "internalType": "contract IERC20",
          "name": "token",
          "type": "address"
        }
      ],
      "name": "getTokenBalance",
      "outputs": [
        {
          "internalType": "uint256",
          "name": "balance",
          "type": "uint256"
        }
      ],
      "stateMutability": "view",
      "type": "function"
    },
    {
      "inputs": [
        {
          "internalType": "contract IOwnerVerifier",
          "name": "_ownerVerifier",
          "type": "address"
        },
        {
          "internalType": "bytes32",
          "name": "_commitment",
          "type": "bytes32"
        },
        {
          "internalType": "address",
          "name": "_owner",
          "type": "address"
        }
      ],
      "name": "initialize",
      "outputs": [],
      "stateMutability": "nonpayable",
      "type": "function"
    },
    {
      "inputs": [
        {
          "internalType": "bytes32",
          "name": "",
          "type": "bytes32"
        }
      ],
      "name": "nullifierHashes",
      "outputs": [
        {
          "internalType": "bool",
          "name": "",
          "type": "bool"
        }
      ],
      "stateMutability": "view",
      "type": "function"
    },
    {
      "inputs": [
        {
          "internalType": "address",
          "name": "operator",
          "type": "address"
        },
        {
          "internalType": "address",
          "name": "from",
          "type": "address"
        },
        {
          "internalType": "uint256",
          "name": "tokenId",
          "type": "uint256"
        },
        {
          "internalType": "bytes",
          "name": "data",
          "type": "bytes"
        }
      ],
      "name": "onERC721Received",
      "outputs": [
        {
          "internalType": "bytes4",
          "name": "",
          "type": "bytes4"
        }
      ],
      "stateMutability": "nonpayable",
      "type": "function"
    },
    {
      "inputs": [],
      "name": "owner",
      "outputs": [
        {
          "internalType": "address",
          "name": "",
          "type": "address"
        }
      ],
      "stateMutability": "view",
      "type": "function"
    },
    {
      "inputs": [
        {
          "components": [
            {
              "internalType": "uint256[8]",
              "name": "proof",
              "type": "uint256[8]"
            },
            {
              "internalType": "bytes32",
              "name": "commitment",
              "type": "bytes32"
            },
            {
              "internalType": "address",
              "name": "smartContract",
              "type": "address"
            },
            {
              "internalType": "address",
              "name": "relayer",
              "type": "address"
            },
            {
              "internalType": "bytes32",
              "name": "paramsHash",
              "type": "bytes32"
            },
            {
              "internalType": "bytes32",
              "name": "nullifierHash",
              "type": "bytes32"
            }
          ],
          "internalType": "struct ZkOwner",
          "name": "_zkOwner",
          "type": "tuple"
        }
      ],
      "name": "ownerValid",
      "outputs": [
        {
          "internalType": "bool",
          "name": "",
          "type": "bool"
        }
      ],
      "stateMutability": "nonpayable",
      "type": "function"
    },
    {
      "inputs": [],
      "name": "ownerVerifier",
      "outputs": [
        {
          "internalType": "contract IOwnerVerifier",
          "name": "",
          "type": "address"
        }
      ],
      "stateMutability": "view",
      "type": "function"
    },
    {
      "inputs": [],
      "name": "paused",
      "outputs": [
        {
          "internalType": "bool",
          "name": "",
          "type": "bool"
        }
      ],
      "stateMutability": "view",
      "type": "function"
    },
    {
      "inputs": [
        {
          "internalType": "bytes32",
          "name": "newCommitment",
          "type": "bytes32"
        }
      ],
      "name": "resetCommitment",
      "outputs": [],
      "stateMutability": "nonpayable",
      "type": "function"
    },
    {
      "inputs": [],
      "name": "totalWeiReceived",
      "outputs": [
        {
          "internalType": "uint256",
          "name": "",
          "type": "uint256"
        }
      ],
      "stateMutability": "view",
      "type": "function"
    },
    {
      "inputs": [
        {
          "internalType": "contract IERC721",
          "name": "_token",
          "type": "address"
        },
        {
          "internalType": "address",
          "name": "_from",
          "type": "address"
        },
        {
          "internalType": "address",
          "name": "_to",
          "type": "address"
        },
        {
          "internalType": "uint256",
          "name": "_tokenId",
          "type": "uint256"
        }
      ],
      "name": "transferERC721ByOwner",
      "outputs": [],
      "stateMutability": "nonpayable",
      "type": "function"
    },
    {
      "inputs": [
        {
          "components": [
            {
              "internalType": "uint256[8]",
              "name": "proof",
              "type": "uint256[8]"
            },
            {
              "internalType": "bytes32",
              "name": "commitment",
              "type": "bytes32"
            },
            {
              "internalType": "address",
              "name": "smartContract",
              "type": "address"
            },
            {
              "internalType": "address",
              "name": "relayer",
              "type": "address"
            },
            {
              "internalType": "bytes32",
              "name": "paramsHash",
              "type": "bytes32"
            },
            {
              "internalType": "bytes32",
              "name": "nullifierHash",
              "type": "bytes32"
            }
          ],
          "internalType": "struct ZkOwner",
          "name": "_zkOwner",
          "type": "tuple"
        },
        {
          "internalType": "address",
          "name": "_token",
          "type": "address"
        },
        {
          "internalType": "address",
          "name": "_transferFrom",
          "type": "address"
        },
        {
          "internalType": "address",
          "name": "_transferTo",
          "type": "address"
        },
        {
          "internalType": "uint256",
          "name": "_tokenId",
          "type": "uint256"
        }
      ],
      "name": "transferERC721ParamsHash",
      "outputs": [
        {
          "internalType": "bytes32",
          "name": "h",
          "type": "bytes32"
        }
      ],
      "stateMutability": "pure",
      "type": "function"
    },
    {
      "inputs": [
        {
          "components": [
            {
              "internalType": "uint256[8]",
              "name": "proof",
              "type": "uint256[8]"
            },
            {
              "internalType": "bytes32",
              "name": "commitment",
              "type": "bytes32"
            },
            {
              "internalType": "address",
              "name": "smartContract",
              "type": "address"
            },
            {
              "internalType": "address",
              "name": "relayer",
              "type": "address"
            },
            {
              "internalType": "bytes32",
              "name": "paramsHash",
              "type": "bytes32"
            },
            {
              "internalType": "bytes32",
              "name": "nullifierHash",
              "type": "bytes32"
            }
          ],
          "internalType": "struct ZkOwner",
          "name": "_zkOwner",
          "type": "tuple"
        },
        {
          "internalType": "address",
          "name": "_token",
          "type": "address"
        },
        {
          "internalType": "address",
          "name": "_transferFrom",
          "type": "address"
        },
        {
          "internalType": "address",
          "name": "_transferTo",
          "type": "address"
        },
        {
          "internalType": "uint256",
          "name": "_tokenId",
          "type": "uint256"
        }
      ],
      "name": "transferERC721Relayed",
      "outputs": [],
      "stateMutability": "nonpayable",
      "type": "function"
    },
    {
      "inputs": [
        {
          "internalType": "address",
          "name": "_to",
          "type": "address"
        },
        {
          "internalType": "uint256",
          "name": "_amount",
          "type": "uint256"
        }
      ],
      "name": "transferETHByOwner",
      "outputs": [],
      "stateMutability": "nonpayable",
      "type": "function"
    },
    {
      "inputs": [
        {
          "components": [
            {
              "internalType": "uint256[8]",
              "name": "proof",
              "type": "uint256[8]"
            },
            {
              "internalType": "bytes32",
              "name": "commitment",
              "type": "bytes32"
            },
            {
              "internalType": "address",
              "name": "smartContract",
              "type": "address"
            },
            {
              "internalType": "address",
              "name": "relayer",
              "type": "address"
            },
            {
              "internalType": "bytes32",
              "name": "paramsHash",
              "type": "bytes32"
            },
            {
              "internalType": "bytes32",
              "name": "nullifierHash",
              "type": "bytes32"
            }
          ],
          "internalType": "struct ZkOwner",
          "name": "_zkOwner",
          "type": "tuple"
        },
        {
          "internalType": "address",
          "name": "_token",
          "type": "address"
        },
        {
          "internalType": "address",
          "name": "_transferTo",
          "type": "address"
        },
        {
          "internalType": "uint256",
          "name": "_transferAmount",
          "type": "uint256"
        }
      ],
      "name": "transferETHRelayed",
      "outputs": [],
      "stateMutability": "nonpayable",
      "type": "function"
    },
    {
      "inputs": [
        {
          "components": [
            {
              "internalType": "uint256[8]",
              "name": "proof",
              "type": "uint256[8]"
            },
            {
              "internalType": "bytes32",
              "name": "commitment",
              "type": "bytes32"
            },
            {
              "internalType": "address",
              "name": "smartContract",
              "type": "address"
            },
            {
              "internalType": "address",
              "name": "relayer",
              "type": "address"
            },
            {
              "internalType": "bytes32",
              "name": "paramsHash",
              "type": "bytes32"
            },
            {
              "internalType": "bytes32",
              "name": "nullifierHash",
              "type": "bytes32"
            }
          ],
          "internalType": "struct ZkOwner",
          "name": "_zkOwner",
          "type": "tuple"
        },
        {
          "internalType": "address",
          "name": "_token",
          "type": "address"
        },
        {
          "internalType": "address",
          "name": "_transferTo",
          "type": "address"
        },
        {
          "internalType": "uint256",
          "name": "_transferAmount",
          "type": "uint256"
        }
      ],
      "name": "transferParamsHash",
      "outputs": [
        {
          "internalType": "bytes32",
          "name": "h",
          "type": "bytes32"
        }
      ],
      "stateMutability": "pure",
      "type": "function"
    },
    {
      "inputs": [
        {
          "internalType": "contract IERC20",
          "name": "_token",
          "type": "address"
        },
        {
          "internalType": "address",
          "name": "_to",
          "type": "address"
        },
        {
          "internalType": "uint256",
          "name": "_amount",
          "type": "uint256"
        }
      ],
      "name": "transferTokenByOwner",
      "outputs": [],
      "stateMutability": "nonpayable",
      "type": "function"
    },
    {
      "inputs": [
        {
          "components": [
            {
              "internalType": "uint256[8]",
              "name": "proof",
              "type": "uint256[8]"
            },
            {
              "internalType": "bytes32",
              "name": "commitment",
              "type": "bytes32"
            },
            {
              "internalType": "address",
              "name": "smartContract",
              "type": "address"
            },
            {
              "internalType": "address",
              "name": "relayer",
              "type": "address"
            },
            {
              "internalType": "bytes32",
              "name": "paramsHash",
              "type": "bytes32"
            },
            {
              "internalType": "bytes32",
              "name": "nullifierHash",
              "type": "bytes32"
            }
          ],
          "internalType": "struct ZkOwner",
          "name": "_zkOwner",
          "type": "tuple"
        },
        {
          "internalType": "address",
          "name": "_token",
          "type": "address"
        },
        {
          "internalType": "address",
          "name": "_transferTo",
          "type": "address"
        },
        {
          "internalType": "uint256",
          "name": "_transferAmount",
          "type": "uint256"
        }
      ],
      "name": "transferTokenRelayed",
      "outputs": [],
      "stateMutability": "nonpayable",
      "type": "function"
    },
    {
      "inputs": [],
      "name": "walletPausedError",
      "outputs": [
        {
          "internalType": "string",
          "name": "",
          "type": "string"
        }
      ],
      "stateMutability": "view",
      "type": "function"
    },
    {
      "stateMutability": "payable",
      "type": "receive"
    }
  ],
  "bytecode": "0x608060405234801561001057600080fd5b50613d9a806100206000396000f3fe6080604052600436106101bb5760003560e01c8063602a8220116100ec578063946cc2e21161008a578063d26b3e6e11610064578063d26b3e6e146106a6578063da2fedc5146106c6578063e7f80c27146106e6578063fb570bc81461070657600080fd5b8063946cc2e2146105dd57806397493e97146105fd578063ccacf80c1461061d57600080fd5b806368d981f7116100c657806368d981f71461047957806388d12a4d146105215780638da5cb5b146105375780638fa36b421461055757600080fd5b8063602a822014610459578063607b1b381461047957806362229bad1461050e57600080fd5b80633aecd0e31161015957806359cf62021161013357806359cf6202146103c05780635c975abb146103e05780635d00d13f146104015780635e45180d1461042157600080fd5b80633aecd0e31461033a5780633df577c21461035a5780634d208f261461037a57600080fd5b80631db289fa116101955780631db289fa146102b857806320ba338c146102da578063273379c5146102fa57806336339e291461031a57600080fd5b80631303a48414610216578063150b7a021461023f57806317cc915c1461027857600080fd5b366102115734603660008282546101d29190613d01565b9091555050604080513381523460208201527f88a5966d370b9919b20f3e2c13ff65706f196a4e32cc2c12bf57088f88525874910160405180910390a1005b600080fd5b34801561022257600080fd5b5061022c60345481565b6040519081526020015b60405180910390f35b34801561024b57600080fd5b5061025f61025a366004613865565b610726565b6040516001600160e01b03199091168152602001610236565b34801561028457600080fd5b506102a8610293366004613946565b60376020526000908152604090205460ff1681565b6040519015158152602001610236565b3480156102c457600080fd5b506102d86102d3366004613ace565b610792565b005b3480156102e657600080fd5b506102a86102f5366004613a4b565b610c3a565b34801561030657600080fd5b506102d86103153660046139ba565b610f55565b34801561032657600080fd5b506102d8610335366004613b4b565b6110ae565b34801561034657600080fd5b5061022c6103553660046137db565b611513565b34801561036657600080fd5b506102d861037536600461397a565b611593565b34801561038657600080fd5b506103b36040518060400160405280600d81526020016c15d85b1b195d0814185d5cd959609a1b81525081565b6040516102369190613cae565b3480156103cc57600080fd5b506102d86103db366004613b4b565b6116f7565b3480156103ec57600080fd5b506035546102a890600160a01b900460ff1681565b34801561040d57600080fd5b506102d861041c36600461397a565b611bc9565b34801561042d57600080fd5b50603354610441906001600160a01b031681565b6040516001600160a01b039091168152602001610236565b34801561046557600080fd5b506102d86104743660046138ff565b611d3e565b34801561048557600080fd5b5061022c610494366004613ace565b6040805161010088013560208083019190915261018090980135818301526bffffffffffffffffffffffff19606097881b8116888301529590961b90941660748601526088850192909252151560f890811b60a8850152901515901b60a98301528051808303608a01815260aa9092019052805191012090565b6102d861051c3660046137fe565b611e37565b34801561052d57600080fd5b5061022c60365481565b34801561054357600080fd5b50603554610441906001600160a01b031681565b34801561056357600080fd5b5061022c610572366004613b4b565b604080516101008601356020820152610180860135918101919091526bffffffffffffffffffffffff19606085811b82168184015284901b1660748201526088810182905260009060a801604051602081830303815290604052805190602001209050949350505050565b3480156105e957600080fd5b506102d86105f8366004613b4b565b611f4a565b34801561060957600080fd5b506102d8610618366004613ace565b61242b565b34801561062957600080fd5b5061022c610638366004613a67565b6040805161010087013560208083019190915261018090970135818301526bffffffffffffffffffffffff19606096871b81168783015294861b851660748201529290941b9092166088820152609c808201929092528251808203909201825260bc01909152805191012090565b3480156106b257600080fd5b506102d86106c1366004613a0a565b6128bc565b3480156106d257600080fd5b506102d86106e1366004613a67565b612a79565b3480156106f257600080fd5b506102d86107013660046137fe565b612f52565b34801561071257600080fd5b506102d8610721366004613946565b613058565b60007fa05d90f300156ad1b545bc5d8197024456f21d22a708f5af04dd293e3d605251868686868660405161075f959493929190613bd9565b60405180910390a1507f150b7a023d4804d13e8c85fb27262cb750cf6ba9f9dd3bb30d90f482ceeb4b1f95945050505050565b61079a6130e0565b610180860135600090815260376020526040902054869060019060ff16156107f75760405162461bcd60e51b815260206004820152600b60248201526a50726f6f6620757365642160a81b60448201526064015b60405180910390fd5b3061080a610140840161012085016137db565b6001600160a01b0316146108535760405162461bcd60e51b815260206004820152601060248201526f125b9d985b1a590818dbdb9d1c9858dd60821b60448201526064016107ee565b6034548261010001351461089e5760405162461bcd60e51b8152602060048201526012602482015271125b9d985b1a590818dbdb5b5a5d1b595b9d60721b60448201526064016107ee565b8015610908576108b6610160830161014084016137db565b6001600160a01b0316336001600160a01b0316146109085760405162461bcd60e51b815260206004820152600f60248201526e24b73b30b634b2102932b630bcb2b960891b60448201526064016107ee565b6033546040805180820182528435815260208086013581830152825160808082018552878501358286019081526060808a01359084015282528451808601865281890135815260a089013581850152828401528451808601865260c0890135815260e089013581850152855191820190955261010088013581526001600160a01b0390951694635fe8c13b94919281016109aa6101408a016101208b016137db565b6001600160a01b031681526020016109ca6101608a016101408b016137db565b6001600160a01b031681526101808901356020909101526040516001600160e01b031960e087901b168152610a059493929190600401613c2a565b602060405180830381600087803b158015610a1f57600080fd5b505af1158015610a33573d6000803e3d6000fd5b505050506040513d601f19601f82011682018060405250810190610a57919061392a565b610a935760405162461bcd60e51b815260206004820152600d60248201526c24b73b30b634b210383937b7b360991b60448201526064016107ee565b610180820135600090815260376020908152604091829020805460ff191660011790556035548251808401909352600d83526c15d85b1b195d0814185d5cd959609a1b91830191909152600160a01b900460ff1615610b055760405162461bcd60e51b81526004016107ee9190613cae565b50604080516101008a01356020808301919091526101808b0135828401526bffffffffffffffffffffffff1960608b811b8216818501528a901b1660748301526088820188905286151560f890811b60a8840152861515901b60a98301528251808303608a01815260aa909201909252805191012088610160013514610bbe5760405162461bcd60e51b815260206004820152600e60248201526d496e76616c696420506172616d7360901b60448201526064016107ee565b610bcb878787878761313a565b604080516001600160a01b03808a16825288166020820152908101869052841515606082015283151560808201527fcaad7b45b8c44063164988e87ebf5b79b81a48a4220b5003781e7d14d21300509060a0015b60405180910390a15050610c3260018055565b505050505050565b6101808101356000908152603760205260408120548290829060ff1615610c915760405162461bcd60e51b815260206004820152600b60248201526a50726f6f6620757365642160a81b60448201526064016107ee565b30610ca4610140840161012085016137db565b6001600160a01b031614610ced5760405162461bcd60e51b815260206004820152601060248201526f125b9d985b1a590818dbdb9d1c9858dd60821b60448201526064016107ee565b60345482610100013514610d385760405162461bcd60e51b8152602060048201526012602482015271125b9d985b1a590818dbdb5b5a5d1b595b9d60721b60448201526064016107ee565b8015610da257610d50610160830161014084016137db565b6001600160a01b0316336001600160a01b031614610da25760405162461bcd60e51b815260206004820152600f60248201526e24b73b30b634b2102932b630bcb2b960891b60448201526064016107ee565b6033546040805180820182528435815260208086013581830152825160808082018552878501358286019081526060808a01359084015282528451808601865281890135815260a089013581850152828401528451808601865260c0890135815260e089013581850152855191820190955261010088013581526001600160a01b0390951694635fe8c13b9491928101610e446101408a016101208b016137db565b6001600160a01b03168152602001610e646101608a016101408b016137db565b6001600160a01b031681526101808901356020909101526040516001600160e01b031960e087901b168152610e9f9493929190600401613c2a565b602060405180830381600087803b158015610eb957600080fd5b505af1158015610ecd573d6000803e3d6000fd5b505050506040513d601f19601f82011682018060405250810190610ef1919061392a565b610f2d5760405162461bcd60e51b815260206004820152600d60248201526c24b73b30b634b210383937b7b360991b60448201526064016107ee565b5061018001356000908152603760205260409020805460ff1916600190811790915592915050565b603554600160a01b900460ff1615610f9f5760405162461bcd60e51b815260206004820152600d60248201526c15d85b1b195d081c185d5cd959609a1b60448201526064016107ee565b6035546001600160a01b03163314610fe65760405162461bcd60e51b815260206004820152600a60248201526927b7363c9037bbb732b960b11b60448201526064016107ee565b604051632142170760e11b81526001600160a01b0384811660048301528381166024830152604482018390528516906342842e0e90606401600060405180830381600087803b15801561103857600080fd5b505af115801561104c573d6000803e3d6000fd5b5050604080516001600160a01b0380891682528088166020830152861691810191909152606081018490527f34ede4137d0248951b29af2540338e0bbbbfe6e8456092618912dbe0b4d21a0a925060800190505b60405180910390a150505050565b6110b66130e0565b610180840135600090815260376020526040902054849060019060ff161561110e5760405162461bcd60e51b815260206004820152600b60248201526a50726f6f6620757365642160a81b60448201526064016107ee565b30611121610140840161012085016137db565b6001600160a01b03161461116a5760405162461bcd60e51b815260206004820152601060248201526f125b9d985b1a590818dbdb9d1c9858dd60821b60448201526064016107ee565b603454826101000135146111b55760405162461bcd60e51b8152602060048201526012602482015271125b9d985b1a590818dbdb5b5a5d1b595b9d60721b60448201526064016107ee565b801561121f576111cd610160830161014084016137db565b6001600160a01b0316336001600160a01b03161461121f5760405162461bcd60e51b815260206004820152600f60248201526e24b73b30b634b2102932b630bcb2b960891b60448201526064016107ee565b6033546040805180820182528435815260208086013581830152825160808082018552878501358286019081526060808a01359084015282528451808601865281890135815260a089013581850152828401528451808601865260c0890135815260e089013581850152855191820190955261010088013581526001600160a01b0390951694635fe8c13b94919281016112c16101408a016101208b016137db565b6001600160a01b031681526020016112e16101608a016101408b016137db565b6001600160a01b031681526101808901356020909101526040516001600160e01b031960e087901b16815261131c9493929190600401613c2a565b602060405180830381600087803b15801561133657600080fd5b505af115801561134a573d6000803e3d6000fd5b505050506040513d601f19601f8201168201806040525081019061136e919061392a565b6113aa5760405162461bcd60e51b815260206004820152600d60248201526c24b73b30b634b210383937b7b360991b60448201526064016107ee565b6101808201356000908152603760205260409020805460ff19166001179055603554600160a01b900460ff16156114135760405162461bcd60e51b815260206004820152600d60248201526c15d85b1b195d081c185d5cd959609a1b60448201526064016107ee565b60408051610100880135602080830191909152610180890135828401526bffffffffffffffffffffffff19606089811b82168185015288901b16607483015260888083018790528351808403909101815260a89092019092528051910120866101600135146114b55760405162461bcd60e51b815260206004820152600e60248201526d496e76616c696420506172616d7360901b60448201526064016107ee565b6114bf8484613265565b604080516001600160a01b0386168152602081018590527f26b737d0918cc2baec0f7e6d5c3d098109f9744a842ec04feae3fabf2a2c0ae691015b60405180910390a1505061150d60018055565b50505050565b6040516370a0823160e01b81523060048201526000906001600160a01b038316906370a082319060240160206040518083038186803b15801561155557600080fd5b505afa158015611569573d6000803e3d6000fd5b505050506040513d601f19601f8201168201806040525081019061158d9190613b9e565b92915050565b603554600160a01b900460ff16156115dd5760405162461bcd60e51b815260206004820152600d60248201526c15d85b1b195d081c185d5cd959609a1b60448201526064016107ee565b6035546001600160a01b031633146116245760405162461bcd60e51b815260206004820152600a60248201526927b7363c9037bbb732b960b11b60448201526064016107ee565b60405163095ea7b360e01b81526001600160a01b0383811660048301526024820183905284169063095ea7b390604401602060405180830381600087803b15801561166e57600080fd5b505af1158015611682573d6000803e3d6000fd5b505050506040513d601f19601f820116820180604052508101906116a6919061392a565b50604080516001600160a01b038086168252841660208201529081018290527f73db16d8f0f731731f50dc3d706c05a59fa80ae448e95ac061472bec6fa0a0c99060600160405180910390a1505050565b6116ff6130e0565b610180840135600090815260376020526040902054849060019060ff16156117575760405162461bcd60e51b815260206004820152600b60248201526a50726f6f6620757365642160a81b60448201526064016107ee565b3061176a610140840161012085016137db565b6001600160a01b0316146117b35760405162461bcd60e51b815260206004820152601060248201526f125b9d985b1a590818dbdb9d1c9858dd60821b60448201526064016107ee565b603454826101000135146117fe5760405162461bcd60e51b8152602060048201526012602482015271125b9d985b1a590818dbdb5b5a5d1b595b9d60721b60448201526064016107ee565b801561186857611816610160830161014084016137db565b6001600160a01b0316336001600160a01b0316146118685760405162461bcd60e51b815260206004820152600f60248201526e24b73b30b634b2102932b630bcb2b960891b60448201526064016107ee565b6033546040805180820182528435815260208086013581830152825160808082018552878501358286019081526060808a01359084015282528451808601865281890135815260a089013581850152828401528451808601865260c0890135815260e089013581850152855191820190955261010088013581526001600160a01b0390951694635fe8c13b949192810161190a6101408a016101208b016137db565b6001600160a01b0316815260200161192a6101608a016101408b016137db565b6001600160a01b031681526101808901356020909101526040516001600160e01b031960e087901b1681526119659493929190600401613c2a565b602060405180830381600087803b15801561197f57600080fd5b505af1158015611993573d6000803e3d6000fd5b505050506040513d601f19601f820116820180604052508101906119b7919061392a565b6119f35760405162461bcd60e51b815260206004820152600d60248201526c24b73b30b634b210383937b7b360991b60448201526064016107ee565b6101808201356000908152603760205260409020805460ff19166001179055603554600160a01b900460ff1615611a5c5760405162461bcd60e51b815260206004820152600d60248201526c15d85b1b195d081c185d5cd959609a1b60448201526064016107ee565b60408051610100880135602080830191909152610180890135828401526bffffffffffffffffffffffff19606089811b82168185015288901b16607483015260888083018790528351808403909101815260a8909201909252805191012086610160013514611afe5760405162461bcd60e51b815260206004820152600e60248201526d496e76616c696420506172616d7360901b60448201526064016107ee565b60405163a9059cbb60e01b81526001600160a01b0385811660048301526024820185905286169063a9059cbb90604401602060405180830381600087803b158015611b4857600080fd5b505af1158015611b5c573d6000803e3d6000fd5b505050506040513d601f19601f82011682018060405250810190611b80919061392a565b50604080516001600160a01b038088168252861660208201529081018490527f2bdfcea1b675b8d8c76815ae6d45e52fc8e06b61cc001064bc1dbd102f0ff7a1906060016114fa565b611bd16130e0565b603554600160a01b900460ff1615611c1b5760405162461bcd60e51b815260206004820152600d60248201526c15d85b1b195d081c185d5cd959609a1b60448201526064016107ee565b6035546001600160a01b03163314611c625760405162461bcd60e51b815260206004820152600a60248201526927b7363c9037bbb732b960b11b60448201526064016107ee565b60405163a9059cbb60e01b81526001600160a01b0383811660048301526024820183905284169063a9059cbb90604401602060405180830381600087803b158015611cac57600080fd5b505af1158015611cc0573d6000803e3d6000fd5b505050506040513d601f19601f82011682018060405250810190611ce4919061392a565b50604080516001600160a01b038086168252841660208201529081018290527fe26c779e7a510044c96312bf19b748215af9b67f20f847906e667d683b2d86949060600160405180910390a1611d3960018055565b505050565b611d466130e0565b6035546001600160a01b03163314611d8d5760405162461bcd60e51b815260206004820152600a60248201526927b7363c9037bbb732b960b11b60448201526064016107ee565b60355460408051808201909152600d81526c15d85b1b195d0814185d5cd959609a1b602082015290600160a01b900460ff1615611ddd5760405162461bcd60e51b81526004016107ee9190613cae565b50611de88282613265565b604080516001600160a01b0384168152602081018390527f0e1b2ac4a44b22edf4a6e9497a4c8f949212e9e7959619e036419cd894db3d12910160405180910390a1611e3360018055565b5050565b611e3f6130e0565b603554600160a01b900460ff1615611e895760405162461bcd60e51b815260206004820152600d60248201526c15d85b1b195d081c185d5cd959609a1b60448201526064016107ee565b6035546001600160a01b03163314611ed15760405162461bcd60e51b815260206004820152600b60248201526a4f6e6c79206f776e65722160a81b60448201526064016107ee565b611ede858585858561337e565b604080516001600160a01b03808816825286166020820152908101849052821515606082015281151560808201527fbee8a77a17a3ee301c8c4c33402846db7769feaba641cf8cf20a7dfb13038f479060a0015b60405180910390a1611f4360018055565b5050505050565b611f526130e0565b610180840135600090815260376020526040902054849060019060ff1615611faa5760405162461bcd60e51b815260206004820152600b60248201526a50726f6f6620757365642160a81b60448201526064016107ee565b30611fbd610140840161012085016137db565b6001600160a01b0316146120065760405162461bcd60e51b815260206004820152601060248201526f125b9d985b1a590818dbdb9d1c9858dd60821b60448201526064016107ee565b603454826101000135146120515760405162461bcd60e51b8152602060048201526012602482015271125b9d985b1a590818dbdb5b5a5d1b595b9d60721b60448201526064016107ee565b80156120bb57612069610160830161014084016137db565b6001600160a01b0316336001600160a01b0316146120bb5760405162461bcd60e51b815260206004820152600f60248201526e24b73b30b634b2102932b630bcb2b960891b60448201526064016107ee565b6033546040805180820182528435815260208086013581830152825160808082018552878501358286019081526060808a01359084015282528451808601865281890135815260a089013581850152828401528451808601865260c0890135815260e089013581850152855191820190955261010088013581526001600160a01b0390951694635fe8c13b949192810161215d6101408a016101208b016137db565b6001600160a01b0316815260200161217d6101608a016101408b016137db565b6001600160a01b031681526101808901356020909101526040516001600160e01b031960e087901b1681526121b89493929190600401613c2a565b602060405180830381600087803b1580156121d257600080fd5b505af11580156121e6573d6000803e3d6000fd5b505050506040513d601f19601f8201168201806040525081019061220a919061392a565b6122465760405162461bcd60e51b815260206004820152600d60248201526c24b73b30b634b210383937b7b360991b60448201526064016107ee565b6101808201356000908152603760205260409020805460ff19166001179055603554600160a01b900460ff16156122af5760405162461bcd60e51b815260206004820152600d60248201526c15d85b1b195d081c185d5cd959609a1b60448201526064016107ee565b60408051610100880135602080830191909152610180890135828401526bffffffffffffffffffffffff19606089811b82168185015288901b16607483015260888083018790528351808403909101815260a89092019092528051910120866101600135146123605760405162461bcd60e51b815260206004820152600e60248201527f496e76616c696420706172616d7300000000000000000000000000000000000060448201526064016107ee565b60405163095ea7b360e01b81526001600160a01b0385811660048301526024820185905286169063095ea7b390604401602060405180830381600087803b1580156123aa57600080fd5b505af11580156123be573d6000803e3d6000fd5b505050506040513d601f19601f820116820180604052508101906123e2919061392a565b50604080516001600160a01b038088168252861660208201529081018490527f62c2b568540e154d886d58f95642998ff0188937d5b2425020ceb88be35b8837906060016114fa565b6124336130e0565b610180860135600090815260376020526040902054869060019060ff161561248b5760405162461bcd60e51b815260206004820152600b60248201526a50726f6f6620757365642160a81b60448201526064016107ee565b3061249e610140840161012085016137db565b6001600160a01b0316146124e75760405162461bcd60e51b815260206004820152601060248201526f125b9d985b1a590818dbdb9d1c9858dd60821b60448201526064016107ee565b603454826101000135146125325760405162461bcd60e51b8152602060048201526012602482015271125b9d985b1a590818dbdb5b5a5d1b595b9d60721b60448201526064016107ee565b801561259c5761254a610160830161014084016137db565b6001600160a01b0316336001600160a01b03161461259c5760405162461bcd60e51b815260206004820152600f60248201526e24b73b30b634b2102932b630bcb2b960891b60448201526064016107ee565b6033546040805180820182528435815260208086013581830152825160808082018552878501358286019081526060808a01359084015282528451808601865281890135815260a089013581850152828401528451808601865260c0890135815260e089013581850152855191820190955261010088013581526001600160a01b0390951694635fe8c13b949192810161263e6101408a016101208b016137db565b6001600160a01b0316815260200161265e6101608a016101408b016137db565b6001600160a01b031681526101808901356020909101526040516001600160e01b031960e087901b1681526126999493929190600401613c2a565b602060405180830381600087803b1580156126b357600080fd5b505af11580156126c7573d6000803e3d6000fd5b505050506040513d601f19601f820116820180604052508101906126eb919061392a565b6127275760405162461bcd60e51b815260206004820152600d60248201526c24b73b30b634b210383937b7b360991b60448201526064016107ee565b6101808201356000908152603760205260409020805460ff19166001179055603554600160a01b900460ff16156127905760405162461bcd60e51b815260206004820152600d60248201526c15d85b1b195d081c185d5cd959609a1b60448201526064016107ee565b604080516101008a01356020808301919091526101808b0135828401526bffffffffffffffffffffffff1960608b811b8216818501528a901b1660748301526088820188905286151560f890811b60a8840152861515901b60a98301528251808303608a01815260aa9092019092528051910120886101600135146128575760405162461bcd60e51b815260206004820152601160248201527f496e76616c696420506172616d4861736800000000000000000000000000000060448201526064016107ee565b612864878787878761337e565b604080516001600160a01b03808a16825288166020820152908101869052841515606082015283151560808201527fff103ff9c5a9eddb8af005c1d9f1c3ad476b67e1c9ca815ff3829c13fde5ec669060a001610c1f565b600054610100900460ff16158080156128dc5750600054600160ff909116105b806128f65750303b1580156128f6575060005460ff166001145b6129685760405162461bcd60e51b815260206004820152602e60248201527f496e697469616c697a61626c653a20636f6e747261637420697320616c72656160448201527f647920696e697469616c697a656400000000000000000000000000000000000060648201526084016107ee565b6000805460ff19166001179055801561298b576000805461ff0019166101001790555b603380547fffffffffffffffffffffffff0000000000000000000000000000000000000000166001600160a01b038681169182179092556034859055603580549285167fffffffffffffffffffffff0000000000000000000000000000000000000000009093168317905560408051918252602082018690528101919091527f24f7cbb34eb9f7958e1bcad7f79879d3b9c07f1db857377b8f58f2d8d38630509060600160405180910390a1801561150d576000805461ff0019169055604051600181527f7f26b83ff96e1f2b6a682f133852f6798a09c465da95921460cefb3847402498906020016110a0565b612a816130e0565b610180850135600090815260376020526040902054859060019060ff1615612ad95760405162461bcd60e51b815260206004820152600b60248201526a50726f6f6620757365642160a81b60448201526064016107ee565b30612aec610140840161012085016137db565b6001600160a01b031614612b355760405162461bcd60e51b815260206004820152601060248201526f125b9d985b1a590818dbdb9d1c9858dd60821b60448201526064016107ee565b60345482610100013514612b805760405162461bcd60e51b8152602060048201526012602482015271125b9d985b1a590818dbdb5b5a5d1b595b9d60721b60448201526064016107ee565b8015612bea57612b98610160830161014084016137db565b6001600160a01b0316336001600160a01b031614612bea5760405162461bcd60e51b815260206004820152600f60248201526e24b73b30b634b2102932b630bcb2b960891b60448201526064016107ee565b6033546040805180820182528435815260208086013581830152825160808082018552878501358286019081526060808a01359084015282528451808601865281890135815260a089013581850152828401528451808601865260c0890135815260e089013581850152855191820190955261010088013581526001600160a01b0390951694635fe8c13b9491928101612c8c6101408a016101208b016137db565b6001600160a01b03168152602001612cac6101608a016101408b016137db565b6001600160a01b031681526101808901356020909101526040516001600160e01b031960e087901b168152612ce79493929190600401613c2a565b602060405180830381600087803b158015612d0157600080fd5b505af1158015612d15573d6000803e3d6000fd5b505050506040513d601f19601f82011682018060405250810190612d39919061392a565b612d755760405162461bcd60e51b815260206004820152600d60248201526c24b73b30b634b210383937b7b360991b60448201526064016107ee565b6101808201356000908152603760205260409020805460ff19166001179055603554600160a01b900460ff1615612dde5760405162461bcd60e51b815260206004820152600d60248201526c15d85b1b195d081c185d5cd959609a1b60448201526064016107ee565b604080516101008901356020808301919091526101808a0135828401526bffffffffffffffffffffffff1960608a811b82168185015289811b8216607485015288901b166088830152609c8083018790528351808403909101815260bc909201909252805191012087610160013514612e8a5760405162461bcd60e51b815260206004820152600e60248201526d496e76616c696420506172616d7360901b60448201526064016107ee565b604051632142170760e11b81526001600160a01b0386811660048301528581166024830152604482018590528716906342842e0e90606401600060405180830381600087803b158015612edc57600080fd5b505af1158015612ef0573d6000803e3d6000fd5b5050604080516001600160a01b038a8116825289811660208301528816818301526060810187905290517fda4a2fc59bc643c654f6e99900e84c43712e6816ce63d23717ac91b1817ed5e79350908190036080019150a15050611f4360018055565b612f5a6130e0565b6035546001600160a01b03163314612fa25760405162461bcd60e51b815260206004820152600b60248201526a4f6e6c79206f776e65722160a81b60448201526064016107ee565b60355460408051808201909152600d81526c15d85b1b195d0814185d5cd959609a1b602082015290600160a01b900460ff1615612ff25760405162461bcd60e51b81526004016107ee9190613cae565b50613000858585858561313a565b604080516001600160a01b03808816825286166020820152908101849052821515606082015281151560808201527f8de82d25e68efc17a3ae9b7acf80ad96cf44ba557eb735f0b7e780cb96fe484b9060a001611f32565b6035546001600160a01b0316331461309f5760405162461bcd60e51b815260206004820152600a60248201526927b7363c9037bbb732b960b11b60448201526064016107ee565b60345460408051918252602082018390527f9049bcb5aae26c0b255a01140b878c55d3d0079aa5ab7ef88e380c86999fb86e910160405180910390a1603455565b600260015414156131335760405162461bcd60e51b815260206004820152601f60248201527f5265656e7472616e637947756172643a207265656e7472616e742063616c6c0060448201526064016107ee565b6002600155565b81156131c2576040517fa22cb4650000000000000000000000000000000000000000000000000000000081526001600160a01b038581166004830152821515602483015286169063a22cb465906044015b600060405180830381600087803b1580156131a557600080fd5b505af11580156131b9573d6000803e3d6000fd5b50505050611f43565b80156131fd5760405163095ea7b360e01b81526001600160a01b0385811660048301526024820185905286169063095ea7b39060440161318b565b60405163095ea7b360e01b815260006004820152602481018490526001600160a01b0386169063095ea7b390604401600060405180830381600087803b15801561324657600080fd5b505af115801561325a573d6000803e3d6000fd5b505050505050505050565b804710156132b55760405162461bcd60e51b815260206004820152601d60248201527f416464726573733a20696e73756666696369656e742062616c616e636500000060448201526064016107ee565b6000826001600160a01b03168260405160006040518083038185875af1925050503d8060008114613302576040519150601f19603f3d011682016040523d82523d6000602084013e613307565b606091505b5050905080611d395760405162461bcd60e51b815260206004820152603a60248201527f416464726573733a20756e61626c6520746f2073656e642076616c75652c207260448201527f6563697069656e74206d6179206861766520726576657274656400000000000060648201526084016107ee565b6000856001600160a01b0316638bca6d166040518163ffffffff1660e01b815260040160206040518083038186803b1580156133b957600080fd5b505afa1580156133cd573d6000803e3d6000fd5b505050506040513d601f19601f820116820180604052508101906133f19190613b9e565b90506000866001600160a01b031663ddca3f436040518163ffffffff1660e01b815260040160206040518083038186803b15801561342e57600080fd5b505afa158015613442573d6000803e3d6000fd5b505050506040513d601f19601f820116820180604052508101906134669190613b9e565b905060006134748284613d01565b9050831561370157866001600160a01b0316886001600160a01b031663fc0c546a6040518163ffffffff1660e01b815260040160206040518083038186803b1580156134bf57600080fd5b505afa1580156134d3573d6000803e3d6000fd5b505050506040513d601f19601f820116820180604052508101906134f7919061395e565b6001600160a01b03161461354d5760405162461bcd60e51b815260206004820152600d60248201527f496e76616c696420746f6b656e0000000000000000000000000000000000000060448201526064016107ee565b6040516370a0823160e01b81523060048201526001600160a01b038816906370a082319060240160206040518083038186803b15801561358c57600080fd5b505afa1580156135a0573d6000803e3d6000fd5b505050506040513d601f19601f820116820180604052508101906135c49190613b9e565b8111156136135760405162461bcd60e51b815260206004820152601660248201527f496e76616c696420746f6b656e2062616c616e6365210000000000000000000060448201526064016107ee565b60405163095ea7b360e01b81526001600160a01b0389811660048301526024820183905288169063095ea7b390604401602060405180830381600087803b15801561365d57600080fd5b505af1158015613671573d6000803e3d6000fd5b505050506040513d601f19601f82011682018060405250810190613695919061392a565b50604051623d7e6160e21b81526004810187905285151560248201523060448201526001600160a01b0389169062f5f98490606401600060405180830381600087803b1580156136e457600080fd5b505af11580156136f8573d6000803e3d6000fd5b505050506137b9565b8047116137505760405162461bcd60e51b815260206004820152601060248201527f496e76616c69642042616c616e6365210000000000000000000000000000000060448201526064016107ee565b604051623d7e6160e21b81526004810187905285151560248201523060448201526001600160a01b0389169062f5f9849083906064016000604051808303818588803b15801561379f57600080fd5b505af11580156137b3573d6000803e3d6000fd5b50505050505b5050505050505050565b60006101a082840312156137d5578081fd5b50919050565b6000602082840312156137ec578081fd5b81356137f781613d3e565b9392505050565b600080600080600060a08688031215613815578081fd5b853561382081613d3e565b9450602086013561383081613d3e565b935060408601359250606086013561384781613d56565b9150608086013561385781613d56565b809150509295509295909350565b60008060008060006080868803121561387c578081fd5b853561388781613d3e565b9450602086013561389781613d3e565b935060408601359250606086013567ffffffffffffffff808211156138ba578283fd5b818801915088601f8301126138cd578283fd5b8135818111156138db578384fd5b8960208285010111156138ec578384fd5b9699959850939650602001949392505050565b60008060408385031215613911578182fd5b823561391c81613d3e565b946020939093013593505050565b60006020828403121561393b578081fd5b81516137f781613d56565b600060208284031215613957578081fd5b5035919050565b60006020828403121561396f578081fd5b81516137f781613d3e565b60008060006060848603121561398e578283fd5b833561399981613d3e565b925060208401356139a981613d3e565b929592945050506040919091013590565b600080600080608085870312156139cf578081fd5b84356139da81613d3e565b935060208501356139ea81613d3e565b925060408501356139fa81613d3e565b9396929550929360600135925050565b600080600060608486031215613a1e578081fd5b8335613a2981613d3e565b9250602084013591506040840135613a4081613d3e565b809150509250925092565b60006101a08284031215613a5d578081fd5b6137f783836137c3565b60008060008060006102208688031215613a7f578283fd5b613a8987876137c3565b94506101a0860135613a9a81613d3e565b93506101c0860135613aab81613d3e565b92506101e0860135613abc81613d3e565b94979396509194610200013592915050565b6000806000806000806102408789031215613ae7578384fd5b613af188886137c3565b95506101a0870135613b0281613d3e565b94506101c0870135613b1381613d3e565b93506101e08701359250610200870135613b2c81613d56565b9150610220870135613b3d81613d56565b809150509295509295509295565b6000806000806102008587031215613b61578182fd5b613b6b86866137c3565b93506101a0850135613b7c81613d3e565b92506101c0850135613b8d81613d3e565b939692955092936101e00135925050565b600060208284031215613baf578081fd5b5051919050565b8060005b600281101561150d578151845260209384019390910190600101613bba565b60006001600160a01b03808816835280871660208401525084604083015260806060830152826080830152828460a084013781830160a090810191909152601f909201601f19160101949350505050565b6101808101613c398287613bb6565b60408083018660005b6002811015613c6957613c56838351613bb6565b9183019160209190910190600101613c42565b50505050613c7a60c0830185613bb6565b61010082018360005b6004811015613ca2578151835260209283019290910190600101613c83565b50505095945050505050565b6000602080835283518082850152825b81811015613cda57858101830151858201604001528201613cbe565b81811115613ceb5783604083870101525b50601f01601f1916929092016040019392505050565b60008219821115613d39577f4e487b710000000000000000000000000000000000000000000000000000000081526011600452602481fd5b500190565b6001600160a01b0381168114613d5357600080fd5b50565b8015158114613d5357600080fdfea2646970667358221220cbaf35cf6cca39c1a1946309c2ed8fa5198513a980218d0aec28aba5acd8bdf564736f6c63430008040033",
  "linkReferences": {},
  "deployedLinkReferences": {}
}