{
  "_format": "hh-sol-artifact-1",
  "contractName": "ERC20Notes",
  "sourceName": "contracts/ERC20Notes.sol",
  "abi": [
    {
      "inputs": [
        {
          "internalType": "contract IVerifier",
          "name": "_verifier",
          "type": "address"
        },
        {
          "internalType": "uint256",
          "name": "_denomination",
          "type": "uint256"
        },
        {
          "internalType": "uint8",
          "name": "_feeDivider",
          "type": "uint8"
        },
        {
          "internalType": "contract IERC20",
          "name": "_token",
          "type": "address"
        },
        {
          "internalType": "address",
          "name": "_relayer",
          "type": "address"
        }
      ],
      "stateMutability": "nonpayable",
      "type": "constructor"
    },
    {
      "anonymous": false,
      "inputs": [
        {
          "indexed": true,
          "internalType": "bytes32",
          "name": "commitment",
          "type": "bytes32"
        },
        {
          "indexed": false,
          "internalType": "address",
          "name": "depositedBy",
          "type": "address"
        },
        {
          "indexed": false,
          "internalType": "uint256",
          "name": "timestamp",
          "type": "uint256"
        }
      ],
      "name": "Deposit",
      "type": "event"
    },
    {
      "anonymous": false,
      "inputs": [
        {
          "indexed": false,
          "internalType": "address",
          "name": "from",
          "type": "address"
        },
        {
          "indexed": false,
          "internalType": "address",
          "name": "to",
          "type": "address"
        },
        {
          "indexed": false,
          "internalType": "bytes32",
          "name": "nullifierHashes",
          "type": "bytes32"
        },
        {
          "indexed": false,
          "internalType": "uint256",
          "name": "price",
          "type": "uint256"
        },
        {
          "indexed": false,
          "internalType": "uint256",
          "name": "change",
          "type": "uint256"
        }
      ],
      "name": "WithdrawCashNote",
      "type": "event"
    },
    {
      "anonymous": false,
      "inputs": [
        {
          "indexed": false,
          "internalType": "address",
          "name": "from",
          "type": "address"
        },
        {
          "indexed": false,
          "internalType": "address",
          "name": "to",
          "type": "address"
        },
        {
          "indexed": false,
          "internalType": "bytes32",
          "name": "nullifierHash",
          "type": "bytes32"
        },
        {
          "indexed": false,
          "internalType": "uint256",
          "name": "fee",
          "type": "uint256"
        }
      ],
      "name": "WithdrawGiftCard",
      "type": "event"
    },
    {
      "inputs": [],
      "name": "_owner",
      "outputs": [
        {
          "internalType": "address payable",
          "name": "",
          "type": "address"
        }
      ],
      "stateMutability": "view",
      "type": "function"
    },
    {
      "inputs": [
        {
          "internalType": "bytes32",
          "name": "",
          "type": "bytes32"
        }
      ],
      "name": "commitments",
      "outputs": [
        {
          "internalType": "bool",
          "name": "used",
          "type": "bool"
        },
        {
          "internalType": "address",
          "name": "creator",
          "type": "address"
        },
        {
          "internalType": "address",
          "name": "recepient",
          "type": "address"
        },
        {
          "internalType": "bool",
          "name": "cashNote",
          "type": "bool"
        },
        {
          "internalType": "uint256",
          "name": "createdDate",
          "type": "uint256"
        },
        {
          "internalType": "uint256",
          "name": "spentDate",
          "type": "uint256"
        }
      ],
      "stateMutability": "view",
      "type": "function"
    },
    {
      "inputs": [],
      "name": "denomination",
      "outputs": [
        {
          "internalType": "uint256",
          "name": "",
          "type": "uint256"
        }
      ],
      "stateMutability": "view",
      "type": "function"
    },
    {
      "inputs": [
        {
          "internalType": "bytes32",
          "name": "_commitment",
          "type": "bytes32"
        },
        {
          "internalType": "bool",
          "name": "cashNote",
          "type": "bool"
        },
        {
          "internalType": "address",
          "name": "depositFor",
          "type": "address"
        }
      ],
      "name": "deposit",
      "outputs": [],
      "stateMutability": "payable",
      "type": "function"
    },
    {
      "inputs": [],
      "name": "fee",
      "outputs": [
        {
          "internalType": "uint256",
          "name": "",
          "type": "uint256"
        }
      ],
      "stateMutability": "view",
      "type": "function"
    },
    {
      "inputs": [
        {
          "internalType": "bytes32",
          "name": "_nullifierHash",
          "type": "bytes32"
        }
      ],
      "name": "isSpent",
      "outputs": [
        {
          "internalType": "bool",
          "name": "",
          "type": "bool"
        }
      ],
      "stateMutability": "view",
      "type": "function"
    },
    {
      "inputs": [
        {
          "internalType": "bytes32[]",
          "name": "_nullifierHashes",
          "type": "bytes32[]"
        }
      ],
      "name": "isSpentArray",
      "outputs": [
        {
          "internalType": "bool[]",
          "name": "spent",
          "type": "bool[]"
        }
      ],
      "stateMutability": "view",
      "type": "function"
    },
    {
      "inputs": [
        {
          "internalType": "bytes32",
          "name": "",
          "type": "bytes32"
        }
      ],
      "name": "nullifierHashes",
      "outputs": [
        {
          "internalType": "bool",
          "name": "",
          "type": "bool"
        }
      ],
      "stateMutability": "view",
      "type": "function"
    },
    {
      "inputs": [],
      "name": "relayer",
      "outputs": [
        {
          "internalType": "address",
          "name": "",
          "type": "address"
        }
      ],
      "stateMutability": "view",
      "type": "function"
    },
    {
      "inputs": [],
      "name": "token",
      "outputs": [
        {
          "internalType": "contract IERC20",
          "name": "",
          "type": "address"
        }
      ],
      "stateMutability": "view",
      "type": "function"
    },
    {
      "inputs": [],
      "name": "verifier",
      "outputs": [
        {
          "internalType": "contract IVerifier",
          "name": "",
          "type": "address"
        }
      ],
      "stateMutability": "view",
      "type": "function"
    },
    {
      "inputs": [
        {
          "internalType": "uint256[8]",
          "name": "_proof",
          "type": "uint256[8]"
        },
        {
          "internalType": "bytes32",
          "name": "_nullifierHash",
          "type": "bytes32"
        },
        {
          "internalType": "bytes32",
          "name": "_commitment",
          "type": "bytes32"
        },
        {
          "internalType": "address",
          "name": "_recepient",
          "type": "address"
        },
        {
          "internalType": "uint256",
          "name": "_change",
          "type": "uint256"
        }
      ],
      "name": "withdrawCashNote",
      "outputs": [],
      "stateMutability": "payable",
      "type": "function"
    },
    {
      "inputs": [
        {
          "internalType": "uint256[8]",
          "name": "_proof",
          "type": "uint256[8]"
        },
        {
          "internalType": "bytes32",
          "name": "_nullifierHash",
          "type": "bytes32"
        },
        {
          "internalType": "bytes32",
          "name": "_commitment",
          "type": "bytes32"
        },
        {
          "internalType": "address",
          "name": "_recepient",
          "type": "address"
        },
        {
          "internalType": "uint256",
          "name": "_change",
          "type": "uint256"
        }
      ],
      "name": "withdrawGiftCard",
      "outputs": [],
      "stateMutability": "nonpayable",
      "type": "function"
    }
  ],
  "bytecode": "0x60a06040523480156200001157600080fd5b506040516200309738038062003097833981810160405281019062000037919062000223565b8484848360016000819055506000831162000089576040517f08c379a00000000000000000000000000000000000000000000000000000000081526004016200008090620002cc565b60405180910390fd5b8373ffffffffffffffffffffffffffffffffffffffff1660808173ffffffffffffffffffffffffffffffffffffffff1660601b81525050826001819055508160ff1683620000d89190620002ff565b60048190555033600260006101000a81548173ffffffffffffffffffffffffffffffffffffffff021916908373ffffffffffffffffffffffffffffffffffffffff16021790555080600360006101000a81548173ffffffffffffffffffffffffffffffffffffffff021916908373ffffffffffffffffffffffffffffffffffffffff1602179055505050505081600760006101000a81548173ffffffffffffffffffffffffffffffffffffffff021916908373ffffffffffffffffffffffffffffffffffffffff1602179055505050505050620004aa565b600081519050620001c18162000428565b92915050565b600081519050620001d88162000442565b92915050565b600081519050620001ef816200045c565b92915050565b600081519050620002068162000476565b92915050565b6000815190506200021d8162000490565b92915050565b600080600080600060a086880312156200023c57600080fd5b60006200024c88828901620001de565b95505060206200025f88828901620001f5565b945050604062000272888289016200020c565b93505060606200028588828901620001c7565b92505060806200029888828901620001b0565b9150509295509295909350565b6000620002b4602583620002ee565b9150620002c182620003d9565b604082019050919050565b60006020820190508181036000830152620002e781620002a5565b9050919050565b600082825260208201905092915050565b60006200030c8262000393565b9150620003198362000393565b9250826200032c576200032b620003aa565b5b828204905092915050565b6000620003448262000373565b9050919050565b6000620003588262000337565b9050919050565b60006200036c8262000337565b9050919050565b600073ffffffffffffffffffffffffffffffffffffffff82169050919050565b6000819050919050565b600060ff82169050919050565b7f4e487b7100000000000000000000000000000000000000000000000000000000600052601260045260246000fd5b7f44656e6f6d696e6174696f6e2073686f756c642062652067726561746572207460008201527f68616e2030000000000000000000000000000000000000000000000000000000602082015250565b620004338162000337565b81146200043f57600080fd5b50565b6200044d816200034b565b81146200045957600080fd5b50565b62000467816200035f565b81146200047357600080fd5b50565b620004818162000393565b81146200048d57600080fd5b50565b6200049b816200039d565b8114620004a757600080fd5b50565b60805160601c612bc0620004d760003960008181610513015281816107120152610deb0152612bc06000f3fe6080604052600436106100c15760003560e01c806393f40b6c1161007f578063b2bdfa7b11610059578063b2bdfa7b14610264578063ddca3f431461028f578063e5285dcc146102ba578063fc0c546a146102f7576100c1565b806393f40b6c146101e25780639fa12d0b1461020b578063af120ffa14610248576100c1565b8062f5f984146100c657806317cc915c146100e25780632b7ac3f31461011f578063839df9451461014a5780638406c0791461018c5780638bca6d16146101b7575b600080fd5b6100e060048036038101906100db9190611c09565b610322565b005b3480156100ee57600080fd5b5061010960048036038101906101049190611be0565b6104f1565b604051610116919061229e565b60405180910390f35b34801561012b57600080fd5b50610134610511565b6040516101419190612335565b60405180910390f35b34801561015657600080fd5b50610171600480360381019061016c9190611be0565b610535565b604051610183969594939291906122b9565b60405180910390f35b34801561019857600080fd5b506101a16105cb565b6040516101ae919061214c565b60405180910390f35b3480156101c357600080fd5b506101cc6105f1565b6040516101d99190612532565b60405180910390f35b3480156101ee57600080fd5b5061020960048036038101906102049190611b3b565b6105f7565b005b34801561021757600080fd5b50610232600480360381019061022d9190611af6565b610b44565b60405161023f9190612235565b60405180910390f35b610262600480360381019061025d9190611b3b565b610c7d565b005b34801561027057600080fd5b506102796112c4565b6040516102869190612167565b60405180910390f35b34801561029b57600080fd5b506102a46112ea565b6040516102b19190612532565b60405180910390f35b3480156102c657600080fd5b506102e160048036038101906102dc9190611be0565b6112f0565b6040516102ee919061229e565b60405180910390f35b34801561030357600080fd5b5061030c61131a565b604051610319919061231a565b60405180910390f35b60026000541415610368576040517f08c379a000000000000000000000000000000000000000000000000000000000815260040161035f906124f2565b60405180910390fd5b60026000819055506006600084815260200190815260200160002060000160009054906101000a900460ff16156103d4576040517f08c379a00000000000000000000000000000000000000000000000000000000081526004016103cb90612452565b60405180910390fd5b60016006600085815260200190815260200160002060000160006101000a81548160ff021916908315150217905550806006600085815260200190815260200160002060000160016101000a81548173ffffffffffffffffffffffffffffffffffffffff021916908373ffffffffffffffffffffffffffffffffffffffff160217905550816006600085815260200190815260200160002060010160146101000a81548160ff0219169083151502179055504260066000858152602001908152602001600020600201819055506104aa81611340565b827f182fa52899142d44ff5c45a6354d3b3e868d5b07db6a65580b39bd321bdaf8ac82426040516104dc92919061220c565b60405180910390a26001600081905550505050565b60056020528060005260406000206000915054906101000a900460ff1681565b7f000000000000000000000000000000000000000000000000000000000000000081565b60066020528060005260406000206000915090508060000160009054906101000a900460ff16908060000160019054906101000a900473ffffffffffffffffffffffffffffffffffffffff16908060010160009054906101000a900473ffffffffffffffffffffffffffffffffffffffff16908060010160149054906101000a900460ff16908060020154908060030154905086565b600360009054906101000a900473ffffffffffffffffffffffffffffffffffffffff1681565b60015481565b6002600054141561063d576040517f08c379a0000000000000000000000000000000000000000000000000000000008152600401610634906124f2565b60405180910390fd5b60026000819055506005600085815260200190815260200160002060009054906101000a900460ff16156106a6576040517f08c379a000000000000000000000000000000000000000000000000000000000815260040161069d90612372565b60405180910390fd5b600015156006600085815260200190815260200160002060010160149054906101000a900460ff16151514610710576040517f08c379a0000000000000000000000000000000000000000000000000000000008152600401610707906124d2565b60405180910390fd5b7f000000000000000000000000000000000000000000000000000000000000000073ffffffffffffffffffffffffffffffffffffffff16635fe8c13b604051806040016040528088600060088110610791577f4e487b7100000000000000000000000000000000000000000000000000000000600052603260045260246000fd5b60200201358152602001886001600881106107d5577f4e487b7100000000000000000000000000000000000000000000000000000000600052603260045260246000fd5b6020020135815250604051806040016040528060405180604001604052808b60026008811061082d577f4e487b7100000000000000000000000000000000000000000000000000000000600052603260045260246000fd5b602002013581526020018b600360088110610871577f4e487b7100000000000000000000000000000000000000000000000000000000600052603260045260246000fd5b6020020135815250815260200160405180604001604052808b6004600881106108c3577f4e487b7100000000000000000000000000000000000000000000000000000000600052603260045260246000fd5b602002013581526020018b600560088110610907577f4e487b7100000000000000000000000000000000000000000000000000000000600052603260045260246000fd5b602002013581525081525060405180604001604052808a600660088110610957577f4e487b7100000000000000000000000000000000000000000000000000000000600052603260045260246000fd5b602002013581526020018a60076008811061099b577f4e487b7100000000000000000000000000000000000000000000000000000000600052603260045260246000fd5b602002013581525060405180608001604052808a60001c81526020018960001c81526020018873ffffffffffffffffffffffffffffffffffffffff168152602001878152506040518563ffffffff1660e01b81526004016109ff9493929190612257565b602060405180830381600087803b158015610a1957600080fd5b505af1158015610a2d573d6000803e3d6000fd5b505050506040513d601f19601f82011682018060405250810190610a519190611bb7565b610a90576040517f08c379a0000000000000000000000000000000000000000000000000000000008152600401610a87906123b2565b60405180910390fd5b60016005600086815260200190815260200160002060006101000a81548160ff021916908315150217905550816006600085815260200190815260200160002060010160006101000a81548173ffffffffffffffffffffffffffffffffffffffff021916908373ffffffffffffffffffffffffffffffffffffffff160217905550426006600085815260200190815260200160002060030181905550610b3582611587565b60016000819055505050505050565b60608282905067ffffffffffffffff811115610b89577f4e487b7100000000000000000000000000000000000000000000000000000000600052604160045260246000fd5b604051908082528060200260200182016040528015610bb75781602001602082028036833780820191505090505b50905060005b83839050811015610c7657610c10848483818110610c04577f4e487b7100000000000000000000000000000000000000000000000000000000600052603260045260246000fd5b905060200201356112f0565b15610c63576001828281518110610c50577f4e487b7100000000000000000000000000000000000000000000000000000000600052603260045260246000fd5b6020026020010190151590811515815250505b8080610c6e9061275d565b915050610bbd565b5092915050565b6005600085815260200190815260200160002060009054906101000a900460ff1615610cde576040517f08c379a0000000000000000000000000000000000000000000000000000000008152600401610cd5906123f2565b60405180910390fd5b600115156006600085815260200190815260200160002060010160149054906101000a900460ff16151514610d48576040517f08c379a0000000000000000000000000000000000000000000000000000000008152600401610d3f90612512565b60405180910390fd5b600154811115610d8d576040517f08c379a0000000000000000000000000000000000000000000000000000000008152600401610d8490612412565b60405180910390fd5b6000610da4826001546115d990919063ffffffff16565b905060008111610de9576040517f08c379a0000000000000000000000000000000000000000000000000000000008152600401610de090612432565b60405180910390fd5b7f000000000000000000000000000000000000000000000000000000000000000073ffffffffffffffffffffffffffffffffffffffff16635fe8c13b604051806040016040528089600060088110610e6a577f4e487b7100000000000000000000000000000000000000000000000000000000600052603260045260246000fd5b6020020135815260200189600160088110610eae577f4e487b7100000000000000000000000000000000000000000000000000000000600052603260045260246000fd5b6020020135815250604051806040016040528060405180604001604052808c600260088110610f06577f4e487b7100000000000000000000000000000000000000000000000000000000600052603260045260246000fd5b602002013581526020018c600360088110610f4a577f4e487b7100000000000000000000000000000000000000000000000000000000600052603260045260246000fd5b6020020135815250815260200160405180604001604052808c600460088110610f9c577f4e487b7100000000000000000000000000000000000000000000000000000000600052603260045260246000fd5b602002013581526020018c600560088110610fe0577f4e487b7100000000000000000000000000000000000000000000000000000000600052603260045260246000fd5b602002013581525081525060405180604001604052808b600660088110611030577f4e487b7100000000000000000000000000000000000000000000000000000000600052603260045260246000fd5b602002013581526020018b600760088110611074577f4e487b7100000000000000000000000000000000000000000000000000000000600052603260045260246000fd5b602002013581525060405180608001604052808b60001c81526020018a60001c81526020018973ffffffffffffffffffffffffffffffffffffffff168152602001888152506040518563ffffffff1660e01b81526004016110d89493929190612257565b602060405180830381600087803b1580156110f257600080fd5b505af1158015611106573d6000803e3d6000fd5b505050506040513d601f19601f8201168201806040525081019061112a9190611bb7565b611169576040517f08c379a0000000000000000000000000000000000000000000000000000000008152600401611160906123b2565b60405180910390fd5b60016005600087815260200190815260200160002060006101000a81548160ff021916908315150217905550826006600086815260200190815260200160002060010160006101000a81548173ffffffffffffffffffffffffffffffffffffffff021916908373ffffffffffffffffffffffffffffffffffffffff160217905550426006600086815260200190815260200160002060030181905550611247836006600087815260200190815260200160002060000160019054906101000a900473ffffffffffffffffffffffffffffffffffffffff1683856115ef565b7f253abeab19dd586b46f06c3da05002a8e2360aa8b1f9c44bfeaad3ed52e185096006600086815260200190815260200160002060000160019054906101000a900473ffffffffffffffffffffffffffffffffffffffff16848784866040516112b4959493929190612182565b60405180910390a1505050505050565b600260009054906101000a900473ffffffffffffffffffffffffffffffffffffffff1681565b60045481565b60006005600083815260200190815260200160002060009054906101000a900460ff169050919050565b600760009054906101000a900473ffffffffffffffffffffffffffffffffffffffff1681565b60003414611383576040517f08c379a000000000000000000000000000000000000000000000000000000000815260040161137a90612472565b60405180910390fd5b600360009054906101000a900473ffffffffffffffffffffffffffffffffffffffff1673ffffffffffffffffffffffffffffffffffffffff163373ffffffffffffffffffffffffffffffffffffffff1614156114515761144c600360009054906101000a900473ffffffffffffffffffffffffffffffffffffffff1630600154600760009054906101000a900473ffffffffffffffffffffffffffffffffffffffff1673ffffffffffffffffffffffffffffffffffffffff16611699909392919063ffffffff16565b611584565b8073ffffffffffffffffffffffffffffffffffffffff163373ffffffffffffffffffffffffffffffffffffffff16146114bf576040517f08c379a00000000000000000000000000000000000000000000000000000000081526004016114b690612392565b60405180910390fd5b6115103330600154600760009054906101000a900473ffffffffffffffffffffffffffffffffffffffff1673ffffffffffffffffffffffffffffffffffffffff16611699909392919063ffffffff16565b61158333600260009054906101000a900473ffffffffffffffffffffffffffffffffffffffff16600454600760009054906101000a900473ffffffffffffffffffffffffffffffffffffffff1673ffffffffffffffffffffffffffffffffffffffff16611699909392919063ffffffff16565b5b50565b6115d681600154600760009054906101000a900473ffffffffffffffffffffffffffffffffffffffff1673ffffffffffffffffffffffffffffffffffffffff166117229092919063ffffffff16565b50565b600081836115e7919061264a565b905092915050565b61163c8483600760009054906101000a900473ffffffffffffffffffffffffffffffffffffffff1673ffffffffffffffffffffffffffffffffffffffff166117229092919063ffffffff16565b6000811115611693576116928382600760009054906101000a900473ffffffffffffffffffffffffffffffffffffffff1673ffffffffffffffffffffffffffffffffffffffff166117229092919063ffffffff16565b5b50505050565b61171c846323b872dd60e01b8585856040516024016116ba939291906121d5565b604051602081830303815290604052907bffffffffffffffffffffffffffffffffffffffffffffffffffffffff19166020820180517bffffffffffffffffffffffffffffffffffffffffffffffffffffffff83818316178352505050506117a8565b50505050565b6117a38363a9059cbb60e01b848460405160240161174192919061220c565b604051602081830303815290604052907bffffffffffffffffffffffffffffffffffffffffffffffffffffffff19166020820180517bffffffffffffffffffffffffffffffffffffffffffffffffffffffff83818316178352505050506117a8565b505050565b600061180a826040518060400160405280602081526020017f5361666545524332303a206c6f772d6c6576656c2063616c6c206661696c65648152508573ffffffffffffffffffffffffffffffffffffffff1661186f9092919063ffffffff16565b905060008151111561186a578080602001905181019061182a9190611bb7565b611869576040517f08c379a0000000000000000000000000000000000000000000000000000000008152600401611860906124b2565b60405180910390fd5b5b505050565b606061187e8484600085611887565b90509392505050565b6060824710156118cc576040517f08c379a00000000000000000000000000000000000000000000000000000000081526004016118c3906123d2565b60405180910390fd5b6118d58561199b565b611914576040517f08c379a000000000000000000000000000000000000000000000000000000000815260040161190b90612492565b60405180910390fd5b6000808673ffffffffffffffffffffffffffffffffffffffff16858760405161193d9190612135565b60006040518083038185875af1925050503d806000811461197a576040519150601f19603f3d011682016040523d82523d6000602084013e61197f565b606091505b509150915061198f8282866119be565b92505050949350505050565b6000808273ffffffffffffffffffffffffffffffffffffffff163b119050919050565b606083156119ce57829050611a1e565b6000835111156119e15782518084602001fd5b816040517f08c379a0000000000000000000000000000000000000000000000000000000008152600401611a159190612350565b60405180910390fd5b9392505050565b600081359050611a3481612b2e565b92915050565b60008083601f840112611a4c57600080fd5b8235905067ffffffffffffffff811115611a6557600080fd5b602083019150836020820283011115611a7d57600080fd5b9250929050565b600081905082602060080282011115611a9c57600080fd5b92915050565b600081359050611ab181612b45565b92915050565b600081519050611ac681612b45565b92915050565b600081359050611adb81612b5c565b92915050565b600081359050611af081612b73565b92915050565b60008060208385031215611b0957600080fd5b600083013567ffffffffffffffff811115611b2357600080fd5b611b2f85828601611a3a565b92509250509250929050565b60008060008060006101808688031215611b5457600080fd5b6000611b6288828901611a84565b955050610100611b7488828901611acc565b945050610120611b8688828901611acc565b935050610140611b9888828901611a25565b925050610160611baa88828901611ae1565b9150509295509295909350565b600060208284031215611bc957600080fd5b6000611bd784828501611ab7565b91505092915050565b600060208284031215611bf257600080fd5b6000611c0084828501611acc565b91505092915050565b600080600060608486031215611c1e57600080fd5b6000611c2c86828701611acc565b9350506020611c3d86828701611aa2565b9250506040611c4e86828701611a25565b9150509250925092565b6000611c648383611d73565b60408301905092915050565b6000611c7c8383611e78565b60208301905092915050565b6000611c948383612117565b60208301905092915050565b611ca981612690565b82525050565b611cb88161267e565b82525050565b611cc78161257b565b611cd181846125f1565b9250611cdc8261254d565b8060005b83811015611d0d578151611cf48782611c58565b9650611cff836125bd565b925050600181019050611ce0565b505050505050565b6000611d2082612586565b611d2a81856125fc565b9350611d3583612557565b8060005b83811015611d66578151611d4d8882611c70565b9750611d58836125ca565b925050600181019050611d39565b5085935050505092915050565b611d7c81612591565b611d86818461260d565b9250611d9182612567565b8060005b83811015611dc2578151611da98782611c88565b9650611db4836125d7565b925050600181019050611d95565b505050505050565b611dd381612591565b611ddd8184612618565b9250611de882612567565b8060005b83811015611e19578151611e008782611c88565b9650611e0b836125d7565b925050600181019050611dec565b505050505050565b611e2a8161259c565b611e348184612623565b9250611e3f82612571565b8060005b83811015611e70578151611e578782611c88565b9650611e62836125e4565b925050600181019050611e43565b505050505050565b611e81816126a2565b82525050565b611e90816126a2565b82525050565b611e9f816126ae565b82525050565b6000611eb0826125a7565b611eba818561262e565b9350611eca81856020860161272a565b80840191505092915050565b611edf816126e2565b82525050565b611eee81612706565b82525050565b6000611eff826125b2565b611f098185612639565b9350611f1981856020860161272a565b611f22816127d5565b840191505092915050565b6000611f3a602383612639565b9150611f45826127e6565b604082019050919050565b6000611f5d601e83612639565b9150611f6882612835565b602082019050919050565b6000611f80601683612639565b9150611f8b8261285e565b602082019050919050565b6000611fa3602683612639565b9150611fae82612887565b604082019050919050565b6000611fc6601f83612639565b9150611fd1826128d6565b602082019050919050565b6000611fe9602183612639565b9150611ff4826128ff565b604082019050919050565b600061200c601f83612639565b91506120178261294e565b602082019050919050565b600061202f602183612639565b915061203a82612977565b604082019050919050565b6000612052603083612639565b915061205d826129c6565b604082019050919050565b6000612075601d83612639565b915061208082612a15565b602082019050919050565b6000612098602a83612639565b91506120a382612a3e565b604082019050919050565b60006120bb602183612639565b91506120c682612a8d565b604082019050919050565b60006120de601f83612639565b91506120e982612adc565b602082019050919050565b6000612101601e83612639565b915061210c82612b05565b602082019050919050565b612120816126d8565b82525050565b61212f816126d8565b82525050565b60006121418284611ea5565b915081905092915050565b60006020820190506121616000830184611caf565b92915050565b600060208201905061217c6000830184611ca0565b92915050565b600060a0820190506121976000830188611caf565b6121a46020830187611caf565b6121b16040830186611e96565b6121be6060830185612126565b6121cb6080830184612126565b9695505050505050565b60006060820190506121ea6000830186611caf565b6121f76020830185611caf565b6122046040830184612126565b949350505050565b60006040820190506122216000830185611caf565b61222e6020830184612126565b9392505050565b6000602082019050818103600083015261224f8184611d15565b905092915050565b60006101808201905061226d6000830187611dca565b61227a6040830186611cbe565b61228760c0830185611dca565b612295610100830184611e21565b95945050505050565b60006020820190506122b36000830184611e87565b92915050565b600060c0820190506122ce6000830189611e87565b6122db6020830188611caf565b6122e86040830187611caf565b6122f56060830186611e87565b6123026080830185612126565b61230f60a0830184612126565b979650505050505050565b600060208201905061232f6000830184611ed6565b92915050565b600060208201905061234a6000830184611ee5565b92915050565b6000602082019050818103600083015261236a8184611ef4565b905092915050565b6000602082019050818103600083015261238b81611f2d565b9050919050565b600060208201905081810360008301526123ab81611f50565b9050919050565b600060208201905081810360008301526123cb81611f73565b9050919050565b600060208201905081810360008301526123eb81611f96565b9050919050565b6000602082019050818103600083015261240b81611fb9565b9050919050565b6000602082019050818103600083015261242b81611fdc565b9050919050565b6000602082019050818103600083015261244b81611fff565b9050919050565b6000602082019050818103600083015261246b81612022565b9050919050565b6000602082019050818103600083015261248b81612045565b9050919050565b600060208201905081810360008301526124ab81612068565b9050919050565b600060208201905081810360008301526124cb8161208b565b9050919050565b600060208201905081810360008301526124eb816120ae565b9050919050565b6000602082019050818103600083015261250b816120d1565b9050919050565b6000602082019050818103600083015261252b816120f4565b9050919050565b60006020820190506125476000830184612126565b92915050565b6000819050919050565b6000819050602082019050919050565b6000819050919050565b6000819050919050565b600060029050919050565b600081519050919050565b600060029050919050565b600060049050919050565b600081519050919050565b600081519050919050565b6000602082019050919050565b6000602082019050919050565b6000602082019050919050565b6000602082019050919050565b600081905092915050565b600082825260208201905092915050565b600081905092915050565b600081905092915050565b600081905092915050565b600081905092915050565b600082825260208201905092915050565b6000612655826126d8565b9150612660836126d8565b925082821015612673576126726127a6565b5b828203905092915050565b6000612689826126b8565b9050919050565b600061269b826126b8565b9050919050565b60008115159050919050565b6000819050919050565b600073ffffffffffffffffffffffffffffffffffffffff82169050919050565b6000819050919050565b60006126ed826126f4565b9050919050565b60006126ff826126b8565b9050919050565b600061271182612718565b9050919050565b6000612723826126b8565b9050919050565b60005b8381101561274857808201518184015260208101905061272d565b83811115612757576000848401525b50505050565b6000612768826126d8565b91507fffffffffffffffffffffffffffffffffffffffffffffffffffffffffffffffff82141561279b5761279a6127a6565b5b600182019050919050565b7f4e487b7100000000000000000000000000000000000000000000000000000000600052601160045260246000fd5b6000601f19601f8301169050919050565b7f5468652067696674636172642068617320616c7265616479206265656e20737060008201527f656e740000000000000000000000000000000000000000000000000000000000602082015250565b7f596f75206d757374206465706f73697420666f7220796f757273656c66210000600082015250565b7f496e76616c69642057697468647261772070726f6f6600000000000000000000600082015250565b7f416464726573733a20696e73756666696369656e742062616c616e636520666f60008201527f722063616c6c0000000000000000000000000000000000000000000000000000602082015250565b7f546865206e6f74652068617320616c7265616479206265656e207370656e7400600082015250565b7f54686520726571756573746564206368616e676520697320746f6f206869676860008201527f2100000000000000000000000000000000000000000000000000000000000000602082015250565b7f30205072696365205061796d656e74206973206e6f7420616c6c6f7765642100600082015250565b7f54686520636f6d6d69746d656e7420686173206265656e207375626d6974746560008201527f6400000000000000000000000000000000000000000000000000000000000000602082015250565b7f4554482076616c756520697320737570706f73656420746f206265203020666f60008201527f7220455243323020696e7374616e636500000000000000000000000000000000602082015250565b7f416464726573733a2063616c6c20746f206e6f6e2d636f6e7472616374000000600082015250565b7f5361666545524332303a204552433230206f7065726174696f6e20646964206e60008201527f6f74207375636365656400000000000000000000000000000000000000000000602082015250565b7f596f752063616e206f6e6c79207769746864726177206769667420636172647360008201527f2e00000000000000000000000000000000000000000000000000000000000000602082015250565b7f5265656e7472616e637947756172643a207265656e7472616e742063616c6c00600082015250565b7f596f752063616e206f6e6c79207370656e642043617368206e6f7465732e0000600082015250565b612b378161267e565b8114612b4257600080fd5b50565b612b4e816126a2565b8114612b5957600080fd5b50565b612b65816126ae565b8114612b7057600080fd5b50565b612b7c816126d8565b8114612b8757600080fd5b5056fea26469706673582212209657ca438e671f5f2d737b90c52bf7232b08c2ac222556e7c8177ced568d1d9564736f6c63430008040033",
  "linkReferences": {},
  "deployedLinkReferences": {}
}