{
  "_format": "hh-sol-artifact-1",
  "contractName": "ERC20Notes",
  "sourceName": "contracts/ERC20Notes.sol",
  "abi": [
    {
      "inputs": [
        {
          "internalType": "contract IVerifier",
          "name": "_verifier",
          "type": "address"
        },
        {
          "internalType": "uint256",
          "name": "_denomination",
          "type": "uint256"
        },
        {
          "internalType": "uint8",
          "name": "_feeDivider",
          "type": "uint8"
        },
        {
          "internalType": "contract IERC20",
          "name": "_token",
          "type": "address"
        },
        {
          "internalType": "address",
          "name": "_relayer",
          "type": "address"
        }
      ],
      "stateMutability": "nonpayable",
      "type": "constructor"
    },
    {
      "anonymous": false,
      "inputs": [
        {
          "indexed": true,
          "internalType": "bytes32",
          "name": "commitment",
          "type": "bytes32"
        },
        {
          "indexed": false,
          "internalType": "address",
          "name": "depositedBy",
          "type": "address"
        },
        {
          "indexed": false,
          "internalType": "uint256",
          "name": "timestamp",
          "type": "uint256"
        }
      ],
      "name": "Deposit",
      "type": "event"
    },
    {
      "anonymous": false,
      "inputs": [
        {
          "indexed": false,
          "internalType": "address",
          "name": "from",
          "type": "address"
        },
        {
          "indexed": false,
          "internalType": "address",
          "name": "to",
          "type": "address"
        },
        {
          "indexed": false,
          "internalType": "bytes32",
          "name": "nullifierHashes",
          "type": "bytes32"
        },
        {
          "indexed": false,
          "internalType": "uint256",
          "name": "price",
          "type": "uint256"
        },
        {
          "indexed": false,
          "internalType": "uint256",
          "name": "change",
          "type": "uint256"
        }
      ],
      "name": "WithdrawCashNote",
      "type": "event"
    },
    {
      "anonymous": false,
      "inputs": [
        {
          "indexed": false,
          "internalType": "address",
          "name": "from",
          "type": "address"
        },
        {
          "indexed": false,
          "internalType": "address",
          "name": "to",
          "type": "address"
        },
        {
          "indexed": false,
          "internalType": "bytes32",
          "name": "nullifierHash",
          "type": "bytes32"
        },
        {
          "indexed": false,
          "internalType": "uint256",
          "name": "fee",
          "type": "uint256"
        }
      ],
      "name": "WithdrawGiftCard",
      "type": "event"
    },
    {
      "inputs": [],
      "name": "NOTE_TYPE",
      "outputs": [
        {
          "internalType": "string",
          "name": "",
          "type": "string"
        }
      ],
      "stateMutability": "view",
      "type": "function"
    },
    {
      "inputs": [],
      "name": "_owner",
      "outputs": [
        {
          "internalType": "address payable",
          "name": "",
          "type": "address"
        }
      ],
      "stateMutability": "view",
      "type": "function"
    },
    {
      "inputs": [
        {
          "internalType": "bytes32",
          "name": "",
          "type": "bytes32"
        }
      ],
      "name": "commitments",
      "outputs": [
        {
          "internalType": "bool",
          "name": "used",
          "type": "bool"
        },
        {
          "internalType": "address",
          "name": "creator",
          "type": "address"
        },
        {
          "internalType": "address",
          "name": "recipient",
          "type": "address"
        },
        {
          "internalType": "bool",
          "name": "cashNote",
          "type": "bool"
        },
        {
          "internalType": "uint256",
          "name": "createdDate",
          "type": "uint256"
        },
        {
          "internalType": "uint256",
          "name": "spentDate",
          "type": "uint256"
        }
      ],
      "stateMutability": "view",
      "type": "function"
    },
    {
      "inputs": [],
      "name": "denomination",
      "outputs": [
        {
          "internalType": "uint256",
          "name": "",
          "type": "uint256"
        }
      ],
      "stateMutability": "view",
      "type": "function"
    },
    {
      "inputs": [
        {
          "internalType": "bytes32",
          "name": "_commitment",
          "type": "bytes32"
        },
        {
          "internalType": "bool",
          "name": "cashNote",
          "type": "bool"
        },
        {
          "internalType": "address",
          "name": "depositFor",
          "type": "address"
        }
      ],
      "name": "deposit",
      "outputs": [],
      "stateMutability": "payable",
      "type": "function"
    },
    {
      "inputs": [],
      "name": "fee",
      "outputs": [
        {
          "internalType": "uint256",
          "name": "",
          "type": "uint256"
        }
      ],
      "stateMutability": "view",
      "type": "function"
    },
    {
      "inputs": [
        {
          "internalType": "bytes32",
          "name": "_nullifierHash",
          "type": "bytes32"
        }
      ],
      "name": "isSpent",
      "outputs": [
        {
          "internalType": "bool",
          "name": "",
          "type": "bool"
        }
      ],
      "stateMutability": "view",
      "type": "function"
    },
    {
      "inputs": [
        {
          "internalType": "bytes32[]",
          "name": "_nullifierHashes",
          "type": "bytes32[]"
        }
      ],
      "name": "isSpentArray",
      "outputs": [
        {
          "internalType": "bool[]",
          "name": "spent",
          "type": "bool[]"
        }
      ],
      "stateMutability": "view",
      "type": "function"
    },
    {
      "inputs": [
        {
          "internalType": "bytes32",
          "name": "",
          "type": "bytes32"
        }
      ],
      "name": "nullifierHashes",
      "outputs": [
        {
          "internalType": "bool",
          "name": "",
          "type": "bool"
        }
      ],
      "stateMutability": "view",
      "type": "function"
    },
    {
      "inputs": [],
      "name": "relayer",
      "outputs": [
        {
          "internalType": "address",
          "name": "",
          "type": "address"
        }
      ],
      "stateMutability": "view",
      "type": "function"
    },
    {
      "inputs": [],
      "name": "token",
      "outputs": [
        {
          "internalType": "contract IERC20",
          "name": "",
          "type": "address"
        }
      ],
      "stateMutability": "view",
      "type": "function"
    },
    {
      "inputs": [],
      "name": "verifier",
      "outputs": [
        {
          "internalType": "contract IVerifier",
          "name": "",
          "type": "address"
        }
      ],
      "stateMutability": "view",
      "type": "function"
    },
    {
      "inputs": [
        {
          "internalType": "uint256[8]",
          "name": "_proof",
          "type": "uint256[8]"
        },
        {
          "internalType": "bytes32",
          "name": "_nullifierHash",
          "type": "bytes32"
        },
        {
          "internalType": "bytes32",
          "name": "_commitment",
          "type": "bytes32"
        },
        {
          "internalType": "address",
          "name": "_recipient",
          "type": "address"
        },
        {
          "internalType": "uint256",
          "name": "_change",
          "type": "uint256"
        }
      ],
      "name": "withdrawCashNote",
      "outputs": [],
      "stateMutability": "payable",
      "type": "function"
    },
    {
      "inputs": [
        {
          "internalType": "uint256[8]",
          "name": "_proof",
          "type": "uint256[8]"
        },
        {
          "internalType": "bytes32",
          "name": "_nullifierHash",
          "type": "bytes32"
        },
        {
          "internalType": "bytes32",
          "name": "_commitment",
          "type": "bytes32"
        },
        {
          "internalType": "address",
          "name": "_recipient",
          "type": "address"
        },
        {
          "internalType": "uint256",
          "name": "_change",
          "type": "uint256"
        }
      ],
      "name": "withdrawGiftCard",
      "outputs": [],
      "stateMutability": "nonpayable",
      "type": "function"
    }
  ],
  "bytecode": "0x60a06040523480156200001157600080fd5b5060405162001a0c38038062001a0c83398101604081905262000034916200010f565b600160005584848483826200009d5760405162461bcd60e51b815260206004820152602560248201527f44656e6f6d696e6174696f6e2073686f756c6420626520677265617465722074604482015264068616e20360dc1b606482015260840160405180910390fd5b6001600160601b0319606085901b166080526001839055620000c360ff83168462000186565b600455600280546001600160a01b03199081163317909155600380546001600160a01b03938416908316179055600780549790921696169590951790945550620001c095505050505050565b600080600080600060a0868803121562000127578081fd5b85516200013481620001a7565b60208701516040880151919650945060ff8116811462000152578182fd5b60608701519093506200016581620001a7565b60808701519092506200017881620001a7565b809150509295509295909350565b600082620001a257634e487b7160e01b81526012600452602481fd5b500490565b6001600160a01b0381168114620001bd57600080fd5b50565b60805160601c61181f620001ed6000396000818161014d015281816106cf0152610c73015261181f6000f3fe6080604052600436106100dc5760003560e01c806393f40b6c1161007f578063b2bdfa7b11610059578063b2bdfa7b14610321578063ddca3f4314610341578063e5285dcc14610357578063fc0c546a1461038757600080fd5b806393f40b6c146102c15780639fa12d0b146102e1578063af120ffa1461030e57600080fd5b806346b99ce6116100bb57806346b99ce614610187578063839df945146101dd5780638406c0791461027d5780638bca6d161461029d57600080fd5b8062f5f984146100e157806317cc915c146100f65780632b7ac3f31461013b575b600080fd5b6100f46100ef3660046115ee565b6103a7565b005b34801561010257600080fd5b506101266101113660046115d6565b60056020526000908152604090205460ff1681565b60405190151581526020015b60405180910390f35b34801561014757600080fd5b5061016f7f000000000000000000000000000000000000000000000000000000000000000081565b6040516001600160a01b039091168152602001610132565b34801561019357600080fd5b506101d06040518060400160405280600581526020017f455243323000000000000000000000000000000000000000000000000000000081525081565b6040516101329190611734565b3480156101e957600080fd5b506102406101f83660046115d6565b600660205260009081526040902080546001820154600283015460039093015460ff808416946001600160a01b03610100909504851694841693600160a01b90049091169186565b6040805196151587526001600160a01b039586166020880152939094169285019290925215156060840152608083015260a082015260c001610132565b34801561028957600080fd5b5060035461016f906001600160a01b031681565b3480156102a957600080fd5b506102b360015481565b604051908152602001610132565b3480156102cd57600080fd5b506100f46102dc366004611564565b610561565b3480156102ed57600080fd5b506103016102fc3660046114f4565b610983565b604051610132919061166a565b6100f461031c366004611564565b610a73565b34801561032d57600080fd5b5060025461016f906001600160a01b031681565b34801561034d57600080fd5b506102b360045481565b34801561036357600080fd5b506101266103723660046115d6565b60009081526005602052604090205460ff1690565b34801561039357600080fd5b5060075461016f906001600160a01b031681565b600260005414156103ff5760405162461bcd60e51b815260206004820152601f60248201527f5265656e7472616e637947756172643a207265656e7472616e742063616c6c0060448201526064015b60405180910390fd5b600260009081558381526006602052604090205460ff16156104895760405162461bcd60e51b815260206004820152602160248201527f54686520636f6d6d69746d656e7420686173206265656e207375626d6974746560448201527f640000000000000000000000000000000000000000000000000000000000000060648201526084016103f6565b6000838152600660205260409020805460017fffffffffffffffffffffff0000000000000000000000000000000000000000009091166101006001600160a01b038516021781178255810180547fffffffffffffffffffffff00ffffffffffffffffffffffffffffffffffffffff16600160a01b851515021790554260029091015561051481610faa565b604080516001600160a01b038316815242602082015284917f182fa52899142d44ff5c45a6354d3b3e868d5b07db6a65580b39bd321bdaf8ac910160405180910390a25050600160005550565b600260005414156105b45760405162461bcd60e51b815260206004820152601f60248201527f5265656e7472616e637947756172643a207265656e7472616e742063616c6c0060448201526064016103f6565b600260009081558481526005602052604090205460ff161561063e5760405162461bcd60e51b815260206004820152602360248201527f5468652067696674636172642068617320616c7265616479206265656e20737060448201527f656e74000000000000000000000000000000000000000000000000000000000060648201526084016103f6565b600083815260066020526040902060010154600160a01b900460ff16156106cd5760405162461bcd60e51b815260206004820152602160248201527f596f752063616e206f6e6c79207769746864726177206769667420636172647360448201527f2e0000000000000000000000000000000000000000000000000000000000000060648201526084016103f6565b7f00000000000000000000000000000000000000000000000000000000000000006001600160a01b0316635fe8c13b60405180604001604052808860006008811061072857634e487b7160e01b600052603260045260246000fd5b602002013581526020018860016008811061075357634e487b7160e01b600052603260045260246000fd5b602002013590526040805160808101825289820135918101918252908190606082018b60036020020135815250815260200160405180604001604052808b6004600881106107b157634e487b7160e01b600052603260045260246000fd5b602002013581526020018b6005600881106107dc57634e487b7160e01b600052603260045260246000fd5b60200201359052905260408051808201909152808a6006602002013581526020018a60076008811061081e57634e487b7160e01b600052603260045260246000fd5b602002013581525060405180608001604052808a60001c81526020018960001c8152602001886001600160a01b03168152602001878152506040518563ffffffff1660e01b815260040161087594939291906116b0565b602060405180830381600087803b15801561088f57600080fd5b505af11580156108a3573d6000803e3d6000fd5b505050506040513d601f19601f820116820180604052508101906108c791906115ba565b6109135760405162461bcd60e51b815260206004820152601660248201527f496e76616c69642057697468647261772070726f6f660000000000000000000060448201526064016103f6565b60008481526005602090815260408083208054600160ff1990911681179091558684526006909252909120908101805473ffffffffffffffffffffffffffffffffffffffff19166001600160a01b03851617905542600390910155610977826110f2565b50506001600055505050565b60608167ffffffffffffffff8111156109ac57634e487b7160e01b600052604160045260246000fd5b6040519080825280602002602001820160405280156109d5578160200160208202803683370190505b50905060005b82811015610a6c57610a22848483818110610a0657634e487b7160e01b600052603260045260246000fd5b9050602002013560009081526005602052604090205460ff1690565b15610a5a576001828281518110610a4957634e487b7160e01b600052603260045260246000fd5b911515602092830291909101909101525b80610a64816117aa565b9150506109db565b5092915050565b60026000541415610ac65760405162461bcd60e51b815260206004820152601f60248201527f5265656e7472616e637947756172643a207265656e7472616e742063616c6c0060448201526064016103f6565b600260009081558481526005602052604090205460ff1615610b2a5760405162461bcd60e51b815260206004820152601f60248201527f546865206e6f74652068617320616c7265616479206265656e207370656e740060448201526064016103f6565b6000838152600660205260409020600190810154600160a01b900460ff16151514610b975760405162461bcd60e51b815260206004820152601e60248201527f596f752063616e206f6e6c79207370656e642043617368206e6f7465732e000060448201526064016103f6565b600154811115610c0f5760405162461bcd60e51b815260206004820152602160248201527f54686520726571756573746564206368616e676520697320746f6f206869676860448201527f210000000000000000000000000000000000000000000000000000000000000060648201526084016103f6565b600154600090610c1f908361110f565b905060008111610c715760405162461bcd60e51b815260206004820152601f60248201527f30205072696365205061796d656e74206973206e6f7420616c6c6f776564210060448201526064016103f6565b7f00000000000000000000000000000000000000000000000000000000000000006001600160a01b0316635fe8c13b604051806040016040528089600060088110610ccc57634e487b7160e01b600052603260045260246000fd5b6020020135815260200189600160088110610cf757634e487b7160e01b600052603260045260246000fd5b60200201359052604080516080810182528a820135918101918252908190606082018c60036020020135815250815260200160405180604001604052808c600460088110610d5557634e487b7160e01b600052603260045260246000fd5b602002013581526020018c600560088110610d8057634e487b7160e01b600052603260045260246000fd5b60200201359052905260408051808201909152808b6006602002013581526020018b600760088110610dc257634e487b7160e01b600052603260045260246000fd5b602002013581525060405180608001604052808b60001c81526020018a60001c8152602001896001600160a01b03168152602001888152506040518563ffffffff1660e01b8152600401610e1994939291906116b0565b602060405180830381600087803b158015610e3357600080fd5b505af1158015610e47573d6000803e3d6000fd5b505050506040513d601f19601f82011682018060405250810190610e6b91906115ba565b610eb75760405162461bcd60e51b815260206004820152601660248201527f496e76616c69642057697468647261772070726f6f660000000000000000000060448201526064016103f6565b60008581526005602090815260408083208054600160ff1990911681179091558784526006909252909120908101805473ffffffffffffffffffffffffffffffffffffffff19166001600160a01b03868116919091179091554260038301559054610f2b9185916101009004168385611122565b6000848152600660209081526040918290205482516101009091046001600160a01b03908116825286169181019190915290810186905260608101829052608081018390527f253abeab19dd586b46f06c3da05002a8e2360aa8b1f9c44bfeaad3ed52e185099060a00160405180910390a15050600160005550505050565b341561101e5760405162461bcd60e51b815260206004820152603060248201527f4554482076616c756520697320737570706f73656420746f206265203020666f60448201527f7220455243323020696e7374616e63650000000000000000000000000000000060648201526084016103f6565b6003546001600160a01b031633141561105757600354600154600754611054926001600160a01b0391821692911690309061115c565b50565b336001600160a01b038216146110af5760405162461bcd60e51b815260206004820152601e60248201527f596f75206d757374206465706f73697420666f7220796f757273656c6621000060448201526064016103f6565b6001546007546110ce916001600160a01b03909116903390309061115c565b600254600454600754611054926001600160a01b039182169233929091169061115c565b600154600754611054916001600160a01b0390911690839061120d565b600061111b8284611767565b9392505050565b600754611139906001600160a01b0316858461120d565b801561115657600754611156906001600160a01b0316848361120d565b50505050565b6040516001600160a01b03808516602483015283166044820152606481018290526111569085907f23b872dd00000000000000000000000000000000000000000000000000000000906084015b60408051601f198184030181529190526020810180517bffffffffffffffffffffffffffffffffffffffffffffffffffffffff167fffffffff000000000000000000000000000000000000000000000000000000009093169290921790915261125b565b6040516001600160a01b0383166024820152604481018290526112569084907fa9059cbb00000000000000000000000000000000000000000000000000000000906064016111a9565b505050565b60006112b0826040518060400160405280602081526020017f5361666545524332303a206c6f772d6c6576656c2063616c6c206661696c6564815250856001600160a01b03166113409092919063ffffffff16565b80519091501561125657808060200190518101906112ce91906115ba565b6112565760405162461bcd60e51b815260206004820152602a60248201527f5361666545524332303a204552433230206f7065726174696f6e20646964206e60448201527f6f7420737563636565640000000000000000000000000000000000000000000060648201526084016103f6565b606061134f8484600085611357565b949350505050565b6060824710156113cf5760405162461bcd60e51b815260206004820152602660248201527f416464726573733a20696e73756666696369656e742062616c616e636520666f60448201527f722063616c6c000000000000000000000000000000000000000000000000000060648201526084016103f6565b6001600160a01b0385163b6114265760405162461bcd60e51b815260206004820152601d60248201527f416464726573733a2063616c6c20746f206e6f6e2d636f6e747261637400000060448201526064016103f6565b600080866001600160a01b03168587604051611442919061164e565b60006040518083038185875af1925050503d806000811461147f576040519150601f19603f3d011682016040523d82523d6000602084013e611484565b606091505b509150915061149482828661149f565b979650505050505050565b606083156114ae57508161111b565b8251156114be5782518084602001fd5b8160405162461bcd60e51b81526004016103f69190611734565b80356001600160a01b03811681146114ef57600080fd5b919050565b60008060208385031215611506578182fd5b823567ffffffffffffffff8082111561151d578384fd5b818501915085601f830112611530578384fd5b81358181111561153e578485fd5b8660208260051b8501011115611552578485fd5b60209290920196919550909350505050565b6000806000806000610180868803121561157c578081fd5b61010086018781111561158d578182fd5b86955035935061012085013592506115a861014086016114d8565b94979396509194610160013592915050565b6000602082840312156115cb578081fd5b815161111b816117db565b6000602082840312156115e7578081fd5b5035919050565b600080600060608486031215611602578283fd5b833592506020840135611614816117db565b9150611622604085016114d8565b90509250925092565b8060005b600281101561115657815184526020938401939091019060010161162f565b6000825161166081846020870161177e565b9190910192915050565b6020808252825182820181905260009190848201906040850190845b818110156116a4578351151583529284019291840191600101611686565b50909695505050505050565b61018081016116bf828761162b565b60408083018660005b60028110156116ef576116dc83835161162b565b91830191602091909101906001016116c8565b5050505061170060c083018561162b565b61010082018360005b6004811015611728578151835260209283019290910190600101611709565b50505095945050505050565b602081526000825180602084015261175381604085016020870161177e565b601f01601f19169190910160400192915050565b600082821015611779576117796117c5565b500390565b60005b83811015611799578181015183820152602001611781565b838111156111565750506000910152565b60006000198214156117be576117be6117c5565b5060010190565b634e487b7160e01b600052601160045260246000fd5b801515811461105457600080fdfea264697066735822122066e6cde1df295704a0af16af7bb2618f28cda2a271fb04b1f9288e4b9e0ea2c664736f6c63430008040033",
  "linkReferences": {},
  "deployedLinkReferences": {}
}