{
  "_format": "hh-sol-artifact-1",
  "contractName": "MOCKERC721",
  "sourceName": "contracts/Mock/MockERC721.sol",
  "abi": [
    {
      "inputs": [],
      "stateMutability": "nonpayable",
      "type": "constructor"
    },
    {
      "anonymous": false,
      "inputs": [
        {
          "indexed": true,
          "internalType": "address",
          "name": "owner",
          "type": "address"
        },
        {
          "indexed": true,
          "internalType": "address",
          "name": "approved",
          "type": "address"
        },
        {
          "indexed": true,
          "internalType": "uint256",
          "name": "tokenId",
          "type": "uint256"
        }
      ],
      "name": "Approval",
      "type": "event"
    },
    {
      "anonymous": false,
      "inputs": [
        {
          "indexed": true,
          "internalType": "address",
          "name": "owner",
          "type": "address"
        },
        {
          "indexed": true,
          "internalType": "address",
          "name": "operator",
          "type": "address"
        },
        {
          "indexed": false,
          "internalType": "bool",
          "name": "approved",
          "type": "bool"
        }
      ],
      "name": "ApprovalForAll",
      "type": "event"
    },
    {
      "anonymous": false,
      "inputs": [
        {
          "indexed": true,
          "internalType": "address",
          "name": "from",
          "type": "address"
        },
        {
          "indexed": true,
          "internalType": "address",
          "name": "to",
          "type": "address"
        },
        {
          "indexed": true,
          "internalType": "uint256",
          "name": "tokenId",
          "type": "uint256"
        }
      ],
      "name": "Transfer",
      "type": "event"
    },
    {
      "inputs": [
        {
          "internalType": "address",
          "name": "to",
          "type": "address"
        },
        {
          "internalType": "uint256",
          "name": "tokenId",
          "type": "uint256"
        }
      ],
      "name": "approve",
      "outputs": [],
      "stateMutability": "nonpayable",
      "type": "function"
    },
    {
      "inputs": [
        {
          "internalType": "address",
          "name": "owner",
          "type": "address"
        }
      ],
      "name": "balanceOf",
      "outputs": [
        {
          "internalType": "uint256",
          "name": "",
          "type": "uint256"
        }
      ],
      "stateMutability": "view",
      "type": "function"
    },
    {
      "inputs": [
        {
          "internalType": "uint256",
          "name": "tokenId",
          "type": "uint256"
        }
      ],
      "name": "getApproved",
      "outputs": [
        {
          "internalType": "address",
          "name": "",
          "type": "address"
        }
      ],
      "stateMutability": "view",
      "type": "function"
    },
    {
      "inputs": [
        {
          "internalType": "address",
          "name": "owner",
          "type": "address"
        },
        {
          "internalType": "address",
          "name": "operator",
          "type": "address"
        }
      ],
      "name": "isApprovedForAll",
      "outputs": [
        {
          "internalType": "bool",
          "name": "",
          "type": "bool"
        }
      ],
      "stateMutability": "view",
      "type": "function"
    },
    {
      "inputs": [
        {
          "internalType": "address",
          "name": "_to",
          "type": "address"
        },
        {
          "internalType": "uint256",
          "name": "_tokenId",
          "type": "uint256"
        }
      ],
      "name": "mintUniqueTokenTo",
      "outputs": [],
      "stateMutability": "nonpayable",
      "type": "function"
    },
    {
      "inputs": [],
      "name": "name",
      "outputs": [
        {
          "internalType": "string",
          "name": "",
          "type": "string"
        }
      ],
      "stateMutability": "view",
      "type": "function"
    },
    {
      "inputs": [
        {
          "internalType": "uint256",
          "name": "tokenId",
          "type": "uint256"
        }
      ],
      "name": "ownerOf",
      "outputs": [
        {
          "internalType": "address",
          "name": "",
          "type": "address"
        }
      ],
      "stateMutability": "view",
      "type": "function"
    },
    {
      "inputs": [
        {
          "internalType": "address",
          "name": "from",
          "type": "address"
        },
        {
          "internalType": "address",
          "name": "to",
          "type": "address"
        },
        {
          "internalType": "uint256",
          "name": "tokenId",
          "type": "uint256"
        }
      ],
      "name": "safeTransferFrom",
      "outputs": [],
      "stateMutability": "nonpayable",
      "type": "function"
    },
    {
      "inputs": [
        {
          "internalType": "address",
          "name": "from",
          "type": "address"
        },
        {
          "internalType": "address",
          "name": "to",
          "type": "address"
        },
        {
          "internalType": "uint256",
          "name": "tokenId",
          "type": "uint256"
        },
        {
          "internalType": "bytes",
          "name": "data",
          "type": "bytes"
        }
      ],
      "name": "safeTransferFrom",
      "outputs": [],
      "stateMutability": "nonpayable",
      "type": "function"
    },
    {
      "inputs": [
        {
          "internalType": "address",
          "name": "operator",
          "type": "address"
        },
        {
          "internalType": "bool",
          "name": "approved",
          "type": "bool"
        }
      ],
      "name": "setApprovalForAll",
      "outputs": [],
      "stateMutability": "nonpayable",
      "type": "function"
    },
    {
      "inputs": [
        {
          "internalType": "bytes4",
          "name": "interfaceId",
          "type": "bytes4"
        }
      ],
      "name": "supportsInterface",
      "outputs": [
        {
          "internalType": "bool",
          "name": "",
          "type": "bool"
        }
      ],
      "stateMutability": "view",
      "type": "function"
    },
    {
      "inputs": [],
      "name": "symbol",
      "outputs": [
        {
          "internalType": "string",
          "name": "",
          "type": "string"
        }
      ],
      "stateMutability": "view",
      "type": "function"
    },
    {
      "inputs": [
        {
          "internalType": "uint256",
          "name": "tokenId",
          "type": "uint256"
        }
      ],
      "name": "tokenURI",
      "outputs": [
        {
          "internalType": "string",
          "name": "",
          "type": "string"
        }
      ],
      "stateMutability": "view",
      "type": "function"
    },
    {
      "inputs": [
        {
          "internalType": "address",
          "name": "from",
          "type": "address"
        },
        {
          "internalType": "address",
          "name": "to",
          "type": "address"
        },
        {
          "internalType": "uint256",
          "name": "tokenId",
          "type": "uint256"
        }
      ],
      "name": "transferFrom",
      "outputs": [],
      "stateMutability": "nonpayable",
      "type": "function"
    }
  ],
  "bytecode": "0x60806040523480156200001157600080fd5b50604080518082018252600a8152694d4f434b45524337323160b01b6020808301918252835180850190945260048452634d4f434b60e01b90840152815191929162000060916000916200007f565b508051620000769060019060208401906200007f565b50505062000162565b8280546200008d9062000125565b90600052602060002090601f016020900481019282620000b15760008555620000fc565b82601f10620000cc57805160ff1916838001178555620000fc565b82800160010185558215620000fc579182015b82811115620000fc578251825591602001919060010190620000df565b506200010a9291506200010e565b5090565b5b808211156200010a57600081556001016200010f565b600181811c908216806200013a57607f821691505b602082108114156200015c57634e487b7160e01b600052602260045260246000fd5b50919050565b6114ad80620001726000396000f3fe608060405234801561001057600080fd5b50600436106100ea5760003560e01c806370a082311161008c578063b6d5e8cd11610066578063b6d5e8cd146101e1578063b88d4fde146101f4578063c87b56dd14610207578063e985e9c51461021a57600080fd5b806370a08231146101a557806395d89b41146101c6578063a22cb465146101ce57600080fd5b8063095ea7b3116100c8578063095ea7b31461015757806323b872dd1461016c57806342842e0e1461017f5780636352211e1461019257600080fd5b806301ffc9a7146100ef57806306fdde0314610117578063081812fc1461012c575b600080fd5b6101026100fd36600461124c565b610256565b60405190151581526020015b60405180910390f35b61011f6102f3565b60405161010e9190611333565b61013f61013a366004611284565b610385565b6040516001600160a01b03909116815260200161010e565b61016a610165366004611223565b6103ac565b005b61016a61017a3660046110d9565b6104e3565b61016a61018d3660046110d9565b61056a565b61013f6101a0366004611284565b610575565b6101b86101b336600461108d565b6105da565b60405190815260200161010e565b61011f610674565b61016a6101dc3660046111e9565b610683565b61016a6101ef366004611223565b610692565b61016a610202366004611114565b61069c565b61011f610215366004611284565b61072a565b6101026102283660046110a7565b6001600160a01b03918216600090815260056020908152604080832093909416825291909152205460ff1690565b60006001600160e01b031982167f80ac58cd0000000000000000000000000000000000000000000000000000000014806102b957506001600160e01b031982167f5b5e139f00000000000000000000000000000000000000000000000000000000145b806102ed57507f01ffc9a7000000000000000000000000000000000000000000000000000000006001600160e01b03198316145b92915050565b606060008054610302906113b5565b80601f016020809104026020016040519081016040528092919081815260200182805461032e906113b5565b801561037b5780601f106103505761010080835404028352916020019161037b565b820191906000526020600020905b81548152906001019060200180831161035e57829003601f168201915b5050505050905090565b6000610390826107c3565b506000908152600460205260409020546001600160a01b031690565b60006103b782610575565b9050806001600160a01b0316836001600160a01b031614156104465760405162461bcd60e51b815260206004820152602160248201527f4552433732313a20617070726f76616c20746f2063757272656e74206f776e6560448201527f720000000000000000000000000000000000000000000000000000000000000060648201526084015b60405180910390fd5b336001600160a01b038216148061046257506104628133610228565b6104d45760405162461bcd60e51b815260206004820152603e60248201527f4552433732313a20617070726f76652063616c6c6572206973206e6f7420746f60448201527f6b656e206f776e6572206e6f7220617070726f76656420666f7220616c6c0000606482015260840161043d565b6104de838361082a565b505050565b6104ed33826108a5565b61055f5760405162461bcd60e51b815260206004820152602e60248201527f4552433732313a2063616c6c6572206973206e6f7420746f6b656e206f776e6560448201527f72206e6f7220617070726f766564000000000000000000000000000000000000606482015260840161043d565b6104de838383610924565b6104de838383610afe565b6000818152600260205260408120546001600160a01b0316806102ed5760405162461bcd60e51b815260206004820152601860248201527f4552433732313a20696e76616c696420746f6b656e2049440000000000000000604482015260640161043d565b60006001600160a01b0382166106585760405162461bcd60e51b815260206004820152602960248201527f4552433732313a2061646472657373207a65726f206973206e6f74206120766160448201527f6c6964206f776e65720000000000000000000000000000000000000000000000606482015260840161043d565b506001600160a01b031660009081526003602052604090205490565b606060018054610302906113b5565b61068e338383610b19565b5050565b61068e8282610be8565b6106a633836108a5565b6107185760405162461bcd60e51b815260206004820152602e60248201527f4552433732313a2063616c6c6572206973206e6f7420746f6b656e206f776e6560448201527f72206e6f7220617070726f766564000000000000000000000000000000000000606482015260840161043d565b61072484848484610d37565b50505050565b6060610735826107c3565b600061077160408051808201909152600e81527f6c6f63616c686f73743a31323334000000000000000000000000000000000000602082015290565b9050600081511161079157604051806020016040528060008152506107bc565b8061079b84610dc0565b6040516020016107ac9291906112c8565b6040516020818303038152906040525b9392505050565b6000818152600260205260409020546001600160a01b03166108275760405162461bcd60e51b815260206004820152601860248201527f4552433732313a20696e76616c696420746f6b656e2049440000000000000000604482015260640161043d565b50565b6000818152600460205260409020805473ffffffffffffffffffffffffffffffffffffffff19166001600160a01b038416908117909155819061086c82610575565b6001600160a01b03167f8c5be1e5ebec7d5bd14f71427d1e84f3dd0314c0f7b2291e5b200ac8c7c3b92560405160405180910390a45050565b6000806108b183610575565b9050806001600160a01b0316846001600160a01b031614806108f857506001600160a01b0380821660009081526005602090815260408083209388168352929052205460ff165b8061091c5750836001600160a01b031661091184610385565b6001600160a01b0316145b949350505050565b826001600160a01b031661093782610575565b6001600160a01b0316146109b35760405162461bcd60e51b815260206004820152602560248201527f4552433732313a207472616e736665722066726f6d20696e636f72726563742060448201527f6f776e6572000000000000000000000000000000000000000000000000000000606482015260840161043d565b6001600160a01b038216610a2e5760405162461bcd60e51b8152602060048201526024808201527f4552433732313a207472616e7366657220746f20746865207a65726f2061646460448201527f7265737300000000000000000000000000000000000000000000000000000000606482015260840161043d565b610a3960008261082a565b6001600160a01b0383166000908152600360205260408120805460019290610a62908490611372565b90915550506001600160a01b0382166000908152600360205260408120805460019290610a90908490611346565b9091555050600081815260026020526040808220805473ffffffffffffffffffffffffffffffffffffffff19166001600160a01b0386811691821790925591518493918716917fddf252ad1be2c89b69c2b068fc378daa952ba7f163c4a11628f55a4df523b3ef91a4505050565b6104de8383836040518060200160405280600081525061069c565b816001600160a01b0316836001600160a01b03161415610b7b5760405162461bcd60e51b815260206004820152601960248201527f4552433732313a20617070726f766520746f2063616c6c657200000000000000604482015260640161043d565b6001600160a01b03838116600081815260056020908152604080832094871680845294825291829020805460ff191686151590811790915591519182527f17307eab39ab6107e8899845ad3d59bd9653f200f220920489ca2b5937696c31910160405180910390a3505050565b6001600160a01b038216610c3e5760405162461bcd60e51b815260206004820181905260248201527f4552433732313a206d696e7420746f20746865207a65726f2061646472657373604482015260640161043d565b6000818152600260205260409020546001600160a01b031615610ca35760405162461bcd60e51b815260206004820152601c60248201527f4552433732313a20746f6b656e20616c7265616479206d696e74656400000000604482015260640161043d565b6001600160a01b0382166000908152600360205260408120805460019290610ccc908490611346565b9091555050600081815260026020526040808220805473ffffffffffffffffffffffffffffffffffffffff19166001600160a01b03861690811790915590518392907fddf252ad1be2c89b69c2b068fc378daa952ba7f163c4a11628f55a4df523b3ef908290a45050565b610d42848484610924565b610d4e84848484610f0e565b6107245760405162461bcd60e51b815260206004820152603260248201527f4552433732313a207472616e7366657220746f206e6f6e20455243373231526560448201527f63656976657220696d706c656d656e7465720000000000000000000000000000606482015260840161043d565b606081610e0057505060408051808201909152600181527f3000000000000000000000000000000000000000000000000000000000000000602082015290565b8160005b8115610e2a5780610e14816113f0565b9150610e239050600a8361135e565b9150610e04565b60008167ffffffffffffffff811115610e5357634e487b7160e01b600052604160045260246000fd5b6040519080825280601f01601f191660200182016040528015610e7d576020820181803683370190505b5090505b841561091c57610e92600183611372565b9150610e9f600a8661140b565b610eaa906030611346565b60f81b818381518110610ecd57634e487b7160e01b600052603260045260246000fd5b60200101907effffffffffffffffffffffffffffffffffffffffffffffffffffffffffffff1916908160001a905350610f07600a8661135e565b9450610e81565b60006001600160a01b0384163b1561106657604051630a85bd0160e11b81526001600160a01b0385169063150b7a0290610f529033908990889088906004016112f7565b602060405180830381600087803b158015610f6c57600080fd5b505af1925050508015610f9c575060408051601f3d908101601f19168201909252610f9991810190611268565b60015b61104c573d808015610fca576040519150601f19603f3d011682016040523d82523d6000602084013e610fcf565b606091505b5080516110445760405162461bcd60e51b815260206004820152603260248201527f4552433732313a207472616e7366657220746f206e6f6e20455243373231526560448201527f63656976657220696d706c656d656e7465720000000000000000000000000000606482015260840161043d565b805181602001fd5b6001600160e01b031916630a85bd0160e11b14905061091c565b506001949350505050565b80356001600160a01b038116811461108857600080fd5b919050565b60006020828403121561109e578081fd5b6107bc82611071565b600080604083850312156110b9578081fd5b6110c283611071565b91506110d060208401611071565b90509250929050565b6000806000606084860312156110ed578081fd5b6110f684611071565b925061110460208501611071565b9150604084013590509250925092565b60008060008060808587031215611129578081fd5b61113285611071565b935061114060208601611071565b925060408501359150606085013567ffffffffffffffff80821115611163578283fd5b818701915087601f830112611176578283fd5b8135818111156111885761118861144b565b604051601f8201601f19908116603f011681019083821181831017156111b0576111b061144b565b816040528281528a60208487010111156111c8578586fd5b82602086016020830137918201602001949094529598949750929550505050565b600080604083850312156111fb578182fd5b61120483611071565b915060208301358015158114611218578182fd5b809150509250929050565b60008060408385031215611235578182fd5b61123e83611071565b946020939093013593505050565b60006020828403121561125d578081fd5b81356107bc81611461565b600060208284031215611279578081fd5b81516107bc81611461565b600060208284031215611295578081fd5b5035919050565b600081518084526112b4816020860160208601611389565b601f01601f19169290920160200192915050565b600083516112da818460208801611389565b8351908301906112ee818360208801611389565b01949350505050565b60006001600160a01b03808716835280861660208401525083604083015260806060830152611329608083018461129c565b9695505050505050565b6020815260006107bc602083018461129c565b600082198211156113595761135961141f565b500190565b60008261136d5761136d611435565b500490565b6000828210156113845761138461141f565b500390565b60005b838110156113a457818101518382015260200161138c565b838111156107245750506000910152565b600181811c908216806113c957607f821691505b602082108114156113ea57634e487b7160e01b600052602260045260246000fd5b50919050565b60006000198214156114045761140461141f565b5060010190565b60008261141a5761141a611435565b500690565b634e487b7160e01b600052601160045260246000fd5b634e487b7160e01b600052601260045260246000fd5b634e487b7160e01b600052604160045260246000fd5b6001600160e01b03198116811461082757600080fdfea26469706673582212205a37c281dfbe7aa498aeefa7beb3f4127a94c7c93f49e6c1b06c13c727d43d3264736f6c63430008040033",
  "linkReferences": {},
  "deployedLinkReferences": {}
}